{
  "contractName": "PokerHandResolutions",
  "abi": [
    {
      "constant": true,
      "inputs": [],
      "name": "owner",
      "outputs": [
        {
          "name": "",
          "type": "address"
        }
      ],
      "payable": false,
      "stateMutability": "view",
      "type": "function"
    },
    {
      "inputs": [],
      "payable": false,
      "stateMutability": "nonpayable",
      "type": "constructor"
    },
    {
      "payable": false,
      "stateMutability": "nonpayable",
      "type": "fallback"
    },
    {
      "constant": false,
      "inputs": [
        {
          "name": "dataAddr",
          "type": "address"
        },
        {
          "name": "winnerAddr",
          "type": "address"
        }
      ],
      "name": "declareWinner",
      "outputs": [],
      "payable": false,
      "stateMutability": "nonpayable",
      "type": "function"
    },
    {
      "constant": false,
      "inputs": [
        {
          "name": "dataAddr",
          "type": "address"
        }
      ],
      "name": "resolveWinner",
      "outputs": [],
      "payable": false,
      "stateMutability": "nonpayable",
      "type": "function"
    },
    {
      "constant": true,
      "inputs": [
        {
          "name": "dataAddr",
          "type": "address"
        }
      ],
      "name": "hasTimedOut",
      "outputs": [
        {
          "name": "",
          "type": "bool"
        }
      ],
      "payable": false,
      "stateMutability": "view",
      "type": "function"
    },
    {
      "constant": false,
      "inputs": [
        {
          "name": "dataAddr",
          "type": "address"
        },
        {
          "name": "validatorAddr",
          "type": "address"
        },
        {
          "name": "encKeys",
          "type": "uint256[]"
        },
        {
          "name": "decKeys",
          "type": "uint256[]"
        },
        {
          "name": "challengeValue",
          "type": "uint256"
        }
      ],
      "name": "challenge",
      "outputs": [],
      "payable": true,
      "stateMutability": "payable",
      "type": "function"
    },
    {
      "constant": false,
      "inputs": [
        {
          "name": "dataAddr",
          "type": "address"
        },
        {
          "name": "encKeys",
          "type": "uint256[]"
        },
        {
          "name": "decKeys",
          "type": "uint256[]"
        },
        {
          "name": "bestCards",
          "type": "uint256[]"
        }
      ],
      "name": "L1Validate",
      "outputs": [],
      "payable": false,
      "stateMutability": "nonpayable",
      "type": "function"
    },
    {
      "constant": false,
      "inputs": [
        {
          "name": "dataAddr",
          "type": "address"
        },
        {
          "name": "validatorAddr",
          "type": "address"
        }
      ],
      "name": "L2Validate",
      "outputs": [],
      "payable": true,
      "stateMutability": "payable",
      "type": "function"
    }
  ],
  "bytecode": "0x608060405234801561001057600080fd5b50336000806101000a81548173ffffffffffffffffffffffffffffffffffffffff021916908373ffffffffffffffffffffffffffffffffffffffff16021790555061477c806100606000396000f3fe6080604052600436106100705760003560e01c80639083d3fa1161004e5780639083d3fa146102c0578063a7f93edc14610331578063aabc6cf614610395578063f7313b96146105a257610070565b80631ab8bcbc146100825780637055b255146100d35780638da5cb5b14610269575b34801561007c57600080fd5b50600080fd5b34801561008e57600080fd5b506100d1600480360360208110156100a557600080fd5b81019080803573ffffffffffffffffffffffffffffffffffffffff16906020019092919050505061060b565b005b610267600480360360a08110156100e957600080fd5b81019080803573ffffffffffffffffffffffffffffffffffffffff169060200190929190803573ffffffffffffffffffffffffffffffffffffffff1690602001909291908035906020019064010000000081111561014657600080fd5b82018360208201111561015857600080fd5b8035906020019184602083028401116401000000008311171561017a57600080fd5b919080806020026020016040519081016040528093929190818152602001838360200280828437600081840152601f19601f820116905080830192505050505050509192919290803590602001906401000000008111156101da57600080fd5b8201836020820111156101ec57600080fd5b8035906020019184602083028401116401000000008311171561020e57600080fd5b919080806020026020016040519081016040528093929190818152602001838360200280828437600081840152601f19601f82011690508083019250505050505050919291929080359060200190929190505050611d62565b005b34801561027557600080fd5b5061027e612564565b604051808273ffffffffffffffffffffffffffffffffffffffff1673ffffffffffffffffffffffffffffffffffffffff16815260200191505060405180910390f35b3480156102cc57600080fd5b5061032f600480360360408110156102e357600080fd5b81019080803573ffffffffffffffffffffffffffffffffffffffff169060200190929190803573ffffffffffffffffffffffffffffffffffffffff169060200190929190505050612589565b005b6103936004803603604081101561034757600080fd5b81019080803573ffffffffffffffffffffffffffffffffffffffff169060200190929190803573ffffffffffffffffffffffffffffffffffffffff169060200190929190505050612a6d565b005b3480156103a157600080fd5b506105a0600480360360808110156103b857600080fd5b81019080803573ffffffffffffffffffffffffffffffffffffffff169060200190929190803590602001906401000000008111156103f557600080fd5b82018360208201111561040757600080fd5b8035906020019184602083028401116401000000008311171561042957600080fd5b919080806020026020016040519081016040528093929190818152602001838360200280828437600081840152601f19601f8201169050808301925050505050505091929192908035906020019064010000000081111561048957600080fd5b82018360208201111561049b57600080fd5b803590602001918460208302840111640100000000831117156104bd57600080fd5b919080806020026020016040519081016040528093929190818152602001838360200280828437600081840152601f19601f8201169050808301925050505050505091929192908035906020019064010000000081111561051d57600080fd5b82018360208201111561052f57600080fd5b8035906020019184602083028401116401000000008311171561055157600080fd5b919080806020026020016040519081016040528093929190818152602001838360200280828437600081840152601f19601f820116905080830192505050505050509192919290505050612fc8565b005b3480156105ae57600080fd5b506105f1600480360360208110156105c557600080fd5b81019080803573ffffffffffffffffffffffffffffffffffffffff1690602001909291905050506134f5565b604051808215151515815260200191505060405180910390f35b60008190506000151561061d836134f5565b1515141561062a57600080fd5b8073ffffffffffffffffffffffffffffffffffffffff16639b1ac0ef600f6040518263ffffffff1660e01b81526004018082815260200191505060206040518083038186803b15801561067c57600080fd5b505afa158015610690573d6000803e3d6000fd5b505050506040513d60208110156106a657600080fd5b81019080805190602001909291905050508061074b57508073ffffffffffffffffffffffffffffffffffffffff16639b1ac0ef60106040518263ffffffff1660e01b81526004018082815260200191505060206040518083038186803b15801561070f57600080fd5b505afa158015610723573d6000803e3d6000fd5b505050506040513d602081101561073957600080fd5b81019080805190602001909291905050505b15610e3357600080905060008090506000600190505b8373ffffffffffffffffffffffffffffffffffffffff166350d9e6856040518163ffffffff1660e01b815260040160206040518083038186803b1580156107a757600080fd5b505afa1580156107bb573d6000803e3d6000fd5b505050506040513d60208110156107d157600080fd5b8101908080519060200190929190505050811015610afd578273ffffffffffffffffffffffffffffffffffffffff168473ffffffffffffffffffffffffffffffffffffffff1663cde6677c8673ffffffffffffffffffffffffffffffffffffffff1663f71d96cb856040518263ffffffff1660e01b81526004018082815260200191505060206040518083038186803b15801561086d57600080fd5b505afa158015610881573d6000803e3d6000fd5b505050506040513d602081101561089757600080fd5b81019080805190602001909291905050506040518263ffffffff1660e01b8152600401808273ffffffffffffffffffffffffffffffffffffffff1673ffffffffffffffffffffffffffffffffffffffff16815260200191505060206040518083038186803b15801561090857600080fd5b505afa15801561091c573d6000803e3d6000fd5b505050506040513d602081101561093257600080fd5b810190808051906020019092919050505073ffffffffffffffffffffffffffffffffffffffff16141561096c578180600101925050610af0565b600073ffffffffffffffffffffffffffffffffffffffff168373ffffffffffffffffffffffffffffffffffffffff161415610aef5781806001019250508373ffffffffffffffffffffffffffffffffffffffff1663cde6677c8573ffffffffffffffffffffffffffffffffffffffff1663f71d96cb846040518263ffffffff1660e01b81526004018082815260200191505060206040518083038186803b158015610a1657600080fd5b505afa158015610a2a573d6000803e3d6000fd5b505050506040513d6020811015610a4057600080fd5b81019080805190602001909291905050506040518263ffffffff1660e01b8152600401808273ffffffffffffffffffffffffffffffffffffffff1673ffffffffffffffffffffffffffffffffffffffff16815260200191505060206040518083038186803b158015610ab157600080fd5b505afa158015610ac5573d6000803e3d6000fd5b505050506040513d6020811015610adb57600080fd5b810190808051906020019092919050505092505b5b8080600101915050610761565b50600073ffffffffffffffffffffffffffffffffffffffff168273ffffffffffffffffffffffffffffffffffffffff161415610b3857600080fd5b8273ffffffffffffffffffffffffffffffffffffffff166350d9e6856040518163ffffffff1660e01b815260040160206040518083038186803b158015610b7e57600080fd5b505afa158015610b92573d6000803e3d6000fd5b505050506040513d6020811015610ba857600080fd5b81019080805190602001909291905050508114610d945760008090505b8373ffffffffffffffffffffffffffffffffffffffff166350d9e6856040518163ffffffff1660e01b815260040160206040518083038186803b158015610c0b57600080fd5b505afa158015610c1f573d6000803e3d6000fd5b505050506040513d6020811015610c3557600080fd5b81019080805190602001909291905050508160ff161015610d8e578373ffffffffffffffffffffffffffffffffffffffff166343f97e9e8573ffffffffffffffffffffffffffffffffffffffff1663f71d96cb846040518263ffffffff1660e01b8152600401808260ff16815260200191505060206040518083038186803b158015610cc057600080fd5b505afa158015610cd4573d6000803e3d6000fd5b505050506040513d6020811015610cea57600080fd5b810190808051906020019092919050505060116040518363ffffffff1660e01b8152600401808373ffffffffffffffffffffffffffffffffffffffff1673ffffffffffffffffffffffffffffffffffffffff1681526020018260ff16815260200192505050600060405180830381600087803b158015610d6957600080fd5b505af1158015610d7d573d6000803e3d6000fd5b505050508080600101915050610bc5565b50610e2c565b8273ffffffffffffffffffffffffffffffffffffffff1663e81df3a0836040518263ffffffff1660e01b8152600401808273ffffffffffffffffffffffffffffffffffffffff1673ffffffffffffffffffffffffffffffffffffffff168152602001915050600060405180830381600087803b158015610e1357600080fd5b505af1158015610e27573d6000803e3d6000fd5b505050505b5050611d5e565b8073ffffffffffffffffffffffffffffffffffffffff16639b1ac0ef60116040518263ffffffff1660e01b81526004018082815260200191505060206040518083038186803b158015610e8557600080fd5b505afa158015610e99573d6000803e3d6000fd5b505050506040513d6020811015610eaf57600080fd5b810190808051906020019092919050505080610f5457508073ffffffffffffffffffffffffffffffffffffffff16639b1ac0ef60136040518263ffffffff1660e01b81526004018082815260200191505060206040518083038186803b158015610f1857600080fd5b505afa158015610f2c573d6000803e3d6000fd5b505050506040513d6020811015610f4257600080fd5b81019080805190602001909291905050505b15611d5d576000809050600080905060008090505b8373ffffffffffffffffffffffffffffffffffffffff166350d9e6856040518163ffffffff1660e01b815260040160206040518083038186803b158015610faf57600080fd5b505afa158015610fc3573d6000803e3d6000fd5b505050506040513d6020811015610fd957600080fd5b81019080805190602001909291905050508160ff1610156113f157828473ffffffffffffffffffffffffffffffffffffffff16630aa2963a8673ffffffffffffffffffffffffffffffffffffffff1663f71d96cb856040518263ffffffff1660e01b8152600401808260ff16815260200191505060206040518083038186803b15801561106557600080fd5b505afa158015611079573d6000803e3d6000fd5b505050506040513d602081101561108f57600080fd5b81019080805190602001909291905050506040518263ffffffff1660e01b8152600401808273ffffffffffffffffffffffffffffffffffffffff1673ffffffffffffffffffffffffffffffffffffffff16815260200191505060206040518083038186803b15801561110057600080fd5b505afa158015611114573d6000803e3d6000fd5b505050506040513d602081101561112a57600080fd5b8101908080519060200190929190505050111561128e578373ffffffffffffffffffffffffffffffffffffffff16630aa2963a8573ffffffffffffffffffffffffffffffffffffffff1663f71d96cb846040518263ffffffff1660e01b8152600401808260ff16815260200191505060206040518083038186803b1580156111b157600080fd5b505afa1580156111c5573d6000803e3d6000fd5b505050506040513d60208110156111db57600080fd5b81019080805190602001909291905050506040518263ffffffff1660e01b8152600401808273ffffffffffffffffffffffffffffffffffffffff1673ffffffffffffffffffffffffffffffffffffffff16815260200191505060206040518083038186803b15801561124c57600080fd5b505afa158015611260573d6000803e3d6000fd5b505050506040513d602081101561127657600080fd5b81019080805190602001909291905050509250600091505b828473ffffffffffffffffffffffffffffffffffffffff16630aa2963a8673ffffffffffffffffffffffffffffffffffffffff1663f71d96cb856040518263ffffffff1660e01b8152600401808260ff16815260200191505060206040518083038186803b1580156112ff57600080fd5b505afa158015611313573d6000803e3d6000fd5b505050506040513d602081101561132957600080fd5b81019080805190602001909291905050506040518263ffffffff1660e01b8152600401808273ffffffffffffffffffffffffffffffffffffffff1673ffffffffffffffffffffffffffffffffffffffff16815260200191505060206040518083038186803b15801561139a57600080fd5b505afa1580156113ae573d6000803e3d6000fd5b505050506040513d60208110156113c457600080fd5b810190808051906020019092919050505014156113e45781806001019250505b8080600101915050610f69565b506002811115611a475760008090505b8373ffffffffffffffffffffffffffffffffffffffff166350d9e6856040518163ffffffff1660e01b815260040160206040518083038186803b15801561144757600080fd5b505afa15801561145b573d6000803e3d6000fd5b505050506040513d602081101561147157600080fd5b81019080805190602001909291905050508160ff16101561172f57828473ffffffffffffffffffffffffffffffffffffffff1663ef378f628673ffffffffffffffffffffffffffffffffffffffff1663f71d96cb856040518263ffffffff1660e01b8152600401808260ff16815260200191505060206040518083038186803b1580156114fd57600080fd5b505afa158015611511573d6000803e3d6000fd5b505050506040513d602081101561152757600080fd5b81019080805190602001909291905050506040518263ffffffff1660e01b8152600401808273ffffffffffffffffffffffffffffffffffffffff1673ffffffffffffffffffffffffffffffffffffffff16815260200191505060206040518083038186803b15801561159857600080fd5b505afa1580156115ac573d6000803e3d6000fd5b505050506040513d60208110156115c257600080fd5b81019080805190602001909291905050501115611722578373ffffffffffffffffffffffffffffffffffffffff1663ef378f628573ffffffffffffffffffffffffffffffffffffffff1663f71d96cb846040518263ffffffff1660e01b8152600401808260ff16815260200191505060206040518083038186803b15801561164957600080fd5b505afa15801561165d573d6000803e3d6000fd5b505050506040513d602081101561167357600080fd5b81019080805190602001909291905050506040518263ffffffff1660e01b8152600401808273ffffffffffffffffffffffffffffffffffffffff1673ffffffffffffffffffffffffffffffffffffffff16815260200191505060206040518083038186803b1580156116e457600080fd5b505afa1580156116f8573d6000803e3d6000fd5b505050506040513d602081101561170e57600080fd5b810190808051906020019092919050505092505b8080600101915050611401565b5060008090505b8373ffffffffffffffffffffffffffffffffffffffff166350d9e6856040518163ffffffff1660e01b815260040160206040518083038186803b15801561177c57600080fd5b505afa158015611790573d6000803e3d6000fd5b505050506040513d60208110156117a657600080fd5b81019080805190602001909291905050508160ff161015611a4157828473ffffffffffffffffffffffffffffffffffffffff1663ef378f628673ffffffffffffffffffffffffffffffffffffffff1663f71d96cb856040518263ffffffff1660e01b8152600401808260ff16815260200191505060206040518083038186803b15801561183257600080fd5b505afa158015611846573d6000803e3d6000fd5b505050506040513d602081101561185c57600080fd5b81019080805190602001909291905050506040518263ffffffff1660e01b8152600401808273ffffffffffffffffffffffffffffffffffffffff1673ffffffffffffffffffffffffffffffffffffffff16815260200191505060206040518083038186803b1580156118cd57600080fd5b505afa1580156118e1573d6000803e3d6000fd5b505050506040513d60208110156118f757600080fd5b81019080805190602001909291905050501415611a34578373ffffffffffffffffffffffffffffffffffffffff1663e81df3a08573ffffffffffffffffffffffffffffffffffffffff1663f71d96cb846040518263ffffffff1660e01b8152600401808260ff16815260200191505060206040518083038186803b15801561197e57600080fd5b505afa158015611992573d6000803e3d6000fd5b505050506040513d60208110156119a857600080fd5b81019080805190602001909291905050506040518263ffffffff1660e01b8152600401808273ffffffffffffffffffffffffffffffffffffffff1673ffffffffffffffffffffffffffffffffffffffff168152602001915050600060405180830381600087803b158015611a1b57600080fd5b505af1158015611a2f573d6000803e3d6000fd5b505050505b8080600101915050611736565b50611d5a565b60008090505b8373ffffffffffffffffffffffffffffffffffffffff166350d9e6856040518163ffffffff1660e01b815260040160206040518083038186803b158015611a9357600080fd5b505afa158015611aa7573d6000803e3d6000fd5b505050506040513d6020811015611abd57600080fd5b81019080805190602001909291905050508160ff161015611d5857828473ffffffffffffffffffffffffffffffffffffffff16630aa2963a8673ffffffffffffffffffffffffffffffffffffffff1663f71d96cb856040518263ffffffff1660e01b8152600401808260ff16815260200191505060206040518083038186803b158015611b4957600080fd5b505afa158015611b5d573d6000803e3d6000fd5b505050506040513d6020811015611b7357600080fd5b81019080805190602001909291905050506040518263ffffffff1660e01b8152600401808273ffffffffffffffffffffffffffffffffffffffff1673ffffffffffffffffffffffffffffffffffffffff16815260200191505060206040518083038186803b158015611be457600080fd5b505afa158015611bf8573d6000803e3d6000fd5b505050506040513d6020811015611c0e57600080fd5b81019080805190602001909291905050501415611d4b578373ffffffffffffffffffffffffffffffffffffffff1663e81df3a08573ffffffffffffffffffffffffffffffffffffffff1663f71d96cb846040518263ffffffff1660e01b8152600401808260ff16815260200191505060206040518083038186803b158015611c9557600080fd5b505afa158015611ca9573d6000803e3d6000fd5b505050506040513d6020811015611cbf57600080fd5b81019080805190602001909291905050506040518263ffffffff1660e01b8152600401808273ffffffffffffffffffffffffffffffffffffffff1673ffffffffffffffffffffffffffffffffffffffff168152602001915050600060405180830381600087803b158015611d3257600080fd5b505af1158015611d46573d6000803e3d6000fd5b505050505b8080600101915050611a4d565b505b50505b5b5050565b6000859050600015158173ffffffffffffffffffffffffffffffffffffffff1663a5b8f210336040518263ffffffff1660e01b8152600401808273ffffffffffffffffffffffffffffffffffffffff1673ffffffffffffffffffffffffffffffffffffffff16815260200191505060206040518083038186803b158015611de857600080fd5b505afa158015611dfc573d6000803e3d6000fd5b505050506040513d6020811015611e1257600080fd5b810190808051906020019092919050505015151415611e3057600080fd5b60138173ffffffffffffffffffffffffffffffffffffffff1663c842fc13336040518263ffffffff1660e01b8152600401808273ffffffffffffffffffffffffffffffffffffffff1673ffffffffffffffffffffffffffffffffffffffff16815260200191505060206040518083038186803b158015611eaf57600080fd5b505afa158015611ec3573d6000803e3d6000fd5b505050506040513d6020811015611ed957600080fd5b810190808051906020019092919050505060ff16146123765760018173ffffffffffffffffffffffffffffffffffffffff166350d9e6856040518163ffffffff1660e01b815260040160206040518083038186803b158015611f3a57600080fd5b505afa158015611f4e573d6000803e3d6000fd5b505050506040513d6020811015611f6457600080fd5b810190808051906020019092919050505003670853a0d2313c0000023414611f8b57600080fd5b600273ffffffffffffffffffffffffffffffffffffffff168173ffffffffffffffffffffffffffffffffffffffff1663534db0e26040518163ffffffff1660e01b815260040160206040518083038186803b158015611fe957600080fd5b505afa158015611ffd573d6000803e3d6000fd5b505050506040513d602081101561201357600080fd5b810190808051906020019092919050505073ffffffffffffffffffffffffffffffffffffffff161015612180578073ffffffffffffffffffffffffffffffffffffffff166323a4c925336040518263ffffffff1660e01b8152600401808273ffffffffffffffffffffffffffffffffffffffff1673ffffffffffffffffffffffffffffffffffffffff168152602001915050600060405180830381600087803b1580156120bf57600080fd5b505af11580156120d3573d6000803e3d6000fd5b505050508073ffffffffffffffffffffffffffffffffffffffff1663ef26869d336000856040518463ffffffff1660e01b8152600401808473ffffffffffffffffffffffffffffffffffffffff1673ffffffffffffffffffffffffffffffffffffffff1681526020018381526020018281526020019350505050600060405180830381600087803b15801561216757600080fd5b505af115801561217b573d6000803e3d6000fd5b505050505b600084511480612191575060008351145b1561219b57600080fd5b82518451146121a957600080fd5b8073ffffffffffffffffffffffffffffffffffffffff1663bfedbd563386866040518463ffffffff1660e01b8152600401808473ffffffffffffffffffffffffffffffffffffffff1673ffffffffffffffffffffffffffffffffffffffff1681526020018060200180602001838103835285818151815260200191508051906020019060200280838360005b83811015612250578082015181840152602081019050612235565b50505050905001838103825284818151815260200191508051906020019060200280838360005b83811015612292578082015181840152602081019050612277565b5050505090500195505050505050600060405180830381600087803b1580156122ba57600080fd5b505af11580156122ce573d6000803e3d6000fd5b505050508073ffffffffffffffffffffffffffffffffffffffff166343f97e9e3360136040518363ffffffff1660e01b8152600401808373ffffffffffffffffffffffffffffffffffffffff1673ffffffffffffffffffffffffffffffffffffffff1681526020018260ff16815260200192505050600060405180830381600087803b15801561235d57600080fd5b505af1158015612371573d6000803e3d6000fd5b505050505b60008590508073ffffffffffffffffffffffffffffffffffffffff16635e8b99766175305a03898573ffffffffffffffffffffffffffffffffffffffff1663534db0e26040518163ffffffff1660e01b815260040160206040518083038186803b1580156123e357600080fd5b505afa1580156123f7573d6000803e3d6000fd5b505050506040513d602081101561240d57600080fd5b81019080805190602001909291905050506040518463ffffffff1660e01b8152600401808373ffffffffffffffffffffffffffffffffffffffff1673ffffffffffffffffffffffffffffffffffffffff1681526020018273ffffffffffffffffffffffffffffffffffffffff1673ffffffffffffffffffffffffffffffffffffffff16815260200192505050602060405180830381600088803b1580156124b357600080fd5b5087f11580156124c7573d6000803e3d6000fd5b50505050506040513d60208110156124de57600080fd5b8101908080519060200190929190505050508173ffffffffffffffffffffffffffffffffffffffff166362be90b0436040518263ffffffff1660e01b815260040180828152602001915050600060405180830381600087803b15801561254357600080fd5b505af1158015612557573d6000803e3d6000fd5b5050505050505050505050565b6000809054906101000a900473ffffffffffffffffffffffffffffffffffffffff1681565b60008290508073ffffffffffffffffffffffffffffffffffffffff1663a5b8f210336040518263ffffffff1660e01b8152600401808273ffffffffffffffffffffffffffffffffffffffff1673ffffffffffffffffffffffffffffffffffffffff16815260200191505060206040518083038186803b15801561260b57600080fd5b505afa15801561261f573d6000803e3d6000fd5b505050506040513d602081101561263557600080fd5b810190808051906020019092919050505015612717578073ffffffffffffffffffffffffffffffffffffffff16638233374933846040518363ffffffff1660e01b8152600401808373ffffffffffffffffffffffffffffffffffffffff1673ffffffffffffffffffffffffffffffffffffffff1681526020018273ffffffffffffffffffffffffffffffffffffffff1673ffffffffffffffffffffffffffffffffffffffff16815260200192505050600060405180830381600087803b1580156126fe57600080fd5b505af1158015612712573d6000803e3d6000fd5b505050505b600080905060008090505b8273ffffffffffffffffffffffffffffffffffffffff166350d9e6856040518163ffffffff1660e01b815260040160206040518083038186803b15801561276857600080fd5b505afa15801561277c573d6000803e3d6000fd5b505050506040513d602081101561279257600080fd5b8101908080519060200190929190505050811015612936578373ffffffffffffffffffffffffffffffffffffffff168373ffffffffffffffffffffffffffffffffffffffff1663cde6677c8573ffffffffffffffffffffffffffffffffffffffff1663f71d96cb856040518263ffffffff1660e01b81526004018082815260200191505060206040518083038186803b15801561282e57600080fd5b505afa158015612842573d6000803e3d6000fd5b505050506040513d602081101561285857600080fd5b81019080805190602001909291905050506040518263ffffffff1660e01b8152600401808273ffffffffffffffffffffffffffffffffffffffff1673ffffffffffffffffffffffffffffffffffffffff16815260200191505060206040518083038186803b1580156128c957600080fd5b505afa1580156128dd573d6000803e3d6000fd5b505050506040513d60208110156128f357600080fd5b810190808051906020019092919050505073ffffffffffffffffffffffffffffffffffffffff1614156129295781806001019250505b8080600101915050612722565b508173ffffffffffffffffffffffffffffffffffffffff166350d9e6856040518163ffffffff1660e01b815260040160206040518083038186803b15801561297d57600080fd5b505afa158015612991573d6000803e3d6000fd5b505050506040513d60208110156129a757600080fd5b8101908080519060200190929190505050811415612a66578173ffffffffffffffffffffffffffffffffffffffff1663e81df3a0846040518263ffffffff1660e01b8152600401808273ffffffffffffffffffffffffffffffffffffffff1673ffffffffffffffffffffffffffffffffffffffff168152602001915050600060405180830381600087803b158015612a3e57600080fd5b505af1158015612a52573d6000803e3d6000fd5b50505050612a5f84613737565b5050612a69565b50505b5050565b6000829050600015158173ffffffffffffffffffffffffffffffffffffffff16639b1ac0ef60106040518263ffffffff1660e01b81526004018082815260200191505060206040518083038186803b158015612ac857600080fd5b505afa158015612adc573d6000803e3d6000fd5b505050506040513d6020811015612af257600080fd5b810190808051906020019092919050505015151415612b1057600080fd5b60108173ffffffffffffffffffffffffffffffffffffffff1663c842fc13336040518263ffffffff1660e01b8152600401808273ffffffffffffffffffffffffffffffffffffffff1673ffffffffffffffffffffffffffffffffffffffff16815260200191505060206040518083038186803b158015612b8f57600080fd5b505afa158015612ba3573d6000803e3d6000fd5b505050506040513d6020811015612bb957600080fd5b810190808051906020019092919050505060ff161415612d105760018173ffffffffffffffffffffffffffffffffffffffff166350d9e6856040518163ffffffff1660e01b815260040160206040518083038186803b158015612c1b57600080fd5b505afa158015612c2f573d6000803e3d6000fd5b505050506040513d6020811015612c4557600080fd5b810190808051906020019092919050505003670853a0d2313c0000023414612c6c57600080fd5b8073ffffffffffffffffffffffffffffffffffffffff166343f97e9e3360116040518363ffffffff1660e01b8152600401808373ffffffffffffffffffffffffffffffffffffffff1673ffffffffffffffffffffffffffffffffffffffff1681526020018260ff16815260200192505050600060405180830381600087803b158015612cf757600080fd5b505af1158015612d0b573d6000803e3d6000fd5b505050505b600273ffffffffffffffffffffffffffffffffffffffff168173ffffffffffffffffffffffffffffffffffffffff1663534db0e26040518163ffffffff1660e01b815260040160206040518083038186803b158015612d6e57600080fd5b505afa158015612d82573d6000803e3d6000fd5b505050506040513d6020811015612d9857600080fd5b810190808051906020019092919050505073ffffffffffffffffffffffffffffffffffffffff161015612e5d578073ffffffffffffffffffffffffffffffffffffffff166323a4c925336040518263ffffffff1660e01b8152600401808273ffffffffffffffffffffffffffffffffffffffff1673ffffffffffffffffffffffffffffffffffffffff168152602001915050600060405180830381600087803b158015612e4457600080fd5b505af1158015612e58573d6000803e3d6000fd5b505050505b60008290508073ffffffffffffffffffffffffffffffffffffffff1663221e2efc6175305a0386336040518463ffffffff1660e01b8152600401808373ffffffffffffffffffffffffffffffffffffffff1673ffffffffffffffffffffffffffffffffffffffff1681526020018273ffffffffffffffffffffffffffffffffffffffff1673ffffffffffffffffffffffffffffffffffffffff16815260200192505050602060405180830381600088803b158015612f1a57600080fd5b5087f1158015612f2e573d6000803e3d6000fd5b50505050506040513d6020811015612f4557600080fd5b8101908080519060200190929190505050508173ffffffffffffffffffffffffffffffffffffffff166362be90b0436040518263ffffffff1660e01b815260040180828152602001915050600060405180830381600087803b158015612faa57600080fd5b505af1158015612fbe573d6000803e3d6000fd5b5050505050505050565b6000849050600f8173ffffffffffffffffffffffffffffffffffffffff1663c842fc13336040518263ffffffff1660e01b8152600401808273ffffffffffffffffffffffffffffffffffffffff1673ffffffffffffffffffffffffffffffffffffffff16815260200191505060206040518083038186803b15801561304c57600080fd5b505afa158015613060573d6000803e3d6000fd5b505050506040513d602081101561307657600080fd5b810190808051906020019092919050505060ff161461309457600080fd5b60008173ffffffffffffffffffffffffffffffffffffffff166349cd5efc6040518163ffffffff1660e01b815260040160206040518083038186803b1580156130dc57600080fd5b505afa1580156130f0573d6000803e3d6000fd5b505050506040513d602081101561310657600080fd5b81019080805190602001909291905050501461312157600080fd5b600084511480613132575060008351145b1561313c57600080fd5b825184511461314a57600080fd5b8073ffffffffffffffffffffffffffffffffffffffff1663bfedbd563386866040518463ffffffff1660e01b8152600401808473ffffffffffffffffffffffffffffffffffffffff1673ffffffffffffffffffffffffffffffffffffffff1681526020018060200180602001838103835285818151815260200191508051906020019060200280838360005b838110156131f15780820151818401526020810190506131d6565b50505050905001838103825284818151815260200191508051906020019060200280838360005b83811015613233578082015181840152602081019050613218565b5050505090500195505050505050600060405180830381600087803b15801561325b57600080fd5b505af115801561326f573d6000803e3d6000fd5b5050505060058251141561348357600080905060008090505b60058110156132fd5783818151811061329d57fe5b6020026020010151915060008090505b60058110156132ef578082141580156132d857508481815181106132cd57fe5b602002602001015183145b156132e257600080fd5b80806001019150506132ad565b508080600101915050613288565b5060008090505b60058160ff1610156133dd578273ffffffffffffffffffffffffffffffffffffffff1663ef26869d3383878560ff168151811061333d57fe5b60200260200101516040518463ffffffff1660e01b8152600401808473ffffffffffffffffffffffffffffffffffffffff1673ffffffffffffffffffffffffffffffffffffffff1681526020018360ff1681526020018281526020019350505050600060405180830381600087803b1580156133b857600080fd5b505af11580156133cc573d6000803e3d6000fd5b505050508080600101915050613304565b508173ffffffffffffffffffffffffffffffffffffffff166343f97e9e3360106040518363ffffffff1660e01b8152600401808373ffffffffffffffffffffffffffffffffffffffff1673ffffffffffffffffffffffffffffffffffffffff1681526020018260ff16815260200192505050600060405180830381600087803b15801561346957600080fd5b505af115801561347d573d6000803e3d6000fd5b50505050505b8073ffffffffffffffffffffffffffffffffffffffff166362be90b0436040518263ffffffff1660e01b815260040180828152602001915050600060405180830381600087803b1580156134d657600080fd5b505af11580156134ea573d6000803e3d6000fd5b505050505050505050565b60008082905060008173ffffffffffffffffffffffffffffffffffffffff1663a6dc73186040518163ffffffff1660e01b815260040160206040518083038186803b15801561354357600080fd5b505afa158015613557573d6000803e3d6000fd5b505050506040513d602081101561356d57600080fd5b8101908080519060200190929190505050148061360a575060008173ffffffffffffffffffffffffffffffffffffffff16632ebe14b06040518163ffffffff1660e01b815260040160206040518083038186803b1580156135cd57600080fd5b505afa1580156135e1573d6000803e3d6000fd5b505050506040513d60208110156135f757600080fd5b8101908080519060200190929190505050145b15613619576000915050613732565b438173ffffffffffffffffffffffffffffffffffffffff16632ebe14b06040518163ffffffff1660e01b815260040160206040518083038186803b15801561366057600080fd5b505afa158015613674573d6000803e3d6000fd5b505050506040513d602081101561368a57600080fd5b81019080805190602001909291905050508273ffffffffffffffffffffffffffffffffffffffff1663a6dc73186040518163ffffffff1660e01b815260040160206040518083038186803b1580156136e157600080fd5b505afa1580156136f5573d6000803e3d6000fd5b505050506040513d602081101561370b57600080fd5b8101908080519060200190929190505050011161372c576001915050613732565b60009150505b919050565b600081905060008173ffffffffffffffffffffffffffffffffffffffff166349cd5efc6040518163ffffffff1660e01b815260040160206040518083038186803b15801561378457600080fd5b505afa158015613798573d6000803e3d6000fd5b505050506040513d60208110156137ae57600080fd5b810190808051906020019092919050505014156137ca57600080fd5b60008090505b8173ffffffffffffffffffffffffffffffffffffffff166349cd5efc6040518163ffffffff1660e01b815260040160206040518083038186803b15801561381657600080fd5b505afa15801561382a573d6000803e3d6000fd5b505050506040513d602081101561384057600080fd5b8101908080519060200190929190505050811015613ff35760008273ffffffffffffffffffffffffffffffffffffffff166327ef8c998473ffffffffffffffffffffffffffffffffffffffff16631cbeae5e856040518263ffffffff1660e01b81526004018082815260200191505060206040518083038186803b1580156138c757600080fd5b505afa1580156138db573d6000803e3d6000fd5b505050506040513d60208110156138f157600080fd5b81019080805190602001909291905050506040518263ffffffff1660e01b8152600401808273ffffffffffffffffffffffffffffffffffffffff1673ffffffffffffffffffffffffffffffffffffffff16815260200191505060206040518083038186803b15801561396257600080fd5b505afa158015613976573d6000803e3d6000fd5b505050506040513d602081101561398c57600080fd5b81019080805190602001909291905050508373ffffffffffffffffffffffffffffffffffffffff166349cd5efc6040518163ffffffff1660e01b815260040160206040518083038186803b1580156139e357600080fd5b505afa1580156139f7573d6000803e3d6000fd5b505050506040513d6020811015613a0d57600080fd5b81019080805190602001909291905050508473ffffffffffffffffffffffffffffffffffffffff16634ba2363a6040518163ffffffff1660e01b815260040160206040518083038186803b158015613a6457600080fd5b505afa158015613a78573d6000803e3d6000fd5b505050506040513d6020811015613a8e57600080fd5b810190808051906020019092919050505081613aa657fe5b04011115613fe6578173ffffffffffffffffffffffffffffffffffffffff1663c40768768373ffffffffffffffffffffffffffffffffffffffff16631cbeae5e846040518263ffffffff1660e01b81526004018082815260200191505060206040518083038186803b158015613b1b57600080fd5b505afa158015613b2f573d6000803e3d6000fd5b505050506040513d6020811015613b4557600080fd5b81019080805190602001909291905050508473ffffffffffffffffffffffffffffffffffffffff166327ef8c998673ffffffffffffffffffffffffffffffffffffffff16631cbeae5e876040518263ffffffff1660e01b81526004018082815260200191505060206040518083038186803b158015613bc357600080fd5b505afa158015613bd7573d6000803e3d6000fd5b505050506040513d6020811015613bed57600080fd5b81019080805190602001909291905050506040518263ffffffff1660e01b8152600401808273ffffffffffffffffffffffffffffffffffffffff1673ffffffffffffffffffffffffffffffffffffffff16815260200191505060206040518083038186803b158015613c5e57600080fd5b505afa158015613c72573d6000803e3d6000fd5b505050506040513d6020811015613c8857600080fd5b81019080805190602001909291905050508573ffffffffffffffffffffffffffffffffffffffff166349cd5efc6040518163ffffffff1660e01b815260040160206040518083038186803b158015613cdf57600080fd5b505afa158015613cf3573d6000803e3d6000fd5b505050506040513d6020811015613d0957600080fd5b81019080805190602001909291905050508673ffffffffffffffffffffffffffffffffffffffff16634ba2363a6040518163ffffffff1660e01b815260040160206040518083038186803b158015613d6057600080fd5b505afa158015613d74573d6000803e3d6000fd5b505050506040513d6020811015613d8a57600080fd5b810190808051906020019092919050505081613da257fe5b04016040518363ffffffff1660e01b8152600401808373ffffffffffffffffffffffffffffffffffffffff1673ffffffffffffffffffffffffffffffffffffffff16815260200182815260200192505050602060405180830381600087803b158015613e0d57600080fd5b505af1158015613e21573d6000803e3d6000fd5b505050506040513d6020811015613e3757600080fd5b810190808051906020019092919050505015613fe5578173ffffffffffffffffffffffffffffffffffffffff166380a107e360006040518263ffffffff1660e01b815260040180828152602001915050600060405180830381600087803b158015613ea157600080fd5b505af1158015613eb5573d6000803e3d6000fd5b505050508173ffffffffffffffffffffffffffffffffffffffff1663af94b0758373ffffffffffffffffffffffffffffffffffffffff16631cbeae5e846040518263ffffffff1660e01b81526004018082815260200191505060206040518083038186803b158015613f2657600080fd5b505afa158015613f3a573d6000803e3d6000fd5b505050506040513d6020811015613f5057600080fd5b810190808051906020019092919050505060006040518363ffffffff1660e01b8152600401808373ffffffffffffffffffffffffffffffffffffffff1673ffffffffffffffffffffffffffffffffffffffff16815260200182815260200192505050600060405180830381600087803b158015613fcc57600080fd5b505af1158015613fe0573d6000803e3d6000fd5b505050505b5b80806001019150506137d0565b5060008090505b8173ffffffffffffffffffffffffffffffffffffffff166350d9e6856040518163ffffffff1660e01b815260040160206040518083038186803b15801561404057600080fd5b505afa158015614054573d6000803e3d6000fd5b505050506040513d602081101561406a57600080fd5b81019080805190602001909291905050508160ff1610156146db578173ffffffffffffffffffffffffffffffffffffffff166343f97e9e8373ffffffffffffffffffffffffffffffffffffffff1663f71d96cb846040518263ffffffff1660e01b8152600401808260ff16815260200191505060206040518083038186803b1580156140f557600080fd5b505afa158015614109573d6000803e3d6000fd5b505050506040513d602081101561411f57600080fd5b810190808051906020019092919050505060126040518363ffffffff1660e01b8152600401808373ffffffffffffffffffffffffffffffffffffffff1673ffffffffffffffffffffffffffffffffffffffff1681526020018260ff16815260200192505050600060405180830381600087803b15801561419e57600080fd5b505af11580156141b2573d6000803e3d6000fd5b5050505060008273ffffffffffffffffffffffffffffffffffffffff166327ef8c998473ffffffffffffffffffffffffffffffffffffffff1663f71d96cb856040518263ffffffff1660e01b8152600401808260ff16815260200191505060206040518083038186803b15801561422857600080fd5b505afa15801561423c573d6000803e3d6000fd5b505050506040513d602081101561425257600080fd5b81019080805190602001909291905050506040518263ffffffff1660e01b8152600401808273ffffffffffffffffffffffffffffffffffffffff1673ffffffffffffffffffffffffffffffffffffffff16815260200191505060206040518083038186803b1580156142c357600080fd5b505afa1580156142d7573d6000803e3d6000fd5b505050506040513d60208110156142ed57600080fd5b810190808051906020019092919050505011156146ce578173ffffffffffffffffffffffffffffffffffffffff1663c40768768373ffffffffffffffffffffffffffffffffffffffff1663f71d96cb846040518263ffffffff1660e01b8152600401808260ff16815260200191505060206040518083038186803b15801561437457600080fd5b505afa158015614388573d6000803e3d6000fd5b505050506040513d602081101561439e57600080fd5b81019080805190602001909291905050508473ffffffffffffffffffffffffffffffffffffffff166327ef8c998673ffffffffffffffffffffffffffffffffffffffff1663f71d96cb876040518263ffffffff1660e01b8152600401808260ff16815260200191505060206040518083038186803b15801561441f57600080fd5b505afa158015614433573d6000803e3d6000fd5b505050506040513d602081101561444957600080fd5b81019080805190602001909291905050506040518263ffffffff1660e01b8152600401808273ffffffffffffffffffffffffffffffffffffffff1673ffffffffffffffffffffffffffffffffffffffff16815260200191505060206040518083038186803b1580156144ba57600080fd5b505afa1580156144ce573d6000803e3d6000fd5b505050506040513d60208110156144e457600080fd5b81019080805190602001909291905050506040518363ffffffff1660e01b8152600401808373ffffffffffffffffffffffffffffffffffffffff1673ffffffffffffffffffffffffffffffffffffffff16815260200182815260200192505050602060405180830381600087803b15801561455e57600080fd5b505af1158015614572573d6000803e3d6000fd5b505050506040513d602081101561458857600080fd5b8101908080519060200190929190505050156146cd578173ffffffffffffffffffffffffffffffffffffffff1663af94b0758373ffffffffffffffffffffffffffffffffffffffff1663f71d96cb846040518263ffffffff1660e01b8152600401808260ff16815260200191505060206040518083038186803b15801561460e57600080fd5b505afa158015614622573d6000803e3d6000fd5b505050506040513d602081101561463857600080fd5b810190808051906020019092919050505060006040518363ffffffff1660e01b8152600401808373ffffffffffffffffffffffffffffffffffffffff1673ffffffffffffffffffffffffffffffffffffffff16815260200182815260200192505050600060405180830381600087803b1580156146b457600080fd5b505af11580156146c8573d6000803e3d6000fd5b505050505b5b8080600101915050613ffa565b508073ffffffffffffffffffffffffffffffffffffffff16637dd25c1f60016040518263ffffffff1660e01b81526004018082151515158152602001915050600060405180830381600087803b15801561473457600080fd5b505af1158015614748573d6000803e3d6000fd5b50505050505056fea165627a7a723058205f26b9ff052340cf70daa6d467c2fc623938602668d59fe62e48fdae680640e50029",
  "source": "pragma solidity ^0.5.8;\r\n/**\r\n*\r\n* Manages hand / game resolutions for an authorizing PokerHandData contract when in full-cost or \"full contract\" mode.\r\n*\r\n* (C)opyright 2016 to 2017\r\n*\r\n* This source code is protected by copyright and distributed under license.\r\n* Please see the root LICENSE file for terms and conditions.\r\n*\r\n*/\r\ncontract PokerHandResolutions {\r\n\r\n    address public owner; //the contract's owner / publisher\r\n\r\n  /**\r\n\t* Contract constructor.\r\n\t*/\r\n\tconstructor() public {\r\n\t\towner = msg.sender;\r\n  }\r\n\r\n\t/**\r\n\t* Anonymous fallback function.\r\n\t*/\r\n\tfunction () external {\r\n\t\trevert();\r\n    }\r\n\r\n\t/**\r\n\t* Sets a declared a winner/winners within a poker hand data contract. If all agreed players have submitted the same declared\r\n\t* winner/winners then the 'payout' function is invoked.\r\n\t*\r\n\t* @param dataAddr The address of the poker hand data contract for which this contract has been authorized.\r\n\t* @param winnerAddr The address(es) of the declared winner(s).\r\n\t*\r\n\t*/\r\n\tfunction declareWinner(address dataAddr, address winnerAddr) public {\r\n\t\tPokerHandData dataStorage = PokerHandData(dataAddr);\r\n\t\tif (dataStorage.agreed(msg.sender)) {\r\n\t\t\t dataStorage.add_declaredWinner(msg.sender, winnerAddr);\r\n\t\t}\r\n\t\tuint resolutions = 0;\r\n\t\tfor (uint count = 0; count<dataStorage.num_Players(); count++) {\r\n\t\t\tif (dataStorage.declaredWinner(dataStorage.players(count)) == winnerAddr) {\r\n\t\t\t\tresolutions++;\r\n\t\t\t}\r\n\t\t}\r\n\t\tif (resolutions == dataStorage.num_Players()) {\r\n\t\t\t//everyone has declared the same winner\r\n\t\t\tdataStorage.add_winner(winnerAddr);\r\n\t\t\tpayout(dataAddr);\r\n\t\t\treturn;\r\n\t\t}\r\n\t}\r\n\r\n\t/**\r\n     * Resolves the winner using the most current resolution state or via a declaration. If players are at phase 16 (Level 2 validation) the hand is\r\n\t * first checked for a timeout. If the hand has timed out then the players' validation indexes are compared; the player with the\r\n\t * highest index is awarded all of the other player's chips and declared the winner. If more than one player has the highest\r\n\t * validation index then their results are compared and the player with the highest score is declared the winner. Any players\r\n\t * who have not completed their L2 validation will lose all of their chips which will be split evenly among the fully-validated\r\n\t * players. In the rare event of a tie, no winner is declared and the fully-validated players split the pot evenly.\r\n\t *\r\n\t * If a winner is declared by a valid player their address is stored in the resolvedWinner array. If all players agree on the same winner\r\n\t * the game is considered uncontested and the contract pays out immediately using current pot/playerChips values. Player's phases are not\r\n\t * checked if the verifiedWinner parameter is supplied.\r\n\t *\r\n\t * @param dataAddr The address of the poker hand data contract for which this contract has been authorized.\r\n     */\r\n    function resolveWinner(address dataAddr) public {\r\n\t\tPokerHandData dataStorage = PokerHandData(dataAddr);\r\n\t\t/*\r\n\t\tif (dataStorage.agreed(msg.sender)) {\r\n\t\t\taddress verifiedWinner = dataStorage.declaredWinner(dataStorage.players(0));\r\n\t\t\tuint resolutions = 0;\r\n\t\t\tfor (uint count = 1; count<dataStorage.num_Players(); count++) {\r\n\t\t\t\tif (dataStorage.declaredWinner(dataStorage.players(count)) == verifiedWinner) {\r\n\t\t\t\t\tresolutions++;\r\n\t\t\t\t}\r\n\t\t\t}\r\n\t\t\tif (resolutions == dataStorage.num_Players()) {\r\n\t\t\t\t//everyone has declared the same winner\r\n\t\t\t\tdataStorage.add_winner(verifiedWinner);\r\n\t\t\t\tpayout(dataAddr);\r\n\t\t\t\treturn;\r\n\t\t\t}\r\n\t\t}\r\n\t\t*/\r\n        if (hasTimedOut(dataAddr) == false) {\r\n\t\t\trevert();\r\n\t\t}\r\n        if (dataStorage.allPlayersAtPhase(15) || dataStorage.allPlayersAtPhase(16)){\r\n            //Level 1 validation or unchallenged\r\n\t\t\taddress verifiedWinner = address(0);\r\n\t\t\tuint resolutions=0;\r\n\t\t\tfor (uint count = 1; count<dataStorage.num_Players(); count++) {\r\n\t\t\t\tif (dataStorage.declaredWinner(dataStorage.players(count)) == verifiedWinner) {\r\n\t\t\t\t\tresolutions++;\r\n\t\t\t\t} else {\r\n\t\t\t\t\tif (verifiedWinner == address(0)) {\r\n\t\t\t\t\t\tresolutions++;\r\n\t\t\t\t\t\tverifiedWinner = dataStorage.declaredWinner(dataStorage.players(count));\r\n\t\t\t\t\t}\r\n\t\t\t\t}\r\n\t\t\t}\r\n\t\t\tif (verifiedWinner == address(0)) {\r\n\t\t\t\t//no winnder declared!\r\n\t\t\t\trevert();\r\n\t\t\t}\r\n\t\t\tif (resolutions != dataStorage.num_Players()) {\r\n\t\t\t\t//not all players agree on declared player so start Level 2 validation\r\n\t\t\t\tfor (uint8 count=0; count < dataStorage.num_Players(); count++) {\r\n\t\t\t\t\tdataStorage.set_phase(dataStorage.players(count), 17);\r\n\t\t\t\t}\r\n\t\t\t} else {\r\n\t\t\t\tdataStorage.add_winner(verifiedWinner);\r\n\t\t\t}\r\n\t\t} else if (dataStorage.allPlayersAtPhase(17) || dataStorage.allPlayersAtPhase(19)) {\r\n\t\t\t//Level 2 validation or challenge\r\n\t\t\tuint highest=0;\r\n\t\t\tuint highestPlayers = 0;\r\n\t\t\tfor (uint8 count=0; count<dataStorage.num_Players(); count++) {\r\n\t\t\t    if (dataStorage.validationIndex(dataStorage.players(count)) > highest) {\r\n\t\t\t        highest = dataStorage.validationIndex(dataStorage.players(count));\r\n\t\t\t        highestPlayers=0;\r\n\t\t\t    }\r\n\t\t\t    if (dataStorage.validationIndex(dataStorage.players(count)) == highest) {\r\n\t\t\t        highestPlayers++;\r\n\t\t\t    }\r\n\t\t\t}\r\n\t\t\tif (highestPlayers > 2) {\r\n\t\t\t    //compare results\r\n\t\t\t    for (uint8 count=0; count<dataStorage.num_Players(); count++) {\r\n\t\t\t        if (dataStorage.results(dataStorage.players(count)) > highest) {\r\n\t\t\t            highest=dataStorage.results(dataStorage.players(count));\r\n\t\t\t        }\r\n\t\t\t    }\r\n\t\t\t    for (uint8 count=0; count<dataStorage.num_Players(); count++) {\r\n\t\t\t         if (dataStorage.results(dataStorage.players(count)) == highest) {\r\n\t\t\t             dataStorage.add_winner(dataStorage.players(count)); //may be more than one winner\r\n\t\t\t         }\r\n\t\t\t    }\r\n\t\t\t} else {\r\n\t\t\t    //\r\n\t\t\t    for (uint8 count=0; count<dataStorage.num_Players(); count++) {\r\n\t\t\t        if (dataStorage.validationIndex(dataStorage.players(count)) == highest) {\r\n\t\t\t            dataStorage.add_winner(dataStorage.players(count));\r\n\t\t\t        }\r\n\t\t\t    }\r\n\t\t\t}\r\n\t\t\t//TODO: implement validation fund refunds (add values to playerChips prior to payout)\r\n\t\t    //Note deposit is: 600000000000000000\r\n\t\t}\r\n    }\r\n\r\n     /**\r\n\t * Checks whether a specific poker hand data contract has timed out.\r\n\t *\r\n\t * @param dataAddr The addres of the poker hand data contract to check. The target contract does not need to include\r\n\t * this contract as an authorized contract since this is a public read-only operation.\r\n\t *\r\n     * @return True if the hand/contract has timed out. A time out occurs when the current\r\n     * block number is higher than or equal to lastActionBlock + timeoutBlocks. If lastActionBlock\r\n\t * or timeoutBlocks is 0, false will always be returned\r\n     */\r\n    function hasTimedOut(address dataAddr) public view returns (bool) {\r\n\t\tPokerHandData dataStorage = PokerHandData(dataAddr);\r\n        if ((dataStorage.lastActionBlock()==0) || (dataStorage.timeoutBlocks() == 0)) {\r\n            return (false);\r\n        }\r\n         if ((dataStorage.lastActionBlock() + dataStorage.timeoutBlocks()) <= block.number) {\r\n            return (true);\r\n        } else {\r\n            return (false);\r\n        }\r\n    }\r\n\r\n     /**\r\n     * Invokes a mid-game challenge. This process is similar to the Level 2 challenge and has the effect of stopping the game but does not\r\n     * result in a player score. Unlike a Level 2 challenge only one value is evaluated for correctness. The card owner (player that submitted the card),\r\n     * is penalized if the value is incorrect otherwise the challenger is penalized. At the completion of a challenge the contract is cancelled.\r\n     *\r\n     * As with Level 2 validation, the first time that challenge is invoked it must be provided with sufficient challenge funds\r\n     * to cover all other players. This is equal to 0.6 Ether (600000000000000000) per player, excluding self. In other words, if there are only\r\n     * 2 players then 0.6 Ether must be included but if there are 3 players then 1.2 Ether must be included.\r\n     *\r\n\t * @param dataAddr The address of the poker hand data contract for which this contract has been authorized.\r\n\t * @param validatorAddr The address of a PokerHandValidator contract for which the poker hand data contract has been authorized.\r\n\t * @param encKeys The encryption keys being submitted by the sending player to use during validation. These are stored in the poker hand\r\n\t * data contract.\r\n\t * @param decKeys The decryption keys being submitted by the sending player to use during validation. These are stored in the poker hand\r\n\t * data contract.\r\n     * @param challengeValue A stored card value being challenged. (???)\r\n     */\r\n    function challenge (address dataAddr, address validatorAddr, uint256[] memory encKeys, uint256[] memory decKeys, uint256 challengeValue) payable public {\r\n\t\tPokerHandData dataStorage = PokerHandData(dataAddr);\r\n        if (dataStorage.agreed(msg.sender) == false) {\r\n            revert();\r\n        }\r\n        if (dataStorage.phases(msg.sender) != 19) {\r\n             //do we need to segregate these funds?\r\n            if (msg.value != (600000000000000000*(dataStorage.num_Players()-1))) {\r\n                revert();\r\n            }\r\n            if (dataStorage.challenger() < address(2)) {\r\n                //set just once\r\n\t\t\t\t        dataStorage.set_challenger(msg.sender);\r\n                dataStorage.set_playerBestHands(msg.sender, 0, challengeValue); //as reference by the validator\r\n            }\r\n            if ((encKeys.length==0) || (decKeys.length==0)) {\r\n                revert();\r\n            }\r\n            if (encKeys.length != decKeys.length) {\r\n                revert();\r\n            }\r\n\t\t\tdataStorage.add_playerKeys(msg.sender, encKeys, decKeys);\r\n            dataStorage.set_phase(msg.sender, 19);\r\n        }\r\n        PokerHandValidator validator = PokerHandValidator(validatorAddr);\r\n        //validator.challenge.gas(msg.gas-30000)(dataAddr, dataStorage.challenger());\r\n        validator.challenge.gas(gasleft()-30000)(dataAddr, dataStorage.challenger());\r\n        dataStorage.set_lastActionBlock (block.number);\r\n    }\r\n\r\n\r\n    /**\r\n     * Begins a level 1 validation in which all players are required to submit their encryption and decryption keys.\r\n     * These are stored in the contract so that they may be independently verified by external code. Should the verification\r\n     * fail then a level 2 validation may be issued.\r\n     *\r\n     * This function may only be invoked if \"winner\" has not been set, by a non-declaredWinner address, and only if declaredWinner\r\n     * has been set and all players are at phase 15. When successfully invoked the submitting player's phase is updated to 16.\r\n     *\r\n     * Keys may be submitted in multiple invocations if required. On the last call all five \"bestCards\" must be included in order\r\n     * to signal to the contract that no further keys are being submitted.\r\n     *\r\n     * @param encKeys All the encryption keys used during the hand. The number of keys must be greater than 0 and must\r\n     * match the number of decKeys.\r\n     * @param decKeys All the decryption keys used during the hand. The number of keys must be greater than 0 and\r\n     * match the number of encKeys.\r\n     * @param bestCards Indexes of the five best cards of the player. All five values must be unique and be in the range 0 to 6.\r\n     * Indexes 0 and 1 are the player's encrypted private cards (privateCards), in the order stored in the contract, and indexes 2 to 6 are encrypted\r\n     * public cards (publicCards), in the order stored in the contract. The five indexes must be supplied with the final call to L1Validate in order\r\n     * to signal that all keys have now been submitted and validation may begin.\r\n     */\r\n    function L1Validate(address dataAddr, uint256[] memory encKeys, uint256[] memory decKeys, uint[] memory bestCards) public {\r\n\t\tPokerHandData dataStorage = PokerHandData(dataAddr);\r\n        if (dataStorage.phases(msg.sender) != 15) {\r\n            revert();\r\n        }\r\n        if (dataStorage.num_winner() != 0) {\r\n            revert();\r\n        }\r\n        if ((encKeys.length==0) || (decKeys.length==0)) {\r\n            revert();\r\n        }\r\n        if (encKeys.length != decKeys.length) {\r\n            revert();\r\n        }\r\n\t\tdataStorage.add_playerKeys(msg.sender, encKeys, decKeys);\r\n        if (bestCards.length == 5) {\r\n            uint currentIndex=0;\r\n            //check for uniqueness\r\n            for (uint count=0; count < 5; count++) {\r\n                currentIndex = bestCards[count];\r\n                for (uint count2=0; count2 < 5; count2++) {\r\n                    if ((count!=count2) && (currentIndex==bestCards[count2])) {\r\n                        //duplicate index\r\n                        revert();\r\n                    }\r\n                }\r\n            }\r\n            for (uint8 count=0; count < 5; count++) {\r\n                dataStorage.set_playerBestHands(msg.sender, count, bestCards[count]);\r\n            }\r\n            dataStorage.set_phase(msg.sender, 16);\r\n        }\r\n        dataStorage.set_lastActionBlock(block.number);\r\n    }\r\n\r\n    /**\r\n     * Performs one round of Level 2 validation. The first time that L2Validate is invoked it must be provided with sufficient challenge funds\r\n     * to cover all other players. This is equal to 0.6 Ether (600000000000000000) per player, excluding self. In other words, if there are only\r\n     * 2 players then 0.6 Ether must be included but if there are 3 players then 1.2 Ether must be included.\r\n\t *\r\n\t * @param dataAddr The address of the poker hand data contract for which this contract is authorized.\r\n\t * @param validatorAddr The address of a PokerHandValidator contract for which the poker hand data contract has been authorized.\r\n     */\r\n    function L2Validate(address dataAddr, address validatorAddr) payable public {\r\n\t\t    PokerHandData dataStorage = PokerHandData(dataAddr);\r\n        if (dataStorage.allPlayersAtPhase(16) == false) {\r\n            revert();\r\n        }\r\n        if (dataStorage.phases(msg.sender)==16) {\r\n            //do we need to segregate these funds?\r\n            if (msg.value != (600000000000000000*(dataStorage.num_Players()-1))) {\r\n                revert();\r\n            }\r\n            dataStorage.set_phase(msg.sender, 17);\r\n        }\r\n        if (dataStorage.challenger() < address(2)) {\r\n            dataStorage.set_challenger (msg.sender);\r\n        }\r\n\t\t  PokerHandValidator validator = PokerHandValidator(validatorAddr);\r\n      //validator.validate.gas(msg.gas-30000)(dataAddr, msg.sender);\r\n      validator.validate.gas(gasleft()-30000)(dataAddr, msg.sender);\r\n\t\t  dataStorage.set_lastActionBlock (block.number);\r\n    }\r\n\r\n    /**\r\n     * Pays out the contract's value by sending the pot + winner's remaining chips to the winner and sending the othe player's remaining chips\r\n     * to them. When all amounts have been paid out, \"pot\" and all \"playerChips\" are set to 0 as is the \"winner\" address. All players'\r\n     * phases are set to 18 and the reset function is invoked.\r\n     *\r\n     * The \"winner\" address must be set prior to invoking this call.\r\n\t *\r\n\t * @param dataAddr The address of the poker hand data contract for which this contract is authorized.\r\n     */\r\n    function payout(address dataAddr) private {\r\n\t\tPokerHandData dataStorage = PokerHandData(dataAddr);\r\n        if (dataStorage.num_winner() == 0) {\r\n            revert();\r\n        }\r\n        for (uint count=0; count<dataStorage.num_winner(); count++) {\r\n            if ((dataStorage.pot() / dataStorage.num_winner()) + dataStorage.playerChips(dataStorage.winner(count)) > 0) {\r\n\t\t\t\tif (dataStorage.pay(dataStorage.winner(count),\r\n\t\t\t\t\t(dataStorage.pot() / dataStorage.num_winner())\r\n\t\t\t\t\t\t+ dataStorage.playerChips(dataStorage.winner(count)))) {\r\n                    dataStorage.set_pot(0);\r\n\t\t\t\t\tdataStorage.set_playerChips(dataStorage.winner(count), 0);\r\n                }\r\n            }\r\n        }\r\n         for (uint8 count=0; count < dataStorage.num_Players(); count++) {\r\n            dataStorage.set_phase(dataStorage.players(count), 18);\r\n            if (dataStorage.playerChips(dataStorage.players(count)) > 0) {\r\n\t\t\t\tif (dataStorage.pay (dataStorage.players(count), dataStorage.playerChips(dataStorage.players(count)))) {\r\n                    dataStorage.set_playerChips(dataStorage.players(count), 0);\r\n                }\r\n            }\r\n        }\r\n\t\tdataStorage.set_complete (true);\r\n    }\r\n\r\n\t/*\r\n\tfunction validate(address dataAddr, address validatorAddr, address fromAddr) payable {\r\n\t    PokerHandValidator validator = PokerHandValidator(validatorAddr);\r\n        validator.validate.gas(msg.gas-30000)(dataAddr, fromAddr);\r\n\t}\r\n\t*/\r\n}\r\n\r\ncontract PokerHandValidator {\r\n\tstruct Card {\r\n        uint index;\r\n        uint suit;\r\n        uint value;\r\n    }\r\n\tstruct Key {\r\n        uint256 encKey;\r\n        uint256 decKey;\r\n        uint256 prime;\r\n    }\r\n    address public owner;\r\n    address public lastSender;\r\n    PokerHandData public pokerHandData;\r\n    Card[5] public workCards;\r\n    Card[] public sortedGroup;\r\n    Card[][] public sortedGroups;\r\n    Card[][15] public cardGroups;\r\n  //  function PokerHandValidator () {}\r\n\tfunction () external {}\r\n\tmodifier isAuthorized {\r\n\t\tPokerHandData handData = PokerHandData(msg.sender);\r\n\t\tbool found = false;\r\n\t\tfor (uint count=0; count<handData.numAuthorizedContracts(); count++) {\r\n\t\t\tif (handData.authorizedGameContracts(count) == msg.sender) {\r\n\t\t\t\tfound = true;\r\n\t\t\t\tbreak;\r\n\t\t\t}\r\n\t\t}\r\n\t\tif (!found) {\r\n             revert();\r\n        }\r\n        _;\r\n\t}\r\n    function challenge (address dataAddr, address challenger) public isAuthorized returns (bool) {}\r\n    function validate(address dataAddr, address msgSender) public isAuthorized returns (bool) {}\r\n    function decryptCard(address target, uint cardIndex) private {}\r\n    function validateCard(address target, uint cardIndex) private {}\r\n    function generateScore(address target) private {}\r\n    function checkDecryptedCard (address sender, uint256 cardValue) private returns (bool) {}\r\n\tfunction modExp(uint256 base, uint256 exp, uint256 mod) internal returns (uint256 result) {}\r\n\tfunction getCardIndex(uint256 value, uint256 baseCard, uint256 prime) public view returns (uint256 index) {}\r\n    function calculateHandScore() private returns (uint256) {}\r\n    function groupWorkCards(bool byValue) private {}\r\n    function clearGroups() private {}\r\n\tfunction sortWorkCards(bool acesHigh) private {}\r\n\tfunction scoreStraights(bool acesHigh) private returns (uint256) {}\r\n    function scoreGroups(bool valueGroups, bool acesHigh) private returns (uint256) {}\r\n    function checkGroupExists(uint8 memberCount) private returns (bool) {}\r\n\tfunction addCardValues(uint256 startingValue, bool acesHigh) private returns (uint256) {}\r\n    function getSortedGroupLength32(uint8 index) private returns (uint32) {}\r\n}\r\n\r\ncontract PokerHandData {\r\n\tstruct Card {\r\n        uint index;\r\n        uint suit;\r\n        uint value;\r\n    }\r\n\tstruct CardGroup {\r\n       Card[] cards;\r\n    }\r\n\tstruct Key {\r\n        uint256 encKey;\r\n        uint256 decKey;\r\n        uint256 prime;\r\n    }\r\n    address public owner;\r\n    address[] public authorizedGameContracts;\r\n\tuint public numAuthorizedContracts;\r\n    address[] public players;\r\n    uint256 public buyIn;\r\n    mapping (address => bool) public agreed;\r\n\tuint256 public prime;\r\n    uint256 public baseCard;\r\n    mapping (address => uint256) public playerBets;\r\n\tmapping (address => uint256) public playerChips;\r\n\tmapping (address => bool) public playerHasBet;\r\n\tbool public bigBlindHasBet;\r\n    uint256 public pot;\r\n    uint public betPosition;\r\n    mapping (address => uint256[52]) public encryptedDeck;\r\n    mapping (address => uint256[2]) public privateCards;\r\n    struct DecryptPrivateCardsStruct {\r\n        address sourceAddr;\r\n        address targetAddr;\r\n        uint256[2] cards;\r\n    }\r\n    DecryptPrivateCardsStruct[] public privateDecryptCards;\r\n    uint256[5] public publicCards;\r\n\tmapping (address => uint256[5]) public publicDecryptCards;\r\n    mapping (address => Key[]) public playerKeys;\r\n    mapping (address => uint[5]) public playerBestHands;\r\n    mapping (address => Card[]) public playerCards;\r\n    mapping (address => uint256) public results;\r\n    mapping (address => address) public declaredWinner;\r\n    address[] public winner;\r\n    uint public lastActionBlock;\r\n    uint public timeoutBlocks;\r\n\tuint public initBlock;\r\n\tmapping (address => uint) public nonces;\r\n    mapping (address => uint) public validationIndex;\r\n    address public challenger;\r\n\tbool public complete;\r\n\tbool public initReady;\r\n    mapping (address => uint8) public phases;\r\n\r\n//  \tfunction PokerHandData() {}\r\n\tfunction () external {}\r\n\tmodifier onlyAuthorized {\r\n\t\tuint allowedContractsFound = 0;\r\n        for (uint count=0; count<authorizedGameContracts.length; count++) {\r\n            if (msg.sender == authorizedGameContracts[count]) {\r\n                allowedContractsFound++;\r\n            }\r\n        }\r\n        if (allowedContractsFound == 0) {\r\n             revert();\r\n        }\r\n        _;\r\n\t}\r\n\tfunction agreeToContract(uint256 nonce) payable public {}\r\n\tfunction initialize(uint256 primeVal, uint256 baseCardVal, uint256 buyInVal, uint timeoutBlocksVal) public onlyAuthorized {}\r\n  function getPrivateDecryptCard(address sourceAddr, address targetAddr, uint cardIndex) view public returns (uint256) {}\r\n    function allPlayersAtPhase(uint phaseNum) public view returns (bool) {}\r\n    function num_Players() public view returns (uint) {}\r\n\tfunction num_Keys(address target) public view returns (uint) {}\r\n\tfunction num_PlayerCards(address target) public view returns (uint) {}\r\n\tfunction num_PrivateCards(address targetAddr) public view returns (uint) {}\r\n\tfunction num_PublicCards() public view returns (uint) {}\r\n\tfunction num_PrivateDecryptCards(address sourceAddr, address targetAddr) public view returns (uint) {}\r\n\tfunction num_winner() public view returns (uint) {}\r\n\tfunction setAuthorizedGameContracts (address[] memory contractAddresses) public {}\r\n\tfunction add_playerCard(address playerAddress, uint index, uint suit, uint value) public onlyAuthorized {}\r\n    function update_playerCard(address playerAddress, uint cardIndex, uint index, uint suit, uint value) public onlyAuthorized {}\r\n    function set_validationIndex(address playerAddress, uint index) public onlyAuthorized {}\r\n\tfunction set_result(address playerAddress, uint256 result) public onlyAuthorized {}\r\n\tfunction set_complete (bool completeSet) public onlyAuthorized {}\r\n\tfunction set_publicCard (uint256 card, uint index) public onlyAuthorized {}\r\n\tfunction set_encryptedDeck (address fromAddr, uint256[] memory cards) public onlyAuthorized {}\r\n\tfunction set_privateCards (address fromAddr, uint256[] memory cards) public onlyAuthorized {}\r\n\tfunction set_betPosition (uint betPositionVal) public onlyAuthorized {}\r\n\tfunction set_bigBlindHasBet (bool bigBlindHasBetVal) public onlyAuthorized {}\r\n\tfunction set_playerHasBet (address fromAddr, bool hasBet) public onlyAuthorized {}\r\n\tfunction set_playerBets (address fromAddr, uint betVal) public onlyAuthorized {}\r\n\tfunction set_playerChips (address forAddr, uint numChips) public onlyAuthorized {}\r\n\tfunction set_pot (uint potVal) public onlyAuthorized {}\r\n\tfunction set_agreed (address fromAddr, bool agreedVal) public onlyAuthorized {}\r\n\tfunction add_winner (address winnerAddress) public onlyAuthorized {}\r\n\tfunction clear_winner () public onlyAuthorized {}\r\n\tfunction new_players (address[] memory newPlayers) public onlyAuthorized {}\r\n\tfunction set_phase (address fromAddr, uint8 phaseNum) public onlyAuthorized {}\r\n\tfunction set_lastActionBlock(uint blockNum) public onlyAuthorized {}\r\n\tfunction set_privateDecryptCards (address fromAddr, uint256[] memory cards, address targetAddr) public onlyAuthorized {}\r\n\tfunction set_publicCards (address fromAddr, uint256[] memory cards) public onlyAuthorized {}\r\n\tfunction set_publicDecryptCards (address fromAddr, uint256[] memory cards) public onlyAuthorized {}\r\n\tfunction add_declaredWinner(address fromAddr, address winnerAddr) public onlyAuthorized {}\r\n    function privateDecryptCardsIndex (address sourceAddr, address targetAddr) public onlyAuthorized returns (uint) {}\r\n\tfunction set_playerBestHands(address fromAddr, uint cardIndex, uint256 card) public onlyAuthorized {}\r\n\tfunction add_playerKeys(address fromAddr, uint256[] memory encKeys, uint256[] memory decKeys) public onlyAuthorized {}\r\n\tfunction remove_playerKeys(address fromAddr) public onlyAuthorized {}\r\n\tfunction set_challenger(address challengerAddr) public onlyAuthorized {}\r\n\tfunction pay (address toAddr, uint amount) public onlyAuthorized returns (bool) {}\r\n\tfunction publicDecryptCardsInfo() public view returns (uint maxLength, uint playersAtMaxLength) {}\r\n    function length_encryptedDeck(address fromAddr) public view returns (uint) {}\r\n}\r\n",
  "sourcePath": "/home/patrick/Desktop/Tomo Poker/cypherpoker.js/solidity/contracts/PokerHandResolutions.sol",
  "compiler": {
    "name": "solc",
    "version": "0.5.8+commit.23d335f2.Emscripten.clang"
  },
  "schemaVersion": "3.0.16",
  "updatedAt": "2019-09-27T18:12:55.470Z",
  "devdoc": {
    "methods": {
      "L1Validate(address,uint256[],uint256[],uint256[])": {
        "params": {
          "bestCards": "Indexes of the five best cards of the player. All five values must be unique and be in the range 0 to 6.\r Indexes 0 and 1 are the player's encrypted private cards (privateCards), in the order stored in the contract, and indexes 2 to 6 are encrypted\r public cards (publicCards), in the order stored in the contract. The five indexes must be supplied with the final call to L1Validate in order\r to signal that all keys have now been submitted and validation may begin.\r",
          "decKeys": "All the decryption keys used during the hand. The number of keys must be greater than 0 and\r match the number of encKeys.\r",
          "encKeys": "All the encryption keys used during the hand. The number of keys must be greater than 0 and must\r match the number of decKeys.\r"
        }
      },
      "L2Validate(address,address)": {
        "params": {
          "dataAddr": "The address of the poker hand data contract for which this contract is authorized.\r",
          "validatorAddr": "The address of a PokerHandValidator contract for which the poker hand data contract has been authorized.\r"
        }
      },
      "challenge(address,address,uint256[],uint256[],uint256)": {
        "params": {
          "challengeValue": "A stored card value being challenged. (???)\r",
          "dataAddr": "The address of the poker hand data contract for which this contract has been authorized.\r",
          "decKeys": "The decryption keys being submitted by the sending player to use during validation. These are stored in the poker hand\r data contract.\r",
          "encKeys": "The encryption keys being submitted by the sending player to use during validation. These are stored in the poker hand\r data contract.\r",
          "validatorAddr": "The address of a PokerHandValidator contract for which the poker hand data contract has been authorized.\r"
        }
      },
      "declareWinner(address,address)": {
        "params": {
          "dataAddr": "The address of the poker hand data contract for which this contract has been authorized.\r",
          "winnerAddr": "The address(es) of the declared winner(s).\r \t"
        }
      },
      "hasTimedOut(address)": {
        "params": {
          "dataAddr": "The addres of the poker hand data contract to check. The target contract does not need to include\r this contract as an authorized contract since this is a public read-only operation.\r "
        },
        "return": "True if the hand/contract has timed out. A time out occurs when the current\r block number is higher than or equal to lastActionBlock + timeoutBlocks. If lastActionBlock\r or timeoutBlocks is 0, false will always be returned\r"
      },
      "resolveWinner(address)": {
        "params": {
          "dataAddr": "The address of the poker hand data contract for which this contract has been authorized.\r"
        }
      }
    }
  },
  "userdoc": {
    "methods": {
      "L1Validate(address,uint256[],uint256[],uint256[])": {
        "notice": "Begins a level 1 validation in which all players are required to submit their encryption and decryption keys.\r These are stored in the contract so that they may be independently verified by external code. Should the verification\r fail then a level 2 validation may be issued.\r      * This function may only be invoked if \"winner\" has not been set, by a non-declaredWinner address, and only if declaredWinner\r has been set and all players are at phase 15. When successfully invoked the submitting player's phase is updated to 16.\r      * Keys may be submitted in multiple invocations if required. On the last call all five \"bestCards\" must be included in order\r to signal to the contract that no further keys are being submitted.\r "
      },
      "L2Validate(address,address)": {
        "notice": "Performs one round of Level 2 validation. The first time that L2Validate is invoked it must be provided with sufficient challenge funds\r to cover all other players. This is equal to 0.6 Ether (600000000000000000) per player, excluding self. In other words, if there are only\r 2 players then 0.6 Ether must be included but if there are 3 players then 1.2 Ether must be included.\r "
      },
      "challenge(address,address,uint256[],uint256[],uint256)": {
        "notice": "Invokes a mid-game challenge. This process is similar to the Level 2 challenge and has the effect of stopping the game but does not\r result in a player score. Unlike a Level 2 challenge only one value is evaluated for correctness. The card owner (player that submitted the card),\r is penalized if the value is incorrect otherwise the challenger is penalized. At the completion of a challenge the contract is cancelled.\r      * As with Level 2 validation, the first time that challenge is invoked it must be provided with sufficient challenge funds\r to cover all other players. This is equal to 0.6 Ether (600000000000000000) per player, excluding self. In other words, if there are only\r 2 players then 0.6 Ether must be included but if there are 3 players then 1.2 Ether must be included.\r "
      },
      "constructor": "Contract constructor.\r",
      "declareWinner(address,address)": {
        "notice": "Sets a declared a winner/winners within a poker hand data contract. If all agreed players have submitted the same declared\r winner/winners then the 'payout' function is invoked.\r "
      },
      "hasTimedOut(address)": {
        "notice": "Checks whether a specific poker hand data contract has timed out.\r "
      },
      "resolveWinner(address)": {
        "notice": "Resolves the winner using the most current resolution state or via a declaration. If players are at phase 16 (Level 2 validation) the hand is\r first checked for a timeout. If the hand has timed out then the players' validation indexes are compared; the player with the\r highest index is awarded all of the other player's chips and declared the winner. If more than one player has the highest\r validation index then their results are compared and the player with the highest score is declared the winner. Any players\r who have not completed their L2 validation will lose all of their chips which will be split evenly among the fully-validated\r players. In the rare event of a tie, no winner is declared and the fully-validated players split the pot evenly.\r \t * If a winner is declared by a valid player their address is stored in the resolvedWinner array. If all players agree on the same winner\r the game is considered uncontested and the contract pays out immediately using current pot/playerChips values. Player's phases are not\r checked if the verifiedWinner parameter is supplied.\r "
      }
    },
    "notice": " * Manages hand / game resolutions for an authorizing PokerHandData contract when in full-cost or \"full contract\" mode.\r  * (C)opyright 2016 to 2017\r  * This source code is protected by copyright and distributed under license.\r Please see the root LICENSE file for terms and conditions.\r "
  }
}