{
  "contractName": "PokerHandActions",
  "abi": [
    {
      "constant": true,
      "inputs": [],
      "name": "owner",
      "outputs": [
        {
          "name": "",
          "type": "address"
        }
      ],
      "payable": false,
      "stateMutability": "view",
      "type": "function"
    },
    {
      "inputs": [],
      "payable": false,
      "stateMutability": "nonpayable",
      "type": "constructor"
    },
    {
      "payable": false,
      "stateMutability": "nonpayable",
      "type": "fallback"
    },
    {
      "constant": false,
      "inputs": [
        {
          "name": "dataAddr",
          "type": "address"
        },
        {
          "name": "betValue",
          "type": "uint256"
        }
      ],
      "name": "storeBet",
      "outputs": [],
      "payable": false,
      "stateMutability": "nonpayable",
      "type": "function"
    },
    {
      "constant": false,
      "inputs": [
        {
          "name": "dataAddr",
          "type": "address"
        },
        {
          "name": "reset",
          "type": "bool"
        }
      ],
      "name": "allPlayersHaveBet",
      "outputs": [
        {
          "name": "",
          "type": "bool"
        }
      ],
      "payable": false,
      "stateMutability": "nonpayable",
      "type": "function"
    },
    {
      "constant": false,
      "inputs": [
        {
          "name": "dataAddr",
          "type": "address"
        }
      ],
      "name": "fold",
      "outputs": [],
      "payable": false,
      "stateMutability": "nonpayable",
      "type": "function"
    },
    {
      "constant": false,
      "inputs": [
        {
          "name": "dataAddr",
          "type": "address"
        },
        {
          "name": "winnerAddr",
          "type": "address"
        }
      ],
      "name": "declareWinner",
      "outputs": [],
      "payable": false,
      "stateMutability": "nonpayable",
      "type": "function"
    }
  ],
  "bytecode": "0x608060405234801561001057600080fd5b50336000806101000a81548173ffffffffffffffffffffffffffffffffffffffff021916908373ffffffffffffffffffffffffffffffffffffffff160217905550613e17806100606000396000f3fe608060405234801561001057600080fd5b50600436106100575760003560e01c806369fc729b1461005c5780638da5cb5b146100aa5780639083d3fa146100f457806396cfa59b14610158578063f0039f76146101c0575b600080fd5b6100a86004803603604081101561007257600080fd5b81019080803573ffffffffffffffffffffffffffffffffffffffff16906020019092919080359060200190929190505050610204565b005b6100b261190d565b604051808273ffffffffffffffffffffffffffffffffffffffff1673ffffffffffffffffffffffffffffffffffffffff16815260200191505060405180910390f35b6101566004803603604081101561010a57600080fd5b81019080803573ffffffffffffffffffffffffffffffffffffffff169060200190929190803573ffffffffffffffffffffffffffffffffffffffff169060200190929190505050611932565b005b6101a66004803603604081101561016e57600080fd5b81019080803573ffffffffffffffffffffffffffffffffffffffff169060200190929190803515159060200190929190505050611da3565b604051808215151515815260200191505060405180910390f35b610202600480360360208110156101d657600080fd5b81019080803573ffffffffffffffffffffffffffffffffffffffff16906020019092919050505061217d565b005b6000829050600015158173ffffffffffffffffffffffffffffffffffffffff1663a5b8f210336040518263ffffffff1660e01b8152600401808273ffffffffffffffffffffffffffffffffffffffff1673ffffffffffffffffffffffffffffffffffffffff16815260200191505060206040518083038186803b15801561028a57600080fd5b505afa15801561029e573d6000803e3d6000fd5b505050506040513d60208110156102b457600080fd5b8101908080519060200190929190505050151514156102d257600080fd5b600015158173ffffffffffffffffffffffffffffffffffffffff16639b1ac0ef60046040518263ffffffff1660e01b81526004018082815260200191505060206040518083038186803b15801561032857600080fd5b505afa15801561033c573d6000803e3d6000fd5b505050506040513d602081101561035257600080fd5b810190808051906020019092919050505015151480156104025750600015158173ffffffffffffffffffffffffffffffffffffffff16639b1ac0ef60076040518263ffffffff1660e01b81526004018082815260200191505060206040518083038186803b1580156103c357600080fd5b505afa1580156103d7573d6000803e3d6000fd5b505050506040513d60208110156103ed57600080fd5b81019080805190602001909291905050501515145b801561049e5750600015158173ffffffffffffffffffffffffffffffffffffffff16639b1ac0ef600a6040518263ffffffff1660e01b81526004018082815260200191505060206040518083038186803b15801561045f57600080fd5b505afa158015610473573d6000803e3d6000fd5b505050506040513d602081101561048957600080fd5b81019080805190602001909291905050501515145b801561053a5750600015158173ffffffffffffffffffffffffffffffffffffffff16639b1ac0ef600d6040518263ffffffff1660e01b81526004018082815260200191505060206040518083038186803b1580156104fb57600080fd5b505afa15801561050f573d6000803e3d6000fd5b505050506040513d602081101561052557600080fd5b81019080805190602001909291905050501515145b1561054457600080fd5b818173ffffffffffffffffffffffffffffffffffffffff166327ef8c99336040518263ffffffff1660e01b8152600401808273ffffffffffffffffffffffffffffffffffffffff1673ffffffffffffffffffffffffffffffffffffffff16815260200191505060206040518083038186803b1580156105c257600080fd5b505afa1580156105d6573d6000803e3d6000fd5b505050506040513d60208110156105ec57600080fd5b8101908080519060200190929190505050101561060857600080fd5b3373ffffffffffffffffffffffffffffffffffffffff168173ffffffffffffffffffffffffffffffffffffffff1663f71d96cb8373ffffffffffffffffffffffffffffffffffffffff1663ab7ac97d6040518163ffffffff1660e01b815260040160206040518083038186803b15801561068157600080fd5b505afa158015610695573d6000803e3d6000fd5b505050506040513d60208110156106ab57600080fd5b81019080805190602001909291905050506040518263ffffffff1660e01b81526004018082815260200191505060206040518083038186803b1580156106f057600080fd5b505afa158015610704573d6000803e3d6000fd5b505050506040513d602081101561071a57600080fd5b810190808051906020019092919050505073ffffffffffffffffffffffffffffffffffffffff161461074b57600080fd5b3373ffffffffffffffffffffffffffffffffffffffff168173ffffffffffffffffffffffffffffffffffffffff1663f71d96cb60016040518263ffffffff1660e01b81526004018082815260200191505060206040518083038186803b1580156107b457600080fd5b505afa1580156107c8573d6000803e3d6000fd5b505050506040513d60208110156107de57600080fd5b810190808051906020019092919050505073ffffffffffffffffffffffffffffffffffffffff1614156109b757600015158173ffffffffffffffffffffffffffffffffffffffff16631e050e986040518163ffffffff1660e01b815260040160206040518083038186803b15801561085557600080fd5b505afa158015610869573d6000803e3d6000fd5b505050506040513d602081101561087f57600080fd5b81019080805190602001909291905050501515141561090d578073ffffffffffffffffffffffffffffffffffffffff166399be429360016040518263ffffffff1660e01b81526004018082151515158152602001915050600060405180830381600087803b1580156108f057600080fd5b505af1158015610904573d6000803e3d6000fd5b505050506109b2565b8073ffffffffffffffffffffffffffffffffffffffff1663ea1a0f523360016040518363ffffffff1660e01b8152600401808373ffffffffffffffffffffffffffffffffffffffff1673ffffffffffffffffffffffffffffffffffffffff1681526020018215151515815260200192505050600060405180830381600087803b15801561099957600080fd5b505af11580156109ad573d6000803e3d6000fd5b505050505b610a5c565b8073ffffffffffffffffffffffffffffffffffffffff1663ea1a0f523360016040518363ffffffff1660e01b8152600401808373ffffffffffffffffffffffffffffffffffffffff1673ffffffffffffffffffffffffffffffffffffffff1681526020018215151515815260200192505050600060405180830381600087803b158015610a4357600080fd5b505af1158015610a57573d6000803e3d6000fd5b505050505b8073ffffffffffffffffffffffffffffffffffffffff16632b09843033848473ffffffffffffffffffffffffffffffffffffffff1663c7aa327b336040518263ffffffff1660e01b8152600401808273ffffffffffffffffffffffffffffffffffffffff1673ffffffffffffffffffffffffffffffffffffffff16815260200191505060206040518083038186803b158015610af757600080fd5b505afa158015610b0b573d6000803e3d6000fd5b505050506040513d6020811015610b2157600080fd5b8101908080519060200190929190505050016040518363ffffffff1660e01b8152600401808373ffffffffffffffffffffffffffffffffffffffff1673ffffffffffffffffffffffffffffffffffffffff16815260200182815260200192505050600060405180830381600087803b158015610b9c57600080fd5b505af1158015610bb0573d6000803e3d6000fd5b505050508073ffffffffffffffffffffffffffffffffffffffff1663af94b07533848473ffffffffffffffffffffffffffffffffffffffff166327ef8c99336040518263ffffffff1660e01b8152600401808273ffffffffffffffffffffffffffffffffffffffff1673ffffffffffffffffffffffffffffffffffffffff16815260200191505060206040518083038186803b158015610c4f57600080fd5b505afa158015610c63573d6000803e3d6000fd5b505050506040513d6020811015610c7957600080fd5b8101908080519060200190929190505050036040518363ffffffff1660e01b8152600401808373ffffffffffffffffffffffffffffffffffffffff1673ffffffffffffffffffffffffffffffffffffffff16815260200182815260200192505050600060405180830381600087803b158015610cf457600080fd5b505af1158015610d08573d6000803e3d6000fd5b505050508073ffffffffffffffffffffffffffffffffffffffff166380a107e3838373ffffffffffffffffffffffffffffffffffffffff16634ba2363a6040518163ffffffff1660e01b815260040160206040518083038186803b158015610d6f57600080fd5b505afa158015610d83573d6000803e3d6000fd5b505050506040513d6020811015610d9957600080fd5b8101908080519060200190929190505050016040518263ffffffff1660e01b815260040180828152602001915050600060405180830381600087803b158015610de157600080fd5b505af1158015610df5573d6000803e3d6000fd5b505050508073ffffffffffffffffffffffffffffffffffffffff1663a64ae69b8273ffffffffffffffffffffffffffffffffffffffff166350d9e6856040518163ffffffff1660e01b815260040160206040518083038186803b158015610e5b57600080fd5b505afa158015610e6f573d6000803e3d6000fd5b505050506040513d6020811015610e8557600080fd5b810190808051906020019092919050505060018473ffffffffffffffffffffffffffffffffffffffff1663ab7ac97d6040518163ffffffff1660e01b815260040160206040518083038186803b158015610ede57600080fd5b505afa158015610ef2573d6000803e3d6000fd5b505050506040513d6020811015610f0857600080fd5b81019080805190602001909291905050500181610f2157fe5b066040518263ffffffff1660e01b815260040180828152602001915050600060405180830381600087803b158015610f5857600080fd5b505af1158015610f6c573d6000803e3d6000fd5b5050505060008173ffffffffffffffffffffffffffffffffffffffff1663c7aa327b8373ffffffffffffffffffffffffffffffffffffffff1663f71d96cb60006040518263ffffffff1660e01b81526004018082815260200191505060206040518083038186803b158015610fe057600080fd5b505afa158015610ff4573d6000803e3d6000fd5b505050506040513d602081101561100a57600080fd5b81019080805190602001909291905050506040518263ffffffff1660e01b8152600401808273ffffffffffffffffffffffffffffffffffffffff1673ffffffffffffffffffffffffffffffffffffffff16815260200191505060206040518083038186803b15801561107b57600080fd5b505afa15801561108f573d6000803e3d6000fd5b505050506040513d60208110156110a557600080fd5b810190808051906020019092919050505090508173ffffffffffffffffffffffffffffffffffffffff166362be90b0436040518263ffffffff1660e01b815260040180828152602001915050600060405180830381600087803b15801561110b57600080fd5b505af115801561111f573d6000803e3d6000fd5b505050506000600190505b8273ffffffffffffffffffffffffffffffffffffffff166350d9e6856040518163ffffffff1660e01b815260040160206040518083038186803b15801561117057600080fd5b505afa158015611184573d6000803e3d6000fd5b505050506040513d602081101561119a57600080fd5b810190808051906020019092919050505081101561131057818373ffffffffffffffffffffffffffffffffffffffff1663c7aa327b8573ffffffffffffffffffffffffffffffffffffffff1663f71d96cb856040518263ffffffff1660e01b81526004018082815260200191505060206040518083038186803b15801561122057600080fd5b505afa158015611234573d6000803e3d6000fd5b505050506040513d602081101561124a57600080fd5b81019080805190602001909291905050506040518263ffffffff1660e01b8152600401808273ffffffffffffffffffffffffffffffffffffffff1673ffffffffffffffffffffffffffffffffffffffff16815260200191505060206040518083038186803b1580156112bb57600080fd5b505afa1580156112cf573d6000803e3d6000fd5b505050506040513d60208110156112e557600080fd5b81019080805190602001909291905050501461130357505050611909565b808060010191505061112a565b5060001515611320856001611da3565b1515141561132f575050611909565b60008090505b8273ffffffffffffffffffffffffffffffffffffffff166350d9e6856040518163ffffffff1660e01b815260040160206040518083038186803b15801561137b57600080fd5b505afa15801561138f573d6000803e3d6000fd5b505050506040513d60208110156113a557600080fd5b8101908080519060200190929190505050811015611905578273ffffffffffffffffffffffffffffffffffffffff16632b0984308473ffffffffffffffffffffffffffffffffffffffff1663f71d96cb846040518263ffffffff1660e01b81526004018082815260200191505060206040518083038186803b15801561142a57600080fd5b505afa15801561143e573d6000803e3d6000fd5b505050506040513d602081101561145457600080fd5b810190808051906020019092919050505060006040518363ffffffff1660e01b8152600401808373ffffffffffffffffffffffffffffffffffffffff1673ffffffffffffffffffffffffffffffffffffffff16815260200182815260200192505050600060405180830381600087803b1580156114d057600080fd5b505af11580156114e4573d6000803e3d6000fd5b505050508273ffffffffffffffffffffffffffffffffffffffff166343f97e9e8473ffffffffffffffffffffffffffffffffffffffff1663f71d96cb846040518263ffffffff1660e01b81526004018082815260200191505060206040518083038186803b15801561155557600080fd5b505afa158015611569573d6000803e3d6000fd5b505050506040513d602081101561157f57600080fd5b810190808051906020019092919050505060018673ffffffffffffffffffffffffffffffffffffffff1663c842fc138873ffffffffffffffffffffffffffffffffffffffff1663f71d96cb886040518263ffffffff1660e01b81526004018082815260200191505060206040518083038186803b1580156115ff57600080fd5b505afa158015611613573d6000803e3d6000fd5b505050506040513d602081101561162957600080fd5b81019080805190602001909291905050506040518263ffffffff1660e01b8152600401808273ffffffffffffffffffffffffffffffffffffffff1673ffffffffffffffffffffffffffffffffffffffff16815260200191505060206040518083038186803b15801561169a57600080fd5b505afa1580156116ae573d6000803e3d6000fd5b505050506040513d60208110156116c457600080fd5b8101908080519060200190929190505050016040518363ffffffff1660e01b8152600401808373ffffffffffffffffffffffffffffffffffffffff1673ffffffffffffffffffffffffffffffffffffffff1681526020018260ff1660ff16815260200192505050600060405180830381600087803b15801561174557600080fd5b505af1158015611759573d6000803e3d6000fd5b505050508273ffffffffffffffffffffffffffffffffffffffff1663ea1a0f528473ffffffffffffffffffffffffffffffffffffffff1663f71d96cb846040518263ffffffff1660e01b81526004018082815260200191505060206040518083038186803b1580156117ca57600080fd5b505afa1580156117de573d6000803e3d6000fd5b505050506040513d60208110156117f457600080fd5b810190808051906020019092919050505060006040518363ffffffff1660e01b8152600401808373ffffffffffffffffffffffffffffffffffffffff1673ffffffffffffffffffffffffffffffffffffffff1681526020018215151515815260200192505050600060405180830381600087803b15801561187457600080fd5b505af1158015611888573d6000803e3d6000fd5b505050508273ffffffffffffffffffffffffffffffffffffffff1663a64ae69b60006040518263ffffffff1660e01b815260040180828152602001915050600060405180830381600087803b1580156118e057600080fd5b505af11580156118f4573d6000803e3d6000fd5b505050508080600101915050611335565b5050505b5050565b6000809054906101000a900473ffffffffffffffffffffffffffffffffffffffff1681565b6000829050600015158173ffffffffffffffffffffffffffffffffffffffff1663a5b8f210336040518263ffffffff1660e01b8152600401808273ffffffffffffffffffffffffffffffffffffffff1673ffffffffffffffffffffffffffffffffffffffff16815260200191505060206040518083038186803b1580156119b857600080fd5b505afa1580156119cc573d6000803e3d6000fd5b505050506040513d60208110156119e257600080fd5b810190808051906020019092919050505015151415611a0057600080fd5b600015158173ffffffffffffffffffffffffffffffffffffffff16639b1ac0ef600e6040518263ffffffff1660e01b81526004018082815260200191505060206040518083038186803b158015611a5657600080fd5b505afa158015611a6a573d6000803e3d6000fd5b505050506040513d6020811015611a8057600080fd5b810190808051906020019092919050505015151415611a9e57600080fd5b8073ffffffffffffffffffffffffffffffffffffffff16638233374933846040518363ffffffff1660e01b8152600401808373ffffffffffffffffffffffffffffffffffffffff1673ffffffffffffffffffffffffffffffffffffffff1681526020018273ffffffffffffffffffffffffffffffffffffffff1673ffffffffffffffffffffffffffffffffffffffff16815260200192505050600060405180830381600087803b158015611b5157600080fd5b505af1158015611b65573d6000803e3d6000fd5b5050505060008090505b8173ffffffffffffffffffffffffffffffffffffffff166350d9e6856040518163ffffffff1660e01b815260040160206040518083038186803b158015611bb557600080fd5b505afa158015611bc9573d6000803e3d6000fd5b505050506040513d6020811015611bdf57600080fd5b8101908080519060200190929190505050811015611d32578173ffffffffffffffffffffffffffffffffffffffff166343f97e9e8373ffffffffffffffffffffffffffffffffffffffff1663f71d96cb846040518263ffffffff1660e01b81526004018082815260200191505060206040518083038186803b158015611c6457600080fd5b505afa158015611c78573d6000803e3d6000fd5b505050506040513d6020811015611c8e57600080fd5b8101908080519060200190929190505050600f6040518363ffffffff1660e01b8152600401808373ffffffffffffffffffffffffffffffffffffffff1673ffffffffffffffffffffffffffffffffffffffff1681526020018260ff16815260200192505050600060405180830381600087803b158015611d0d57600080fd5b505af1158015611d21573d6000803e3d6000fd5b505050508080600101915050611b6f565b508073ffffffffffffffffffffffffffffffffffffffff166362be90b0436040518263ffffffff1660e01b815260040180828152602001915050600060405180830381600087803b158015611d8657600080fd5b505af1158015611d9a573d6000803e3d6000fd5b50505050505050565b60008083905060008090505b8173ffffffffffffffffffffffffffffffffffffffff166350d9e6856040518163ffffffff1660e01b815260040160206040518083038186803b158015611df557600080fd5b505afa158015611e09573d6000803e3d6000fd5b505050506040513d6020811015611e1f57600080fd5b8101908080519060200190929190505050811015611f9e57600015158273ffffffffffffffffffffffffffffffffffffffff1663561bbde68473ffffffffffffffffffffffffffffffffffffffff1663f71d96cb856040518263ffffffff1660e01b81526004018082815260200191505060206040518083038186803b158015611ea857600080fd5b505afa158015611ebc573d6000803e3d6000fd5b505050506040513d6020811015611ed257600080fd5b81019080805190602001909291905050506040518263ffffffff1660e01b8152600401808273ffffffffffffffffffffffffffffffffffffffff1673ffffffffffffffffffffffffffffffffffffffff16815260200191505060206040518083038186803b158015611f4357600080fd5b505afa158015611f57573d6000803e3d6000fd5b505050506040513d6020811015611f6d57600080fd5b810190808051906020019092919050505015151415611f9157600092505050612177565b8080600101915050611daf565b5082156121715760008090505b8173ffffffffffffffffffffffffffffffffffffffff166350d9e6856040518163ffffffff1660e01b815260040160206040518083038186803b158015611ff157600080fd5b505afa158015612005573d6000803e3d6000fd5b505050506040513d602081101561201b57600080fd5b810190808051906020019092919050505081101561216f578173ffffffffffffffffffffffffffffffffffffffff1663ea1a0f528373ffffffffffffffffffffffffffffffffffffffff1663f71d96cb846040518263ffffffff1660e01b81526004018082815260200191505060206040518083038186803b1580156120a057600080fd5b505afa1580156120b4573d6000803e3d6000fd5b505050506040513d60208110156120ca57600080fd5b810190808051906020019092919050505060006040518363ffffffff1660e01b8152600401808373ffffffffffffffffffffffffffffffffffffffff1673ffffffffffffffffffffffffffffffffffffffff1681526020018215151515815260200192505050600060405180830381600087803b15801561214a57600080fd5b505af115801561215e573d6000803e3d6000fd5b505050508080600101915050611fab565b505b60019150505b92915050565b6000819050600015158173ffffffffffffffffffffffffffffffffffffffff1663a5b8f210336040518263ffffffff1660e01b8152600401808273ffffffffffffffffffffffffffffffffffffffff1673ffffffffffffffffffffffffffffffffffffffff16815260200191505060206040518083038186803b15801561220357600080fd5b505afa158015612217573d6000803e3d6000fd5b505050506040513d602081101561222d57600080fd5b81019080805190602001909291905050501515141561224b57600080fd5b60008173ffffffffffffffffffffffffffffffffffffffff1663a6dc73186040518163ffffffff1660e01b815260040160206040518083038186803b15801561229357600080fd5b505afa1580156122a7573d6000803e3d6000fd5b505050506040513d60208110156122bd57600080fd5b8101908080519060200190929190505050111561268a57600015158173ffffffffffffffffffffffffffffffffffffffff16639b1ac0ef60046040518263ffffffff1660e01b81526004018082815260200191505060206040518083038186803b15801561232a57600080fd5b505afa15801561233e573d6000803e3d6000fd5b505050506040513d602081101561235457600080fd5b810190808051906020019092919050505015151480156124045750600015158173ffffffffffffffffffffffffffffffffffffffff16639b1ac0ef60076040518263ffffffff1660e01b81526004018082815260200191505060206040518083038186803b1580156123c557600080fd5b505afa1580156123d9573d6000803e3d6000fd5b505050506040513d60208110156123ef57600080fd5b81019080805190602001909291905050501515145b80156124a05750600015158173ffffffffffffffffffffffffffffffffffffffff16639b1ac0ef600a6040518263ffffffff1660e01b81526004018082815260200191505060206040518083038186803b15801561246157600080fd5b505afa158015612475573d6000803e3d6000fd5b505050506040513d602081101561248b57600080fd5b81019080805190602001909291905050501515145b801561253c5750600015158173ffffffffffffffffffffffffffffffffffffffff16639b1ac0ef600d6040518263ffffffff1660e01b81526004018082815260200191505060206040518083038186803b1580156124fd57600080fd5b505afa158015612511573d6000803e3d6000fd5b505050506040513d602081101561252757600080fd5b81019080805190602001909291905050501515145b1561254657600080fd5b3373ffffffffffffffffffffffffffffffffffffffff168173ffffffffffffffffffffffffffffffffffffffff1663f71d96cb8373ffffffffffffffffffffffffffffffffffffffff1663ab7ac97d6040518163ffffffff1660e01b815260040160206040518083038186803b1580156125bf57600080fd5b505afa1580156125d3573d6000803e3d6000fd5b505050506040513d60208110156125e957600080fd5b81019080805190602001909291905050506040518263ffffffff1660e01b81526004018082815260200191505060206040518083038186803b15801561262e57600080fd5b505afa158015612642573d6000803e3d6000fd5b505050506040513d602081101561265857600080fd5b810190808051906020019092919050505073ffffffffffffffffffffffffffffffffffffffff161461268957600080fd5b5b606060018273ffffffffffffffffffffffffffffffffffffffff166350d9e6856040518163ffffffff1660e01b815260040160206040518083038186803b1580156126d457600080fd5b505afa1580156126e8573d6000803e3d6000fd5b505050506040513d60208110156126fe57600080fd5b81019080805190602001909291905050500360405190808252806020026020018201604052801561273e5781602001602082028038833980820191505090505b509050600080905060008090505b8373ffffffffffffffffffffffffffffffffffffffff166350d9e6856040518163ffffffff1660e01b815260040160206040518083038186803b15801561279257600080fd5b505afa1580156127a6573d6000803e3d6000fd5b505050506040513d60208110156127bc57600080fd5b810190808051906020019092919050505081101561297a573373ffffffffffffffffffffffffffffffffffffffff168473ffffffffffffffffffffffffffffffffffffffff1663f71d96cb836040518263ffffffff1660e01b81526004018082815260200191505060206040518083038186803b15801561283c57600080fd5b505afa158015612850573d6000803e3d6000fd5b505050506040513d602081101561286657600080fd5b810190808051906020019092919050505073ffffffffffffffffffffffffffffffffffffffff161461296d578373ffffffffffffffffffffffffffffffffffffffff1663f71d96cb826040518263ffffffff1660e01b81526004018082815260200191505060206040518083038186803b1580156128e357600080fd5b505afa1580156128f7573d6000803e3d6000fd5b505050506040513d602081101561290d57600080fd5b810190808051906020019092919050505083838151811061292a57fe5b602002602001019073ffffffffffffffffffffffffffffffffffffffff16908173ffffffffffffffffffffffffffffffffffffffff168152505081806001019250505b808060010191505061274c565b50600182511415612a3e578273ffffffffffffffffffffffffffffffffffffffff1663e81df3a0836000815181106129ae57fe5b60200260200101516040518263ffffffff1660e01b8152600401808273ffffffffffffffffffffffffffffffffffffffff1673ffffffffffffffffffffffffffffffffffffffff168152602001915050600060405180830381600087803b158015612a1857600080fd5b505af1158015612a2c573d6000803e3d6000fd5b50505050612a3984612de4565b612ce9565b8273ffffffffffffffffffffffffffffffffffffffff16639f9cf361836040518263ffffffff1660e01b81526004018080602001828103825283818151815260200191508051906020019060200280838360005b83811015612aad578082015181840152602081019050612a92565b5050505090500192505050600060405180830381600087803b158015612ad257600080fd5b505af1158015612ae6573d6000803e3d6000fd5b5050505060008373ffffffffffffffffffffffffffffffffffffffff1663a6dc73186040518163ffffffff1660e01b815260040160206040518083038186803b158015612b3257600080fd5b505afa158015612b46573d6000803e3d6000fd5b505050506040513d6020811015612b5c57600080fd5b81019080805190602001909291905050501115612ce8578273ffffffffffffffffffffffffffffffffffffffff1663a64ae69b8473ffffffffffffffffffffffffffffffffffffffff166350d9e6856040518163ffffffff1660e01b815260040160206040518083038186803b158015612bd557600080fd5b505afa158015612be9573d6000803e3d6000fd5b505050506040513d6020811015612bff57600080fd5b81019080805190602001909291905050508573ffffffffffffffffffffffffffffffffffffffff1663ab7ac97d6040518163ffffffff1660e01b815260040160206040518083038186803b158015612c5657600080fd5b505afa158015612c6a573d6000803e3d6000fd5b505050506040513d6020811015612c8057600080fd5b810190808051906020019092919050505081612c9857fe5b066040518263ffffffff1660e01b815260040180828152602001915050600060405180830381600087803b158015612ccf57600080fd5b505af1158015612ce3573d6000803e3d6000fd5b505050505b5b60008373ffffffffffffffffffffffffffffffffffffffff1663a6dc73186040518163ffffffff1660e01b815260040160206040518083038186803b158015612d3157600080fd5b505afa158015612d45573d6000803e3d6000fd5b505050506040513d6020811015612d5b57600080fd5b81019080805190602001909291905050501115612dde578273ffffffffffffffffffffffffffffffffffffffff166362be90b0436040518263ffffffff1660e01b815260040180828152602001915050600060405180830381600087803b158015612dc557600080fd5b505af1158015612dd9573d6000803e3d6000fd5b505050505b50505050565b600081905060008173ffffffffffffffffffffffffffffffffffffffff166349cd5efc6040518163ffffffff1660e01b815260040160206040518083038186803b158015612e3157600080fd5b505afa158015612e45573d6000803e3d6000fd5b505050506040513d6020811015612e5b57600080fd5b81019080805190602001909291905050501415612e7757600080fd5b60008090505b8173ffffffffffffffffffffffffffffffffffffffff166349cd5efc6040518163ffffffff1660e01b815260040160206040518083038186803b158015612ec357600080fd5b505afa158015612ed7573d6000803e3d6000fd5b505050506040513d6020811015612eed57600080fd5b81019080805190602001909291905050508110156136a05760008273ffffffffffffffffffffffffffffffffffffffff166327ef8c998473ffffffffffffffffffffffffffffffffffffffff16631cbeae5e856040518263ffffffff1660e01b81526004018082815260200191505060206040518083038186803b158015612f7457600080fd5b505afa158015612f88573d6000803e3d6000fd5b505050506040513d6020811015612f9e57600080fd5b81019080805190602001909291905050506040518263ffffffff1660e01b8152600401808273ffffffffffffffffffffffffffffffffffffffff1673ffffffffffffffffffffffffffffffffffffffff16815260200191505060206040518083038186803b15801561300f57600080fd5b505afa158015613023573d6000803e3d6000fd5b505050506040513d602081101561303957600080fd5b81019080805190602001909291905050508373ffffffffffffffffffffffffffffffffffffffff166349cd5efc6040518163ffffffff1660e01b815260040160206040518083038186803b15801561309057600080fd5b505afa1580156130a4573d6000803e3d6000fd5b505050506040513d60208110156130ba57600080fd5b81019080805190602001909291905050508473ffffffffffffffffffffffffffffffffffffffff16634ba2363a6040518163ffffffff1660e01b815260040160206040518083038186803b15801561311157600080fd5b505afa158015613125573d6000803e3d6000fd5b505050506040513d602081101561313b57600080fd5b81019080805190602001909291905050508161315357fe5b04011115613693578173ffffffffffffffffffffffffffffffffffffffff1663c40768768373ffffffffffffffffffffffffffffffffffffffff16631cbeae5e846040518263ffffffff1660e01b81526004018082815260200191505060206040518083038186803b1580156131c857600080fd5b505afa1580156131dc573d6000803e3d6000fd5b505050506040513d60208110156131f257600080fd5b81019080805190602001909291905050508473ffffffffffffffffffffffffffffffffffffffff166327ef8c998673ffffffffffffffffffffffffffffffffffffffff16631cbeae5e876040518263ffffffff1660e01b81526004018082815260200191505060206040518083038186803b15801561327057600080fd5b505afa158015613284573d6000803e3d6000fd5b505050506040513d602081101561329a57600080fd5b81019080805190602001909291905050506040518263ffffffff1660e01b8152600401808273ffffffffffffffffffffffffffffffffffffffff1673ffffffffffffffffffffffffffffffffffffffff16815260200191505060206040518083038186803b15801561330b57600080fd5b505afa15801561331f573d6000803e3d6000fd5b505050506040513d602081101561333557600080fd5b81019080805190602001909291905050508573ffffffffffffffffffffffffffffffffffffffff166349cd5efc6040518163ffffffff1660e01b815260040160206040518083038186803b15801561338c57600080fd5b505afa1580156133a0573d6000803e3d6000fd5b505050506040513d60208110156133b657600080fd5b81019080805190602001909291905050508673ffffffffffffffffffffffffffffffffffffffff16634ba2363a6040518163ffffffff1660e01b815260040160206040518083038186803b15801561340d57600080fd5b505afa158015613421573d6000803e3d6000fd5b505050506040513d602081101561343757600080fd5b81019080805190602001909291905050508161344f57fe5b04016040518363ffffffff1660e01b8152600401808373ffffffffffffffffffffffffffffffffffffffff1673ffffffffffffffffffffffffffffffffffffffff16815260200182815260200192505050602060405180830381600087803b1580156134ba57600080fd5b505af11580156134ce573d6000803e3d6000fd5b505050506040513d60208110156134e457600080fd5b810190808051906020019092919050505015613692578173ffffffffffffffffffffffffffffffffffffffff166380a107e360006040518263ffffffff1660e01b815260040180828152602001915050600060405180830381600087803b15801561354e57600080fd5b505af1158015613562573d6000803e3d6000fd5b505050508173ffffffffffffffffffffffffffffffffffffffff1663af94b0758373ffffffffffffffffffffffffffffffffffffffff16631cbeae5e846040518263ffffffff1660e01b81526004018082815260200191505060206040518083038186803b1580156135d357600080fd5b505afa1580156135e7573d6000803e3d6000fd5b505050506040513d60208110156135fd57600080fd5b810190808051906020019092919050505060006040518363ffffffff1660e01b8152600401808373ffffffffffffffffffffffffffffffffffffffff1673ffffffffffffffffffffffffffffffffffffffff16815260200182815260200192505050600060405180830381600087803b15801561367957600080fd5b505af115801561368d573d6000803e3d6000fd5b505050505b5b8080600101915050612e7d565b5060008090505b8173ffffffffffffffffffffffffffffffffffffffff166350d9e6856040518163ffffffff1660e01b815260040160206040518083038186803b1580156136ed57600080fd5b505afa158015613701573d6000803e3d6000fd5b505050506040513d602081101561371757600080fd5b8101908080519060200190929190505050811015613d76578173ffffffffffffffffffffffffffffffffffffffff166343f97e9e8373ffffffffffffffffffffffffffffffffffffffff1663f71d96cb846040518263ffffffff1660e01b81526004018082815260200191505060206040518083038186803b15801561379c57600080fd5b505afa1580156137b0573d6000803e3d6000fd5b505050506040513d60208110156137c657600080fd5b810190808051906020019092919050505060126040518363ffffffff1660e01b8152600401808373ffffffffffffffffffffffffffffffffffffffff1673ffffffffffffffffffffffffffffffffffffffff1681526020018260ff16815260200192505050600060405180830381600087803b15801561384557600080fd5b505af1158015613859573d6000803e3d6000fd5b5050505060008273ffffffffffffffffffffffffffffffffffffffff166327ef8c998473ffffffffffffffffffffffffffffffffffffffff1663f71d96cb856040518263ffffffff1660e01b81526004018082815260200191505060206040518083038186803b1580156138cc57600080fd5b505afa1580156138e0573d6000803e3d6000fd5b505050506040513d60208110156138f657600080fd5b81019080805190602001909291905050506040518263ffffffff1660e01b8152600401808273ffffffffffffffffffffffffffffffffffffffff1673ffffffffffffffffffffffffffffffffffffffff16815260200191505060206040518083038186803b15801561396757600080fd5b505afa15801561397b573d6000803e3d6000fd5b505050506040513d602081101561399157600080fd5b81019080805190602001909291905050501115613d69578173ffffffffffffffffffffffffffffffffffffffff1663c40768768373ffffffffffffffffffffffffffffffffffffffff1663f71d96cb846040518263ffffffff1660e01b81526004018082815260200191505060206040518083038186803b158015613a1557600080fd5b505afa158015613a29573d6000803e3d6000fd5b505050506040513d6020811015613a3f57600080fd5b81019080805190602001909291905050508473ffffffffffffffffffffffffffffffffffffffff166327ef8c998673ffffffffffffffffffffffffffffffffffffffff1663f71d96cb876040518263ffffffff1660e01b81526004018082815260200191505060206040518083038186803b158015613abd57600080fd5b505afa158015613ad1573d6000803e3d6000fd5b505050506040513d6020811015613ae757600080fd5b81019080805190602001909291905050506040518263ffffffff1660e01b8152600401808273ffffffffffffffffffffffffffffffffffffffff1673ffffffffffffffffffffffffffffffffffffffff16815260200191505060206040518083038186803b158015613b5857600080fd5b505afa158015613b6c573d6000803e3d6000fd5b505050506040513d6020811015613b8257600080fd5b81019080805190602001909291905050506040518363ffffffff1660e01b8152600401808373ffffffffffffffffffffffffffffffffffffffff1673ffffffffffffffffffffffffffffffffffffffff16815260200182815260200192505050602060405180830381600087803b158015613bfc57600080fd5b505af1158015613c10573d6000803e3d6000fd5b505050506040513d6020811015613c2657600080fd5b810190808051906020019092919050505015613d68578173ffffffffffffffffffffffffffffffffffffffff1663af94b0758373ffffffffffffffffffffffffffffffffffffffff1663f71d96cb846040518263ffffffff1660e01b81526004018082815260200191505060206040518083038186803b158015613ca957600080fd5b505afa158015613cbd573d6000803e3d6000fd5b505050506040513d6020811015613cd357600080fd5b810190808051906020019092919050505060006040518363ffffffff1660e01b8152600401808373ffffffffffffffffffffffffffffffffffffffff1673ffffffffffffffffffffffffffffffffffffffff16815260200182815260200192505050600060405180830381600087803b158015613d4f57600080fd5b505af1158015613d63573d6000803e3d6000fd5b505050505b5b80806001019150506136a7565b508073ffffffffffffffffffffffffffffffffffffffff16637dd25c1f60016040518263ffffffff1660e01b81526004018082151515158152602001915050600060405180830381600087803b158015613dcf57600080fd5b505af1158015613de3573d6000803e3d6000fd5b50505050505056fea165627a7a72305820a68ad5d97ce7ecaf596014f83b5828b90966d100be3fb3eaa5841b87f0c0fdc30029",
  "source": "pragma solidity ^0.5.8;\r\n/**\r\n*\r\n* Processes full-cost (\"full contract\"), unsigned actions and transactions for an authorizing PokerHandData contract.\r\n*\r\n* (C)opyright 2019\r\n*\r\n* This source code is protected by copyright and distributed under the MIT license.\r\n* Please see the root LICENSE file for terms and conditions.\r\n*\r\n*/\r\ncontract PokerHandActions {\r\n\r\n    address public owner; //the contract's owner / publisher\r\n\r\n  \tconstructor() public {\r\n\t\t    owner = msg.sender;\r\n    }\r\n\r\n\t/**\r\n\t* Anonymous fallback function.\r\n\t*/\r\n\tfunction () external {\r\n          revert();\r\n    }\r\n\r\n\t/**\r\n     * Records a bet for the sending player in \"playerBets\", updates the \"pot\", subtracts the value from their \"playerChips\" total.\r\n     * The sending player must have agreed, it must be their turn to bet according to the \"betPosition\" index, the bet value must\r\n     * be less than or equal to the player's available \"playerChips\" value, and all players must be at a valid betting phase (4, 7, 10, or 13).\r\n     *\r\n     * Player bets are automatically added to the \"pot\" and when all players' bets are equal they (bets) are reset to 0 and\r\n     * their phases are automatically incremented.\r\n     *\r\n     * @param betValue The bet, in wei, being placed by the player.\r\n     */\r\n\tfunction storeBet (address dataAddr, uint256 betValue) public  {\r\n\t\tPokerHandData dataStorage = PokerHandData(dataAddr);\r\n\t\tif (dataStorage.agreed(msg.sender) == false) {\r\n\t\t    revert();\r\n\t\t}\r\n\t    if ((dataStorage.allPlayersAtPhase(4) == false) && (dataStorage.allPlayersAtPhase(7) == false) &&\r\n\t\t\t(dataStorage.allPlayersAtPhase(10) == false) && (dataStorage.allPlayersAtPhase(13) == false)) {\r\n            revert();\r\n        }\r\n        if (dataStorage.playerChips(msg.sender) < betValue) {\r\n            revert();\r\n        }\r\n        if (dataStorage.players(dataStorage.betPosition()) != msg.sender) {\r\n            revert();\r\n        }\r\n        if (dataStorage.players(1) == msg.sender) {\r\n            if (dataStorage.bigBlindHasBet() == false) {\r\n                dataStorage.set_bigBlindHasBet(true);\r\n            } else {\r\n                dataStorage.set_playerHasBet(msg.sender, true);\r\n            }\r\n        } else {\r\n\t\t\tdataStorage.set_playerHasBet(msg.sender, true);\r\n        }\r\n        dataStorage.set_playerBets(msg.sender, dataStorage.playerBets(msg.sender) + betValue);\r\n        dataStorage.set_playerChips(msg.sender, dataStorage.playerChips(msg.sender) - betValue);\r\n\t\tdataStorage.set_pot (dataStorage.pot() + betValue);\r\n\t\tdataStorage.set_betPosition((dataStorage.betPosition() + 1) % dataStorage.num_Players());\r\n\t\tuint256 currentBet = dataStorage.playerBets(dataStorage.players(0));\r\n\t\tdataStorage.set_lastActionBlock (block.number);\r\n\t\tfor (uint count=1; count<dataStorage.num_Players(); count++) {\r\n\t\t    if (dataStorage.playerBets(dataStorage.players(count)) != currentBet) {\r\n\t\t        //all player bets should match in order to end betting round\r\n\t\t        return;\r\n\t\t    }\r\n\t\t}\r\n\t\tif (allPlayersHaveBet(dataAddr, true) == false) {\r\n\t\t    return;\r\n\t\t}\r\n\t\t//all players have placed at least one bet and bets are equal: reset bets, increment phases, reset bet position and \"playerHasBet\" flags\r\n\t\tfor (uint count=0; count<dataStorage.num_Players(); count++) {\r\n\t\t    dataStorage.set_playerBets(dataStorage.players(count), 0);\r\n\t\t    dataStorage.set_phase(dataStorage.players(count), dataStorage.phases(dataStorage.players(count))+1);\r\n\t\t\tdataStorage.set_playerHasBet(dataStorage.players(count), false);\r\n\t\t    dataStorage.set_betPosition(0);\r\n\t\t}\r\n    }\r\n\r\n\t /**\r\n     * Checks if all players have bet during this round of betting by analyzing the playerHasBet mapping.\r\n     *\r\n     * @param reset If all players have bet, all playerHasBet entries are set to false if this parameter is true. If false\r\n     * then the values of playerHasBet are not affected.\r\n     *\r\n     * @return True if all players have bet during this round of betting.\r\n     */\r\n    //function allPlayersHaveBet(address dataAddr, bool reset) public view returns (bool) {\r\n      function allPlayersHaveBet(address dataAddr, bool reset) public returns (bool) {\r\n\t\t    PokerHandData dataStorage = PokerHandData(dataAddr);\r\n        for (uint count = 0; count < dataStorage.num_Players(); count++) {\r\n            if (dataStorage.playerHasBet(dataStorage.players(count)) == false) {\r\n                return (false);\r\n            }\r\n        }\r\n        if (reset) {\r\n            for (uint count = 0; count < dataStorage.num_Players(); count++) {\r\n                dataStorage.set_playerHasBet(dataStorage.players(count), false);\r\n            }\r\n        }\r\n        return (true);\r\n    }\r\n\r\n    /**\r\n     * Records a \"fold\" action for a player. The player must exist in the \"players\" array, must have agreed, and must be at a valid\r\n     * betting phase (4,7,10), and it must be their turn to bet according to the \"betPosition\" index. When fold is correctly invoked\r\n     * any unspent wei in the player's chips are refunded, as opposed to simply abandoning the contract in which case those chips\r\n     * are not refunded.\r\n     *\r\n     * Once a player folds correctly they are removed from the \"players\" array and the betting position is adjusted if necessary. If\r\n     * only one other player remains active in the contract they receive the pot plus their remaining chips while other (folded) players\r\n     * receive their remaining chips.\r\n     */\r\n    function fold(address dataAddr) public  {\r\n\t\t    PokerHandData dataStorage = PokerHandData(dataAddr);\r\n          if (dataStorage.agreed(msg.sender) == false) {\r\n  \t\t    revert();\r\n  \t\t}\r\n  \t\tif (dataStorage.lastActionBlock() > 0) {\r\n  \t\t\tif ((dataStorage.allPlayersAtPhase(4) == false) && (dataStorage.allPlayersAtPhase(7) == false) &&\r\n  \t\t\t\t(dataStorage.allPlayersAtPhase(10) == false) && (dataStorage.allPlayersAtPhase(13) == false)) {\r\n  \t\t\t\trevert();\r\n  \t\t\t}\r\n  \t\t\tif (dataStorage.players(dataStorage.betPosition()) != msg.sender) {\r\n  \t\t\t\trevert();\r\n  \t\t\t}\r\n\t\t}\r\n        address[] memory newPlayersArray = new address[](dataStorage.num_Players()-1);\r\n        uint pushIndex=0;\r\n        for (uint count=0; count < dataStorage.num_Players(); count++) {\r\n            if (dataStorage.players(count) != msg.sender) {\r\n                newPlayersArray[pushIndex]=dataStorage.players(count);\r\n                pushIndex++;\r\n            }\r\n        }\r\n        if (newPlayersArray.length == 1) {\r\n            //game has ended since only one player's left\r\n            dataStorage.add_winner(newPlayersArray[0]);\r\n            payout(dataAddr);\r\n        } else {\r\n            //game may continue\r\n            dataStorage.new_players(newPlayersArray);\r\n\t\t\tif (dataStorage.lastActionBlock() > 0) {\r\n\t\t\t\tdataStorage.set_betPosition (dataStorage.betPosition() % dataStorage.num_Players());\r\n\t\t\t}\r\n        }\r\n\t\tif (dataStorage.lastActionBlock() > 0) {\r\n\t\t\tdataStorage.set_lastActionBlock (block.number);\r\n\t\t}\r\n    }\r\n\r\n    /**\r\n     * Declares the sending player as a winner. Sending player must have agreed to contract and all players must be at be\r\n     * at phase 14. A winning player may only be declared once at which point all players' phases are updated to 15.\r\n     *\r\n     * A declared winner may be challenged before timeoutBlocks have elapsed, or later if resolveWinner hasn't yet\r\n     * been called.\r\n     *\r\n     */\r\n    function declareWinner(address dataAddr, address winnerAddr) public {\r\n\t\tPokerHandData dataStorage = PokerHandData(dataAddr);\r\n        if (dataStorage.agreed(msg.sender) == false) {\r\n\t\t    revert();\r\n\t\t}\r\n\t    if (dataStorage.allPlayersAtPhase(14) == false) {\r\n            revert();\r\n        }\r\n\t\tdataStorage.add_declaredWinner(msg.sender, winnerAddr);\r\n        for (uint count=0; count<dataStorage.num_Players(); count++) {\r\n            dataStorage.set_phase(dataStorage.players(count), 15);\r\n        }\r\n\t\t    dataStorage.set_lastActionBlock(block.number);\r\n    }\r\n\r\n\t   /**\r\n     * Pays out the contract's value by sending the pot + winner's remaining chips to the winner and sending the othe player's remaining chips\r\n     * to them. When all amounts have been paid out, \"pot\" and all \"playerChips\" are set to 0 as is the \"winner\" address. All players'\r\n     * phases are set to 18 and the reset function is invoked.\r\n     *\r\n     * The \"winner\" address must be set prior to invoking this call.\r\n     */\r\n    function payout(address dataAddr) private {\r\n\t\tPokerHandData dataStorage = PokerHandData(dataAddr);\r\n        if (dataStorage.num_winner() == 0) {\r\n            revert();\r\n        }\r\n        for (uint count=0; count<dataStorage.num_winner(); count++) {\r\n            if ((dataStorage.pot() / dataStorage.num_winner()) + dataStorage.playerChips(dataStorage.winner(count)) > 0) {\r\n\t\t\t\tif (dataStorage.pay(dataStorage.winner(count),\r\n\t\t\t\t\t(dataStorage.pot() / dataStorage.num_winner())\r\n\t\t\t\t\t\t+ dataStorage.playerChips(dataStorage.winner(count)))) {\r\n                    dataStorage.set_pot(0);\r\n\t\t\t\t\t          dataStorage.set_playerChips(dataStorage.winner(count), 0);\r\n                }\r\n            }\r\n        }\r\n         for (uint count=0; count < dataStorage.num_Players(); count++) {\r\n            dataStorage.set_phase(dataStorage.players(count), 18);\r\n            if (dataStorage.playerChips(dataStorage.players(count)) > 0) {\r\n\t\t\t\t          if (dataStorage.pay (dataStorage.players(count), dataStorage.playerChips(dataStorage.players(count)))) {\r\n                    dataStorage.set_playerChips(dataStorage.players(count), 0);\r\n                }\r\n            }\r\n        }\r\n\t\tdataStorage.set_complete (true);\r\n    }\r\n}\r\n\r\ncontract PokerHandData {\r\n\tstruct Card {\r\n      uint index;\r\n      uint suit;\r\n      uint value;\r\n  }\r\n\tstruct CardGroup {\r\n     Card[] cards;\r\n  }\r\n\tstruct Key {\r\n      uint256 encKey;\r\n      uint256 decKey;\r\n      uint256 prime;\r\n  }\r\n  address public owner;\r\n  address[] public authorizedGameContracts;\r\n\tuint public numAuthorizedContracts;\r\n  address[] public players;\r\n  uint256 public buyIn;\r\n  mapping (address => bool) public agreed;\r\n\tuint256 public prime;\r\n  uint256 public baseCard;\r\n  mapping (address => uint256) public playerBets;\r\n\tmapping (address => uint256) public playerChips;\r\n\tmapping (address => bool) public playerHasBet;\r\n\tbool public bigBlindHasBet;\r\n  uint256 public pot;\r\n  uint public betPosition;\r\n  mapping (address => uint256[52]) public encryptedDeck;\r\n  mapping (address => uint256[2]) public privateCards;\r\n  struct DecryptPrivateCardsStruct {\r\n      address sourceAddr;\r\n      address targetAddr;\r\n      uint256[2] cards;\r\n  }\r\n  DecryptPrivateCardsStruct[] public privateDecryptCards;\r\n  uint256[5] public publicCards;\r\n\tmapping (address => uint256[5]) public publicDecryptCards;\r\n  mapping (address => Key[]) public playerKeys;\r\n  mapping (address => uint[5]) public playerBestHands;\r\n  mapping (address => Card[]) public playerCards;\r\n  mapping (address => uint256) public results;\r\n  mapping (address => address) public declaredWinner;\r\n  address[] public winner;\r\n  uint public lastActionBlock;\r\n  uint public timeoutBlocks;\r\n\tuint public initBlock;\r\n\tmapping (address => uint) public nonces;\r\n  mapping (address => uint) public validationIndex;\r\n  address public challenger;\r\n\tbool public complete;\r\n\tbool public initReady;\r\n  mapping (address => uint8) public phases;\r\n  constructor() public {}\r\n\tfunction () external {}\r\n\tmodifier onlyAuthorized {\r\n\t\tuint allowedContractsFound = 0;\r\n        for (uint count=0; count<authorizedGameContracts.length; count++) {\r\n            if (msg.sender == authorizedGameContracts[count]) {\r\n                allowedContractsFound++;\r\n            }\r\n        }\r\n        if (allowedContractsFound == 0) {\r\n             revert();\r\n        }\r\n        _;\r\n\t}\r\n\tfunction agreeToContract(uint256 nonce) payable public {}\r\n\tfunction initialize(uint256 primeVal, uint256 baseCardVal, uint256 buyInVal, uint timeoutBlocksVal) public onlyAuthorized {}\r\n  function getPrivateDecryptCard(address sourceAddr, address targetAddr, uint cardIndex) view public returns (uint256) {}\r\n  function allPlayersAtPhase(uint phaseNum) public view returns (bool) {}\r\n  function num_Players() public view returns (uint) {}\r\n\tfunction num_Keys(address target) public view returns (uint) {}\r\n\tfunction num_PlayerCards(address target) public view returns (uint) {}\r\n\tfunction num_PrivateCards(address targetAddr) public view returns (uint) {}\r\n\tfunction num_PublicCards() public view returns (uint) {}\r\n\tfunction num_PrivateDecryptCards(address sourceAddr, address targetAddr) public view returns (uint) {}\r\n\tfunction num_winner() public view returns (uint) {}\r\n\tfunction setAuthorizedGameContracts (address[] memory contractAddresses) public {}\r\n\tfunction add_playerCard(address playerAddress, uint index, uint suit, uint value) public onlyAuthorized {}\r\n  function update_playerCard(address playerAddress, uint cardIndex, uint index, uint suit, uint value) public onlyAuthorized {}\r\n  function set_validationIndex(address playerAddress, uint index) public onlyAuthorized {}\r\n\tfunction set_result(address playerAddress, uint256 result) public onlyAuthorized {}\r\n\tfunction set_complete (bool completeSet) public onlyAuthorized {}\r\n\tfunction set_publicCard (uint256 card, uint index) public onlyAuthorized {}\r\n\tfunction set_encryptedDeck (address fromAddr, uint256[] memory cards) public onlyAuthorized {}\r\n\tfunction set_privateCards (address fromAddr, uint256[] memory cards) public onlyAuthorized {}\r\n\tfunction set_betPosition (uint betPositionVal) public onlyAuthorized {}\r\n\tfunction set_bigBlindHasBet (bool bigBlindHasBetVal) public onlyAuthorized {}\r\n\tfunction set_playerHasBet (address fromAddr, bool hasBet) public onlyAuthorized {}\r\n\tfunction set_playerBets (address fromAddr, uint betVal) public onlyAuthorized {}\r\n\tfunction set_playerChips (address forAddr, uint numChips) public onlyAuthorized {}\r\n\tfunction set_pot (uint potVal) public onlyAuthorized {}\r\n\tfunction set_agreed (address fromAddr, bool agreedVal) public onlyAuthorized {}\r\n\tfunction add_winner (address winnerAddress) public onlyAuthorized {}\r\n\tfunction clear_winner () public onlyAuthorized {}\r\n\tfunction new_players (address[] memory newPlayers) public onlyAuthorized {}\r\n\tfunction set_phase (address fromAddr, uint8 phaseNum) public onlyAuthorized {}\r\n\tfunction set_lastActionBlock(uint blockNum) public onlyAuthorized {}\r\n\tfunction set_privateDecryptCards (address fromAddr, uint256[] memory cards, address targetAddr) public onlyAuthorized {}\r\n\tfunction set_publicCards (address fromAddr, uint256[] memory cards) public onlyAuthorized {}\r\n\tfunction set_publicDecryptCards (address fromAddr, uint256[] memory cards) public onlyAuthorized {}\r\n\tfunction add_declaredWinner(address fromAddr, address winnerAddr) public onlyAuthorized {}\r\n  function privateDecryptCardsIndex (address sourceAddr, address targetAddr) public onlyAuthorized returns (uint) {}\r\n\tfunction set_playerBestHands(address fromAddr, uint cardIndex, uint256 card) public onlyAuthorized {}\r\n\tfunction add_playerKeys(address fromAddr, uint256[] memory encKeys, uint256[] memory decKeys) public onlyAuthorized {}\r\n\tfunction remove_playerKeys(address fromAddr) public onlyAuthorized {}\r\n\tfunction set_challenger(address challengerAddr) public onlyAuthorized {}\r\n\tfunction pay (address toAddr, uint amount) public onlyAuthorized returns (bool) {}\r\n\tfunction publicDecryptCardsInfo() public view returns (uint maxLength, uint playersAtMaxLength) {}\r\n  function length_encryptedDeck(address fromAddr) public view returns (uint) {}\r\n}\r\n",
  "sourcePath": "/home/patrick/Desktop/Tomo Poker/cypherpoker.js/solidity/contracts/PokerHandActions.sol",
  "compiler": {
    "name": "solc",
    "version": "0.5.8+commit.23d335f2.Emscripten.clang"
  },
  "schemaVersion": "3.0.16",
  "updatedAt": "2019-09-27T18:12:55.277Z",
  "devdoc": {
    "methods": {
      "allPlayersHaveBet(address,bool)": {
        "params": {
          "reset": "If all players have bet, all playerHasBet entries are set to false if this parameter is true. If false\r then the values of playerHasBet are not affected.\r "
        },
        "return": "True if all players have bet during this round of betting.\r"
      },
      "storeBet(address,uint256)": {
        "params": {
          "betValue": "The bet, in wei, being placed by the player.\r"
        }
      }
    }
  },
  "userdoc": {
    "methods": {
      "allPlayersHaveBet(address,bool)": {
        "notice": "Checks if all players have bet during this round of betting by analyzing the playerHasBet mapping.\r "
      },
      "declareWinner(address,address)": {
        "notice": "Declares the sending player as a winner. Sending player must have agreed to contract and all players must be at be\r at phase 14. A winning player may only be declared once at which point all players' phases are updated to 15.\r      * A declared winner may be challenged before timeoutBlocks have elapsed, or later if resolveWinner hasn't yet\r been called.\r      "
      },
      "fold(address)": {
        "notice": "Records a \"fold\" action for a player. The player must exist in the \"players\" array, must have agreed, and must be at a valid\r betting phase (4,7,10), and it must be their turn to bet according to the \"betPosition\" index. When fold is correctly invoked\r any unspent wei in the player's chips are refunded, as opposed to simply abandoning the contract in which case those chips\r are not refunded.\r      * Once a player folds correctly they are removed from the \"players\" array and the betting position is adjusted if necessary. If\r only one other player remains active in the contract they receive the pot plus their remaining chips while other (folded) players\r receive their remaining chips.\r"
      },
      "storeBet(address,uint256)": {
        "notice": "Records a bet for the sending player in \"playerBets\", updates the \"pot\", subtracts the value from their \"playerChips\" total.\r The sending player must have agreed, it must be their turn to bet according to the \"betPosition\" index, the bet value must\r be less than or equal to the player's available \"playerChips\" value, and all players must be at a valid betting phase (4, 7, 10, or 13).\r      * Player bets are automatically added to the \"pot\" and when all players' bets are equal they (bets) are reset to 0 and\r their phases are automatically incremented.\r "
      }
    },
    "notice": " * Processes full-cost (\"full contract\"), unsigned actions and transactions for an authorizing PokerHandData contract.\r  * (C)opyright 2019\r  * This source code is protected by copyright and distributed under the MIT license.\r Please see the root LICENSE file for terms and conditions.\r "
  }
}