{
  "contractName": "PokerHandStartup",
  "abi": [
    {
      "constant": true,
      "inputs": [],
      "name": "owner",
      "outputs": [
        {
          "name": "",
          "type": "address"
        }
      ],
      "payable": false,
      "stateMutability": "view",
      "type": "function"
    },
    {
      "inputs": [],
      "payable": false,
      "stateMutability": "nonpayable",
      "type": "constructor"
    },
    {
      "payable": false,
      "stateMutability": "nonpayable",
      "type": "fallback"
    },
    {
      "constant": false,
      "inputs": [
        {
          "name": "requiredPlayers",
          "type": "address[]"
        },
        {
          "name": "primeVal",
          "type": "uint256"
        },
        {
          "name": "baseCardVal",
          "type": "uint256"
        },
        {
          "name": "buyInVal",
          "type": "uint256"
        },
        {
          "name": "timeoutBlocksVal",
          "type": "uint256"
        },
        {
          "name": "dataAddr",
          "type": "address"
        }
      ],
      "name": "initialize",
      "outputs": [],
      "payable": false,
      "stateMutability": "nonpayable",
      "type": "function"
    },
    {
      "constant": false,
      "inputs": [
        {
          "name": "dataAddr",
          "type": "address"
        }
      ],
      "name": "reset",
      "outputs": [],
      "payable": false,
      "stateMutability": "nonpayable",
      "type": "function"
    },
    {
      "constant": false,
      "inputs": [
        {
          "name": "dataAddr",
          "type": "address"
        },
        {
          "name": "cards",
          "type": "uint256[]"
        }
      ],
      "name": "storeEncryptedDeck",
      "outputs": [],
      "payable": false,
      "stateMutability": "nonpayable",
      "type": "function"
    },
    {
      "constant": false,
      "inputs": [
        {
          "name": "dataAddr",
          "type": "address"
        },
        {
          "name": "cards",
          "type": "uint256[]"
        }
      ],
      "name": "storePrivateCards",
      "outputs": [],
      "payable": false,
      "stateMutability": "nonpayable",
      "type": "function"
    },
    {
      "constant": false,
      "inputs": [
        {
          "name": "dataAddr",
          "type": "address"
        },
        {
          "name": "cards",
          "type": "uint256[]"
        },
        {
          "name": "targetAddr",
          "type": "address"
        }
      ],
      "name": "storePrivateDecryptCards",
      "outputs": [],
      "payable": false,
      "stateMutability": "nonpayable",
      "type": "function"
    },
    {
      "constant": false,
      "inputs": [
        {
          "name": "dataAddr",
          "type": "address"
        },
        {
          "name": "cards",
          "type": "uint256[]"
        }
      ],
      "name": "storePublicCards",
      "outputs": [],
      "payable": false,
      "stateMutability": "nonpayable",
      "type": "function"
    },
    {
      "constant": false,
      "inputs": [
        {
          "name": "dataAddr",
          "type": "address"
        },
        {
          "name": "cards",
          "type": "uint256[]"
        }
      ],
      "name": "storePublicDecryptCards",
      "outputs": [],
      "payable": false,
      "stateMutability": "nonpayable",
      "type": "function"
    }
  ],
  "bytecode": "0x608060405234801561001057600080fd5b50336000806101000a81548173ffffffffffffffffffffffffffffffffffffffff021916908373ffffffffffffffffffffffffffffffffffffffff1602179055506142fc806100606000396000f3fe608060405234801561001057600080fd5b50600436106100885760003560e01c80638da5cb5b1161005b5780638da5cb5b146103a1578063c4954eda146103eb578063d1dd0c49146104c3578063e035aeb81461059b57610088565b8063467329a11461008d578063582762b4146101655780636b8ab97d1461025d57806377643ae1146102a1575b600080fd5b610163600480360360408110156100a357600080fd5b81019080803573ffffffffffffffffffffffffffffffffffffffff169060200190929190803590602001906401000000008111156100e057600080fd5b8201836020820111156100f257600080fd5b8035906020019184602083028401116401000000008311171561011457600080fd5b919080806020026020016040519081016040528093929190818152602001838360200280828437600081840152601f19601f820116905080830192505050505050509192919290505050610673565b005b61025b6004803603606081101561017b57600080fd5b81019080803573ffffffffffffffffffffffffffffffffffffffff169060200190929190803590602001906401000000008111156101b857600080fd5b8201836020820111156101ca57600080fd5b803590602001918460208302840111640100000000831117156101ec57600080fd5b919080806020026020016040519081016040528093929190818152602001838360200280828437600081840152601f19601f820116905080830192505050505050509192919290803573ffffffffffffffffffffffffffffffffffffffff169060200190929190505050611059565b005b61029f6004803603602081101561027357600080fd5b81019080803573ffffffffffffffffffffffffffffffffffffffff169060200190929190505050611793565b005b61039f600480360360c08110156102b757600080fd5b81019080803590602001906401000000008111156102d457600080fd5b8201836020820111156102e657600080fd5b8035906020019184602083028401116401000000008311171561030857600080fd5b919080806020026020016040519081016040528093929190818152602001838360200280828437600081840152601f19601f82011690508083019250505050505050919291929080359060200190929190803590602001909291908035906020019092919080359060200190929190803573ffffffffffffffffffffffffffffffffffffffff169060200190929190505050612bb9565b005b6103a9612f75565b604051808273ffffffffffffffffffffffffffffffffffffffff1673ffffffffffffffffffffffffffffffffffffffff16815260200191505060405180910390f35b6104c16004803603604081101561040157600080fd5b81019080803573ffffffffffffffffffffffffffffffffffffffff1690602001909291908035906020019064010000000081111561043e57600080fd5b82018360208201111561045057600080fd5b8035906020019184602083028401116401000000008311171561047257600080fd5b919080806020026020016040519081016040528093929190818152602001838360200280828437600081840152601f19601f820116905080830192505050505050509192919290505050612f9a565b005b610599600480360360408110156104d957600080fd5b81019080803573ffffffffffffffffffffffffffffffffffffffff1690602001909291908035906020019064010000000081111561051657600080fd5b82018360208201111561052857600080fd5b8035906020019184602083028401116401000000008311171561054a57600080fd5b919080806020026020016040519081016040528093929190818152602001838360200280828437600081840152601f19601f8201169050808301925050505050505091929192905050506133e3565b005b610671600480360360408110156105b157600080fd5b81019080803573ffffffffffffffffffffffffffffffffffffffff169060200190929190803590602001906401000000008111156105ee57600080fd5b82018360208201111561060057600080fd5b8035906020019184602083028401116401000000008311171561062257600080fd5b919080806020026020016040519081016040528093929190818152602001838360200280828437600081840152601f19601f82011690508083019250505050505050919291929050505061382b565b005b6000829050600115158173ffffffffffffffffffffffffffffffffffffffff1663a5b8f210336040518263ffffffff1660e01b8152600401808273ffffffffffffffffffffffffffffffffffffffff1673ffffffffffffffffffffffffffffffffffffffff16815260200191505060206040518083038186803b1580156106f957600080fd5b505afa15801561070d573d6000803e3d6000fd5b505050506040513d602081101561072357600080fd5b810190808051906020019092919050505015151461074057600080fd5b60068173ffffffffffffffffffffffffffffffffffffffff1663c842fc13336040518263ffffffff1660e01b8152600401808273ffffffffffffffffffffffffffffffffffffffff1673ffffffffffffffffffffffffffffffffffffffff16815260200191505060206040518083038186803b1580156107bf57600080fd5b505afa1580156107d3573d6000803e3d6000fd5b505050506040513d60208110156107e957600080fd5b810190808051906020019092919050505060ff16141580156108c6575060098173ffffffffffffffffffffffffffffffffffffffff1663c842fc13336040518263ffffffff1660e01b8152600401808273ffffffffffffffffffffffffffffffffffffffff1673ffffffffffffffffffffffffffffffffffffffff16815260200191505060206040518083038186803b15801561088557600080fd5b505afa158015610899573d6000803e3d6000fd5b505050506040513d60208110156108af57600080fd5b810190808051906020019092919050505060ff1614155b801561098d5750600c8173ffffffffffffffffffffffffffffffffffffffff1663c842fc13336040518263ffffffff1660e01b8152600401808273ffffffffffffffffffffffffffffffffffffffff1673ffffffffffffffffffffffffffffffffffffffff16815260200191505060206040518083038186803b15801561094c57600080fd5b505afa158015610960573d6000803e3d6000fd5b505050506040513d602081101561097657600080fd5b810190808051906020019092919050505060ff1614155b1561099757600080fd5b60068173ffffffffffffffffffffffffffffffffffffffff1663c842fc13336040518263ffffffff1660e01b8152600401808273ffffffffffffffffffffffffffffffffffffffff1673ffffffffffffffffffffffffffffffffffffffff16815260200191505060206040518083038186803b158015610a1657600080fd5b505afa158015610a2a573d6000803e3d6000fd5b505050506040513d6020811015610a4057600080fd5b810190808051906020019092919050505060ff16148015610a6357506003825114155b15610a6d57600080fd5b60068173ffffffffffffffffffffffffffffffffffffffff1663c842fc13336040518263ffffffff1660e01b8152600401808273ffffffffffffffffffffffffffffffffffffffff1673ffffffffffffffffffffffffffffffffffffffff16815260200191505060206040518083038186803b158015610aec57600080fd5b505afa158015610b00573d6000803e3d6000fd5b505050506040513d6020811015610b1657600080fd5b810190808051906020019092919050505060ff1614158015610b3a57506001825114155b15610b4457600080fd5b8073ffffffffffffffffffffffffffffffffffffffff1663115e616433846040518363ffffffff1660e01b8152600401808373ffffffffffffffffffffffffffffffffffffffff1673ffffffffffffffffffffffffffffffffffffffff16815260200180602001828103825283818151815260200191508051906020019060200280838360005b83811015610be6578082015181840152602081019050610bcb565b505050509050019350505050600060405180830381600087803b158015610c0c57600080fd5b505af1158015610c20573d6000803e3d6000fd5b505050506000808273ffffffffffffffffffffffffffffffffffffffff166395c7ffd76040518163ffffffff1660e01b8152600401604080518083038186803b158015610c6c57600080fd5b505afa158015610c80573d6000803e3d6000fd5b505050506040513d6040811015610c9657600080fd5b8101908080519060200190929190805190602001909291905050509150915060018373ffffffffffffffffffffffffffffffffffffffff166350d9e6856040518163ffffffff1660e01b815260040160206040518083038186803b158015610cfd57600080fd5b505afa158015610d11573d6000803e3d6000fd5b505050506040513d6020811015610d2757600080fd5b8101908080519060200190929190505050038114156110525760008090505b8373ffffffffffffffffffffffffffffffffffffffff166350d9e6856040518163ffffffff1660e01b815260040160206040518083038186803b158015610d8c57600080fd5b505afa158015610da0573d6000803e3d6000fd5b505050506040513d6020811015610db657600080fd5b8101908080519060200190929190505050811015611050578373ffffffffffffffffffffffffffffffffffffffff166343f97e9e8573ffffffffffffffffffffffffffffffffffffffff1663f71d96cb846040518263ffffffff1660e01b81526004018082815260200191505060206040518083038186803b158015610e3b57600080fd5b505afa158015610e4f573d6000803e3d6000fd5b505050506040513d6020811015610e6557600080fd5b810190808051906020019092919050505060018773ffffffffffffffffffffffffffffffffffffffff1663c842fc138973ffffffffffffffffffffffffffffffffffffffff1663f71d96cb886040518263ffffffff1660e01b81526004018082815260200191505060206040518083038186803b158015610ee557600080fd5b505afa158015610ef9573d6000803e3d6000fd5b505050506040513d6020811015610f0f57600080fd5b81019080805190602001909291905050506040518263ffffffff1660e01b8152600401808273ffffffffffffffffffffffffffffffffffffffff1673ffffffffffffffffffffffffffffffffffffffff16815260200191505060206040518083038186803b158015610f8057600080fd5b505afa158015610f94573d6000803e3d6000fd5b505050506040513d6020811015610faa57600080fd5b8101908080519060200190929190505050016040518363ffffffff1660e01b8152600401808373ffffffffffffffffffffffffffffffffffffffff1673ffffffffffffffffffffffffffffffffffffffff1681526020018260ff1660ff16815260200192505050600060405180830381600087803b15801561102b57600080fd5b505af115801561103f573d6000803e3d6000fd5b505050508080600101915050610d46565b505b5050505050565b6000839050600115158173ffffffffffffffffffffffffffffffffffffffff1663a5b8f210336040518263ffffffff1660e01b8152600401808273ffffffffffffffffffffffffffffffffffffffff1673ffffffffffffffffffffffffffffffffffffffff16815260200191505060206040518083038186803b1580156110df57600080fd5b505afa1580156110f3573d6000803e3d6000fd5b505050506040513d602081101561110957600080fd5b810190808051906020019092919050505015151461112657600080fd5b600115158173ffffffffffffffffffffffffffffffffffffffff1663a5b8f210846040518263ffffffff1660e01b8152600401808273ffffffffffffffffffffffffffffffffffffffff1673ffffffffffffffffffffffffffffffffffffffff16815260200191505060206040518083038186803b1580156111a757600080fd5b505afa1580156111bb573d6000803e3d6000fd5b505050506040513d60208110156111d157600080fd5b81019080805190602001909291905050501515146111ee57600080fd5b60038173ffffffffffffffffffffffffffffffffffffffff1663c842fc13846040518263ffffffff1660e01b8152600401808273ffffffffffffffffffffffffffffffffffffffff1673ffffffffffffffffffffffffffffffffffffffff16815260200191505060206040518083038186803b15801561126d57600080fd5b505afa158015611281573d6000803e3d6000fd5b505050506040513d602081101561129757600080fd5b810190808051906020019092919050505060ff16146112b557600080fd5b8073ffffffffffffffffffffffffffffffffffffffff1663e33933dc3385856040518463ffffffff1660e01b8152600401808473ffffffffffffffffffffffffffffffffffffffff1673ffffffffffffffffffffffffffffffffffffffff168152602001806020018373ffffffffffffffffffffffffffffffffffffffff1673ffffffffffffffffffffffffffffffffffffffff168152602001828103825284818151815260200191508051906020019060200280838360005b8381101561138a57808201518184015260208101905061136f565b50505050905001945050505050600060405180830381600087803b1580156113b157600080fd5b505af11580156113c5573d6000803e3d6000fd5b50505050600080905060008090505b8273ffffffffffffffffffffffffffffffffffffffff166350d9e6856040518163ffffffff1660e01b815260040160206040518083038186803b15801561141a57600080fd5b505afa15801561142e573d6000803e3d6000fd5b505050506040513d602081101561144457600080fd5b81019080805190602001909291905050508110156115f15760028373ffffffffffffffffffffffffffffffffffffffff166375111df68573ffffffffffffffffffffffffffffffffffffffff1663f71d96cb856040518263ffffffff1660e01b81526004018082815260200191505060206040518083038186803b1580156114cb57600080fd5b505afa1580156114df573d6000803e3d6000fd5b505050506040513d60208110156114f557600080fd5b8101908080519060200190929190505050876040518363ffffffff1660e01b8152600401808373ffffffffffffffffffffffffffffffffffffffff1673ffffffffffffffffffffffffffffffffffffffff1681526020018273ffffffffffffffffffffffffffffffffffffffff1673ffffffffffffffffffffffffffffffffffffffff1681526020019250505060206040518083038186803b15801561159a57600080fd5b505afa1580156115ae573d6000803e3d6000fd5b505050506040513d60208110156115c457600080fd5b810190808051906020019092919050505014156115e45781806001019250505b80806001019150506113d4565b5060018273ffffffffffffffffffffffffffffffffffffffff166350d9e6856040518163ffffffff1660e01b815260040160206040518083038186803b15801561163a57600080fd5b505afa15801561164e573d6000803e3d6000fd5b505050506040513d602081101561166457600080fd5b810190808051906020019092919050505003811415611721578173ffffffffffffffffffffffffffffffffffffffff166343f97e9e8460046040518363ffffffff1660e01b8152600401808373ffffffffffffffffffffffffffffffffffffffff1673ffffffffffffffffffffffffffffffffffffffff1681526020018260ff16815260200192505050600060405180830381600087803b15801561170857600080fd5b505af115801561171c573d6000803e3d6000fd5b505050505b8173ffffffffffffffffffffffffffffffffffffffff166362be90b0436040518263ffffffff1660e01b815260040180828152602001915050600060405180830381600087803b15801561177457600080fd5b505af1158015611788573d6000803e3d6000fd5b505050505050505050565b6000819050600015158173ffffffffffffffffffffffffffffffffffffffff1663522e11776040518163ffffffff1660e01b815260040160206040518083038186803b1580156117e257600080fd5b505afa1580156117f6573d6000803e3d6000fd5b505050506040513d602081101561180c57600080fd5b81019080805190602001909291905050501515141561182a57600080fd5b606060008090505b8273ffffffffffffffffffffffffffffffffffffffff166350d9e6856040518163ffffffff1660e01b815260040160206040518083038186803b15801561187857600080fd5b505afa15801561188c573d6000803e3d6000fd5b505050506040513d60208110156118a257600080fd5b810190808051906020019092919050505081101561268b578273ffffffffffffffffffffffffffffffffffffffff166334b0d0f58473ffffffffffffffffffffffffffffffffffffffff1663f71d96cb846040518263ffffffff1660e01b81526004018082815260200191505060206040518083038186803b15801561192757600080fd5b505afa15801561193b573d6000803e3d6000fd5b505050506040513d602081101561195157600080fd5b810190808051906020019092919050505060006040518363ffffffff1660e01b8152600401808373ffffffffffffffffffffffffffffffffffffffff1673ffffffffffffffffffffffffffffffffffffffff1681526020018215151515815260200192505050600060405180830381600087803b1580156119d157600080fd5b505af11580156119e5573d6000803e3d6000fd5b505050508273ffffffffffffffffffffffffffffffffffffffff16632b0984308473ffffffffffffffffffffffffffffffffffffffff1663f71d96cb846040518263ffffffff1660e01b81526004018082815260200191505060206040518083038186803b158015611a5657600080fd5b505afa158015611a6a573d6000803e3d6000fd5b505050506040513d6020811015611a8057600080fd5b810190808051906020019092919050505060006040518363ffffffff1660e01b8152600401808373ffffffffffffffffffffffffffffffffffffffff1673ffffffffffffffffffffffffffffffffffffffff16815260200182815260200192505050600060405180830381600087803b158015611afc57600080fd5b505af1158015611b10573d6000803e3d6000fd5b505050508273ffffffffffffffffffffffffffffffffffffffff1663af94b0758473ffffffffffffffffffffffffffffffffffffffff1663f71d96cb846040518263ffffffff1660e01b81526004018082815260200191505060206040518083038186803b158015611b8157600080fd5b505afa158015611b95573d6000803e3d6000fd5b505050506040513d6020811015611bab57600080fd5b810190808051906020019092919050505060006040518363ffffffff1660e01b8152600401808373ffffffffffffffffffffffffffffffffffffffff1673ffffffffffffffffffffffffffffffffffffffff16815260200182815260200192505050600060405180830381600087803b158015611c2757600080fd5b505af1158015611c3b573d6000803e3d6000fd5b505050508273ffffffffffffffffffffffffffffffffffffffff1663ea1a0f528473ffffffffffffffffffffffffffffffffffffffff1663f71d96cb846040518263ffffffff1660e01b81526004018082815260200191505060206040518083038186803b158015611cac57600080fd5b505afa158015611cc0573d6000803e3d6000fd5b505050506040513d6020811015611cd657600080fd5b810190808051906020019092919050505060006040518363ffffffff1660e01b8152600401808373ffffffffffffffffffffffffffffffffffffffff1673ffffffffffffffffffffffffffffffffffffffff1681526020018215151515815260200192505050600060405180830381600087803b158015611d5657600080fd5b505af1158015611d6a573d6000803e3d6000fd5b505050508273ffffffffffffffffffffffffffffffffffffffff1663687241188473ffffffffffffffffffffffffffffffffffffffff1663f71d96cb846040518263ffffffff1660e01b81526004018082815260200191505060206040518083038186803b158015611ddb57600080fd5b505afa158015611def573d6000803e3d6000fd5b505050506040513d6020811015611e0557600080fd5b81019080805190602001909291905050506040518263ffffffff1660e01b8152600401808273ffffffffffffffffffffffffffffffffffffffff1673ffffffffffffffffffffffffffffffffffffffff168152602001915050600060405180830381600087803b158015611e7857600080fd5b505af1158015611e8c573d6000803e3d6000fd5b505050508273ffffffffffffffffffffffffffffffffffffffff166382b3072c8473ffffffffffffffffffffffffffffffffffffffff1663f71d96cb846040518263ffffffff1660e01b81526004018082815260200191505060206040518083038186803b158015611efd57600080fd5b505afa158015611f11573d6000803e3d6000fd5b505050506040513d6020811015611f2757600080fd5b8101908080519060200190929190505050846040518363ffffffff1660e01b8152600401808373ffffffffffffffffffffffffffffffffffffffff1673ffffffffffffffffffffffffffffffffffffffff16815260200180602001828103825283818151815260200191508051906020019060200280838360005b83811015611fbd578082015181840152602081019050611fa2565b505050509050019350505050600060405180830381600087803b158015611fe357600080fd5b505af1158015611ff7573d6000803e3d6000fd5b505050508273ffffffffffffffffffffffffffffffffffffffff16636149b4018473ffffffffffffffffffffffffffffffffffffffff1663f71d96cb846040518263ffffffff1660e01b81526004018082815260200191505060206040518083038186803b15801561206857600080fd5b505afa15801561207c573d6000803e3d6000fd5b505050506040513d602081101561209257600080fd5b8101908080519060200190929190505050846040518363ffffffff1660e01b8152600401808373ffffffffffffffffffffffffffffffffffffffff1673ffffffffffffffffffffffffffffffffffffffff16815260200180602001828103825283818151815260200191508051906020019060200280838360005b8381101561212857808201518184015260208101905061210d565b505050509050019350505050600060405180830381600087803b15801561214e57600080fd5b505af1158015612162573d6000803e3d6000fd5b505050508273ffffffffffffffffffffffffffffffffffffffff1663115e61648473ffffffffffffffffffffffffffffffffffffffff1663f71d96cb846040518263ffffffff1660e01b81526004018082815260200191505060206040518083038186803b1580156121d357600080fd5b505afa1580156121e7573d6000803e3d6000fd5b505050506040513d60208110156121fd57600080fd5b8101908080519060200190929190505050846040518363ffffffff1660e01b8152600401808373ffffffffffffffffffffffffffffffffffffffff1673ffffffffffffffffffffffffffffffffffffffff16815260200180602001828103825283818151815260200191508051906020019060200280838360005b83811015612293578082015181840152602081019050612278565b505050509050019350505050600060405180830381600087803b1580156122b957600080fd5b505af11580156122cd573d6000803e3d6000fd5b505050508273ffffffffffffffffffffffffffffffffffffffff16634f36b2558473ffffffffffffffffffffffffffffffffffffffff1663f71d96cb846040518263ffffffff1660e01b81526004018082815260200191505060206040518083038186803b15801561233e57600080fd5b505afa158015612352573d6000803e3d6000fd5b505050506040513d602081101561236857600080fd5b810190808051906020019092919050505060006040518363ffffffff1660e01b8152600401808373ffffffffffffffffffffffffffffffffffffffff1673ffffffffffffffffffffffffffffffffffffffff16815260200182815260200192505050600060405180830381600087803b1580156123e457600080fd5b505af11580156123f8573d6000803e3d6000fd5b505050508273ffffffffffffffffffffffffffffffffffffffff1663a2bf39858473ffffffffffffffffffffffffffffffffffffffff1663f71d96cb846040518263ffffffff1660e01b81526004018082815260200191505060206040518083038186803b15801561246957600080fd5b505afa15801561247d573d6000803e3d6000fd5b505050506040513d602081101561249357600080fd5b810190808051906020019092919050505060006040518363ffffffff1660e01b8152600401808373ffffffffffffffffffffffffffffffffffffffff1673ffffffffffffffffffffffffffffffffffffffff16815260200182815260200192505050600060405180830381600087803b15801561250f57600080fd5b505af1158015612523573d6000803e3d6000fd5b505050508273ffffffffffffffffffffffffffffffffffffffff1663823337498473ffffffffffffffffffffffffffffffffffffffff1663f71d96cb846040518263ffffffff1660e01b81526004018082815260200191505060206040518083038186803b15801561259457600080fd5b505afa1580156125a8573d6000803e3d6000fd5b505050506040513d60208110156125be57600080fd5b810190808051906020019092919050505060006040518363ffffffff1660e01b8152600401808373ffffffffffffffffffffffffffffffffffffffff1673ffffffffffffffffffffffffffffffffffffffff1681526020018273ffffffffffffffffffffffffffffffffffffffff1673ffffffffffffffffffffffffffffffffffffffff16815260200192505050600060405180830381600087803b15801561266657600080fd5b505af115801561267a573d6000803e3d6000fd5b505050508080600101915050611832565b508173ffffffffffffffffffffffffffffffffffffffff166399be429360006040518263ffffffff1660e01b81526004018082151515158152602001915050600060405180830381600087803b1580156126e457600080fd5b505af11580156126f8573d6000803e3d6000fd5b505050508173ffffffffffffffffffffffffffffffffffffffff166380a107e360006040518263ffffffff1660e01b815260040180828152602001915050600060405180830381600087803b15801561275057600080fd5b505af1158015612764573d6000803e3d6000fd5b505050508173ffffffffffffffffffffffffffffffffffffffff1663a64ae69b60006040518263ffffffff1660e01b815260040180828152602001915050600060405180830381600087803b1580156127bc57600080fd5b505af11580156127d0573d6000803e3d6000fd5b505050508173ffffffffffffffffffffffffffffffffffffffff16631f59446f6040518163ffffffff1660e01b8152600401600060405180830381600087803b15801561281c57600080fd5b505af1158015612830573d6000803e3d6000fd5b505050508173ffffffffffffffffffffffffffffffffffffffff166362be90b060006040518263ffffffff1660e01b815260040180828152602001915050600060405180830381600087803b15801561288857600080fd5b505af115801561289c573d6000803e3d6000fd5b505050508173ffffffffffffffffffffffffffffffffffffffff1663e33933dc338360006040518463ffffffff1660e01b8152600401808473ffffffffffffffffffffffffffffffffffffffff1673ffffffffffffffffffffffffffffffffffffffff168152602001806020018373ffffffffffffffffffffffffffffffffffffffff1673ffffffffffffffffffffffffffffffffffffffff168152602001828103825284818151815260200191508051906020019060200280838360005b8381101561297657808201518184015260208101905061295b565b50505050905001945050505050600060405180830381600087803b15801561299d57600080fd5b505af11580156129b1573d6000803e3d6000fd5b505050508173ffffffffffffffffffffffffffffffffffffffff166392f3fdc533836040518363ffffffff1660e01b8152600401808373ffffffffffffffffffffffffffffffffffffffff1673ffffffffffffffffffffffffffffffffffffffff16815260200180602001828103825283818151815260200191508051906020019060200280838360005b83811015612a57578082015181840152602081019050612a3c565b505050509050019350505050600060405180830381600087803b158015612a7d57600080fd5b505af1158015612a91573d6000803e3d6000fd5b505050508173ffffffffffffffffffffffffffffffffffffffff16637dd25c1f60006040518263ffffffff1660e01b81526004018082151515158152602001915050600060405180830381600087803b158015612aed57600080fd5b505af1158015612b01573d6000803e3d6000fd5b5050505060608273ffffffffffffffffffffffffffffffffffffffff16639f9cf361826040518263ffffffff1660e01b81526004018080602001828103825283818151815260200191508051906020019060200280838360005b83811015612b76578082015181840152602081019050612b5b565b5050505090500192505050600060405180830381600087803b158015612b9b57600080fd5b505af1158015612baf573d6000803e3d6000fd5b5050505050505050565b6000819050600015158173ffffffffffffffffffffffffffffffffffffffff16632f815c646040518163ffffffff1660e01b815260040160206040518083038186803b158015612c0857600080fd5b505afa158015612c1c573d6000803e3d6000fd5b505050506040513d6020811015612c3257600080fd5b810190808051906020019092919050505015151415612c5057600080fd5b600287511015612c5f57600080fd5b6002861015612c6d57600080fd5b6000841415612c7b57600080fd5b600c831015612c8957600c92505b8073ffffffffffffffffffffffffffffffffffffffff166380a107e360006040518263ffffffff1660e01b815260040180828152602001915050600060405180830381600087803b158015612cdd57600080fd5b505af1158015612cf1573d6000803e3d6000fd5b505050508073ffffffffffffffffffffffffffffffffffffffff1663a64ae69b60006040518263ffffffff1660e01b815260040180828152602001915050600060405180830381600087803b158015612d4957600080fd5b505af1158015612d5d573d6000803e3d6000fd5b505050508073ffffffffffffffffffffffffffffffffffffffff16637dd25c1f60006040518263ffffffff1660e01b81526004018082151515158152602001915050600060405180830381600087803b158015612db957600080fd5b505af1158015612dcd573d6000803e3d6000fd5b505050508073ffffffffffffffffffffffffffffffffffffffff16639f9cf361886040518263ffffffff1660e01b81526004018080602001828103825283818151815260200191508051906020019060200280838360005b83811015612e40578082015181840152602081019050612e25565b5050505090500192505050600060405180830381600087803b158015612e6557600080fd5b505af1158015612e79573d6000803e3d6000fd5b505050508073ffffffffffffffffffffffffffffffffffffffff166362be90b060006040518263ffffffff1660e01b815260040180828152602001915050600060405180830381600087803b158015612ed157600080fd5b505af1158015612ee5573d6000803e3d6000fd5b505050508073ffffffffffffffffffffffffffffffffffffffff166360a2da44878787876040518563ffffffff1660e01b815260040180858152602001848152602001838152602001828152602001945050505050600060405180830381600087803b158015612f5457600080fd5b505af1158015612f68573d6000803e3d6000fd5b5050505050505050505050565b6000809054906101000a900473ffffffffffffffffffffffffffffffffffffffff1681565b6000829050600115158173ffffffffffffffffffffffffffffffffffffffff1663a5b8f210336040518263ffffffff1660e01b8152600401808273ffffffffffffffffffffffffffffffffffffffff1673ffffffffffffffffffffffffffffffffffffffff16815260200191505060206040518083038186803b15801561302057600080fd5b505afa158015613034573d6000803e3d6000fd5b505050506040513d602081101561304a57600080fd5b810190808051906020019092919050505015151461306757600080fd5b60018173ffffffffffffffffffffffffffffffffffffffff1663c842fc13336040518263ffffffff1660e01b8152600401808273ffffffffffffffffffffffffffffffffffffffff1673ffffffffffffffffffffffffffffffffffffffff16815260200191505060206040518083038186803b1580156130e657600080fd5b505afa1580156130fa573d6000803e3d6000fd5b505050506040513d602081101561311057600080fd5b810190808051906020019092919050505060ff16111561312f57600080fd5b8073ffffffffffffffffffffffffffffffffffffffff166382b3072c33846040518363ffffffff1660e01b8152600401808373ffffffffffffffffffffffffffffffffffffffff1673ffffffffffffffffffffffffffffffffffffffff16815260200180602001828103825283818151815260200191508051906020019060200280838360005b838110156131d15780820151818401526020810190506131b6565b505050509050019350505050600060405180830381600087803b1580156131f757600080fd5b505af115801561320b573d6000803e3d6000fd5b5050505060348173ffffffffffffffffffffffffffffffffffffffff1663af0a208a336040518263ffffffff1660e01b8152600401808273ffffffffffffffffffffffffffffffffffffffff1673ffffffffffffffffffffffffffffffffffffffff16815260200191505060206040518083038186803b15801561328e57600080fd5b505afa1580156132a2573d6000803e3d6000fd5b505050506040513d60208110156132b857600080fd5b81019080805190602001909291905050501415613373578073ffffffffffffffffffffffffffffffffffffffff166343f97e9e3360026040518363ffffffff1660e01b8152600401808373ffffffffffffffffffffffffffffffffffffffff1673ffffffffffffffffffffffffffffffffffffffff1681526020018260ff16815260200192505050600060405180830381600087803b15801561335a57600080fd5b505af115801561336e573d6000803e3d6000fd5b505050505b8073ffffffffffffffffffffffffffffffffffffffff166362be90b0436040518263ffffffff1660e01b815260040180828152602001915050600060405180830381600087803b1580156133c657600080fd5b505af11580156133da573d6000803e3d6000fd5b50505050505050565b6000829050600115158173ffffffffffffffffffffffffffffffffffffffff1663a5b8f210336040518263ffffffff1660e01b8152600401808273ffffffffffffffffffffffffffffffffffffffff1673ffffffffffffffffffffffffffffffffffffffff16815260200191505060206040518083038186803b15801561346957600080fd5b505afa15801561347d573d6000803e3d6000fd5b505050506040513d602081101561349357600080fd5b81019080805190602001909291905050501515146134b057600080fd5b60028173ffffffffffffffffffffffffffffffffffffffff1663c842fc13336040518263ffffffff1660e01b8152600401808273ffffffffffffffffffffffffffffffffffffffff1673ffffffffffffffffffffffffffffffffffffffff16815260200191505060206040518083038186803b15801561352f57600080fd5b505afa158015613543573d6000803e3d6000fd5b505050506040513d602081101561355957600080fd5b810190808051906020019092919050505060ff161461357757600080fd5b8073ffffffffffffffffffffffffffffffffffffffff16636149b40133846040518363ffffffff1660e01b8152600401808373ffffffffffffffffffffffffffffffffffffffff1673ffffffffffffffffffffffffffffffffffffffff16815260200180602001828103825283818151815260200191508051906020019060200280838360005b838110156136195780820151818401526020810190506135fe565b505050509050019350505050600060405180830381600087803b15801561363f57600080fd5b505af1158015613653573d6000803e3d6000fd5b5050505060028173ffffffffffffffffffffffffffffffffffffffff16634bc883df336040518263ffffffff1660e01b8152600401808273ffffffffffffffffffffffffffffffffffffffff1673ffffffffffffffffffffffffffffffffffffffff16815260200191505060206040518083038186803b1580156136d657600080fd5b505afa1580156136ea573d6000803e3d6000fd5b505050506040513d602081101561370057600080fd5b810190808051906020019092919050505014156137bb578073ffffffffffffffffffffffffffffffffffffffff166343f97e9e3360036040518363ffffffff1660e01b8152600401808373ffffffffffffffffffffffffffffffffffffffff1673ffffffffffffffffffffffffffffffffffffffff1681526020018260ff16815260200192505050600060405180830381600087803b1580156137a257600080fd5b505af11580156137b6573d6000803e3d6000fd5b505050505b8073ffffffffffffffffffffffffffffffffffffffff166362be90b0436040518263ffffffff1660e01b815260040180828152602001915050600060405180830381600087803b15801561380e57600080fd5b505af1158015613822573d6000803e3d6000fd5b50505050505050565b60008290508073ffffffffffffffffffffffffffffffffffffffff1663f71d96cb60018373ffffffffffffffffffffffffffffffffffffffff166350d9e6856040518163ffffffff1660e01b815260040160206040518083038186803b15801561389457600080fd5b505afa1580156138a8573d6000803e3d6000fd5b505050506040513d60208110156138be57600080fd5b8101908080519060200190929190505050036040518263ffffffff1660e01b81526004018082815260200191505060206040518083038186803b15801561390457600080fd5b505afa158015613918573d6000803e3d6000fd5b505050506040513d602081101561392e57600080fd5b810190808051906020019092919050505073ffffffffffffffffffffffffffffffffffffffff163373ffffffffffffffffffffffffffffffffffffffff161461397657600080fd5b600115158173ffffffffffffffffffffffffffffffffffffffff1663a5b8f210336040518263ffffffff1660e01b8152600401808273ffffffffffffffffffffffffffffffffffffffff1673ffffffffffffffffffffffffffffffffffffffff16815260200191505060206040518083038186803b1580156139f757600080fd5b505afa158015613a0b573d6000803e3d6000fd5b505050506040513d6020811015613a2157600080fd5b8101908080519060200190929190505050151514613a3e57600080fd5b600015158173ffffffffffffffffffffffffffffffffffffffff16639b1ac0ef60056040518263ffffffff1660e01b81526004018082815260200191505060206040518083038186803b158015613a9457600080fd5b505afa158015613aa8573d6000803e3d6000fd5b505050506040513d6020811015613abe57600080fd5b81019080805190602001909291905050501515148015613b6e5750600015158173ffffffffffffffffffffffffffffffffffffffff16639b1ac0ef60086040518263ffffffff1660e01b81526004018082815260200191505060206040518083038186803b158015613b2f57600080fd5b505afa158015613b43573d6000803e3d6000fd5b505050506040513d6020811015613b5957600080fd5b81019080805190602001909291905050501515145b8015613c0a5750600015158173ffffffffffffffffffffffffffffffffffffffff16639b1ac0ef600b6040518263ffffffff1660e01b81526004018082815260200191505060206040518083038186803b158015613bcb57600080fd5b505afa158015613bdf573d6000803e3d6000fd5b505050506040513d6020811015613bf557600080fd5b81019080805190602001909291905050501515145b15613c1457600080fd5b8073ffffffffffffffffffffffffffffffffffffffff16639b1ac0ef60056040518263ffffffff1660e01b81526004018082815260200191505060206040518083038186803b158015613c6657600080fd5b505afa158015613c7a573d6000803e3d6000fd5b505050506040513d6020811015613c9057600080fd5b81019080805190602001909291905050508015613d30575060038173ffffffffffffffffffffffffffffffffffffffff166305e80dcb6040518163ffffffff1660e01b815260040160206040518083038186803b158015613cf057600080fd5b505afa158015613d04573d6000803e3d6000fd5b505050506040513d6020811015613d1a57600080fd5b8101908080519060200190929190505050835101115b15613d3a57600080fd5b600015158173ffffffffffffffffffffffffffffffffffffffff16639b1ac0ef60056040518263ffffffff1660e01b81526004018082815260200191505060206040518083038186803b158015613d9057600080fd5b505afa158015613da4573d6000803e3d6000fd5b505050506040513d6020811015613dba57600080fd5b81019080805190602001909291905050501515148015613ddb575060018251115b15613de557600080fd5b8073ffffffffffffffffffffffffffffffffffffffff166392f3fdc533846040518363ffffffff1660e01b8152600401808373ffffffffffffffffffffffffffffffffffffffff1673ffffffffffffffffffffffffffffffffffffffff16815260200180602001828103825283818151815260200191508051906020019060200280838360005b83811015613e87578082015181840152602081019050613e6c565b505050509050019350505050600060405180830381600087803b158015613ead57600080fd5b505af1158015613ec1573d6000803e3d6000fd5b5050505060028173ffffffffffffffffffffffffffffffffffffffff166305e80dcb6040518163ffffffff1660e01b815260040160206040518083038186803b158015613f0d57600080fd5b505afa158015613f21573d6000803e3d6000fd5b505050506040513d6020811015613f3757600080fd5b810190808051906020019092919050505011156142605760008090505b8173ffffffffffffffffffffffffffffffffffffffff166350d9e6856040518163ffffffff1660e01b815260040160206040518083038186803b158015613f9a57600080fd5b505afa158015613fae573d6000803e3d6000fd5b505050506040513d6020811015613fc457600080fd5b810190808051906020019092919050505081101561425e578173ffffffffffffffffffffffffffffffffffffffff166343f97e9e8373ffffffffffffffffffffffffffffffffffffffff1663f71d96cb846040518263ffffffff1660e01b81526004018082815260200191505060206040518083038186803b15801561404957600080fd5b505afa15801561405d573d6000803e3d6000fd5b505050506040513d602081101561407357600080fd5b810190808051906020019092919050505060018573ffffffffffffffffffffffffffffffffffffffff1663c842fc138773ffffffffffffffffffffffffffffffffffffffff1663f71d96cb886040518263ffffffff1660e01b81526004018082815260200191505060206040518083038186803b1580156140f357600080fd5b505afa158015614107573d6000803e3d6000fd5b505050506040513d602081101561411d57600080fd5b81019080805190602001909291905050506040518263ffffffff1660e01b8152600401808273ffffffffffffffffffffffffffffffffffffffff1673ffffffffffffffffffffffffffffffffffffffff16815260200191505060206040518083038186803b15801561418e57600080fd5b505afa1580156141a2573d6000803e3d6000fd5b505050506040513d60208110156141b857600080fd5b8101908080519060200190929190505050016040518363ffffffff1660e01b8152600401808373ffffffffffffffffffffffffffffffffffffffff1673ffffffffffffffffffffffffffffffffffffffff1681526020018260ff1660ff16815260200192505050600060405180830381600087803b15801561423957600080fd5b505af115801561424d573d6000803e3d6000fd5b505050508080600101915050613f54565b505b8073ffffffffffffffffffffffffffffffffffffffff166362be90b0436040518263ffffffff1660e01b815260040180828152602001915050600060405180830381600087803b1580156142b357600080fd5b505af11580156142c7573d6000803e3d6000fd5b5050505050505056fea165627a7a72305820dfc785814131f9641c8bdc76e71baac52cf8e599693f5ddb22ec0e368da8cc980029",
  "source": "pragma solidity ^0.5.8;\r\n/**\r\n*\r\n* Manages game startup routines such as initialization and card dtorage for a single CypherPoker hand (round).\r\n* Most data operations are done on an external PokerHandData contract.\r\n*\r\n* (C)opyright 2016 to 2017\r\n*\r\n* This source code is protected by copyright and distributed under license.\r\n* Please see the root LICENSE file for terms and conditions.\r\n*\r\n*/\r\ncontract PokerHandStartup {\r\n\r\n    address public owner; //the contract's owner / publisher\r\n\r\n  /**\r\n\t* Contract constructor.\r\n\t*/\r\n\tconstructor() public {\r\n\t\towner = msg.sender;\r\n  }\r\n\r\n\t/**\r\n\t* Anonymous fallback function.\r\n\t*/\r\n\tfunction () external {\r\n          revert();\r\n    }\r\n\r\n\t/**\r\n\t * Attempts to initialize a PokerHandData contract.\r\n\t *\r\n\t * @param requiredPlayers The players required to agree to the contract before further interaction is allowed. The first player is considered the\r\n\t * dealer.\r\n\t * @param primeVal The shared prime modulus on which plaintext card values are based and from which encryption/decryption keys are derived.\r\n\t * @param baseCardVal The value of the base or first card of the plaintext deck. The next 51 ascending quadratic residues modulo primeVal are assumed to\r\n\t * comprise the remainder of the deck (see \"getCardIndex\" for calculations).\r\n\t * @param buyInVal The exact per-player buy-in value, in wei, that must be sent when agreeing to the contract. Must be greater than 0.\r\n\t * @param timeoutBlocksVal The number of blocks that elapse between the current block and lastActionBlock before the current valid player is\r\n\t * considered to have timed / dropped out if they haven't committed a valid action. A minimum of 2 blocks (roughly 24 seconds), is imposed but\r\n\t * a slightly higher value is highly recommended.\r\n\t * @param dataAddr The address of PokerHandData contract to initialize.\r\n\t *\r\n\t */\r\n\tfunction initialize(address[] memory requiredPlayers, uint256 primeVal, uint256 baseCardVal, uint256 buyInVal, uint timeoutBlocksVal, address dataAddr) public {\r\n\t\tPokerHandData handData = PokerHandData (dataAddr);\r\n\t\tif (handData.initReady() == false) {\r\n\t\t\trevert();\r\n\t\t}\r\n\t\tif (requiredPlayers.length < 2) {\r\n\t        revert();\r\n\t    }\r\n\t    if (primeVal < 2) {\r\n\t        revert();\r\n\t    }\r\n\t    if (buyInVal == 0) {\r\n\t        revert();\r\n\t    }\r\n\t    if (timeoutBlocksVal < 12) {\r\n\t        timeoutBlocksVal = 12;\r\n\t    }\r\n\t\thandData.set_pot(0);\r\n        handData.set_betPosition(0);\r\n        handData.set_complete (false);\r\n\t\thandData.new_players(requiredPlayers);\r\n\t\thandData.set_lastActionBlock(0);\r\n\t\thandData.initialize(primeVal, baseCardVal, buyInVal, timeoutBlocksVal);\r\n\t}\r\n\r\n\t/**\r\n\t * Resets the poker hand data contract so that it becomes available for re-use. Typically this function only needs to be used\r\n\t * when the data contract has been used in \"full\" mode (i.e. the game writes most of its data to the contract).\r\n\t *\r\n\t * The contract's 'complete' flag must be set to true prior to calling this function otherwise an exception is throw.\r\n\t *\r\n\t * @param dataAddr The address of the PokerHandData contract to reset.\r\n\t */\r\n\tfunction reset(address dataAddr) public {\r\n\t\tPokerHandData dataContract = PokerHandData(dataAddr);\r\n\t    if (dataContract.complete() == false) {\r\n\t        revert();\r\n\t    }\r\n      uint256[] memory emptySet;\r\n\t    for (uint count=0; count < dataContract.num_Players(); count++) {\r\n  \t\t\tdataContract.set_agreed(dataContract.players(count), false);\r\n  \t\t\tdataContract.set_playerBets(dataContract.players(count), 0);\r\n  \t    dataContract.set_playerChips(dataContract.players(count), 0);\r\n  \t\t\tdataContract.set_playerHasBet(dataContract.players(count), false);\r\n  \t    dataContract.remove_playerKeys(dataContract.players(count));\r\n  \t\t\tdataContract.set_encryptedDeck(dataContract.players(count), emptySet);\r\n  \t\t\tdataContract.set_privateCards(dataContract.players(count), emptySet);\r\n  \t    dataContract.set_publicDecryptCards(dataContract.players(count), emptySet);\r\n  \t    dataContract.set_result(dataContract.players(count), 0);\r\n  \t\t\tdataContract.set_validationIndex(dataContract.players(count), 0);\r\n  \t\t\tdataContract.add_declaredWinner(dataContract.players(count), address(0));\r\n\t    }\r\n\t\t  dataContract.set_bigBlindHasBet(false);\r\n  \t\tdataContract.set_pot(0);\r\n  \t\tdataContract.set_betPosition(0);\r\n  \t\tdataContract.clear_winner();\r\n  \t  dataContract.set_lastActionBlock(0);\r\n  \t\tdataContract.set_privateDecryptCards(msg.sender, emptySet, address(0));\r\n  \t\tdataContract.set_publicCards(msg.sender, emptySet);\r\n  \t\tdataContract.set_complete(false);\r\n  \t\taddress[] memory emptyAddrSet;\r\n  \t\tdataContract.new_players(emptyAddrSet);\t//clears players list and sets initReady to true (so call last)\r\n\t}\r\n\r\n\r\n  \t/**\r\n\t* Stores up to 52 encrypted cards of a full deck for a player. The player must have been specified during initialization, must have agreed,\r\n\t* and must be at phase 1. This function may be invoked multiple times by the same player during the encryption phase if transactions need\r\n\t* to be broken up into smaler units.\r\n\t*\r\n\t* @param dataAddr The address of a data contract that has authorized this contract to communicate.\r\n\t* @param cards The encrypted card values to store. Once 52 cards (and only 52 cards) have been stored the player's phase is updated.\r\n\t*/\r\n\tfunction storeEncryptedDeck(address dataAddr, uint256[] memory cards) public {\r\n\t\tPokerHandData dataStorage = PokerHandData(dataAddr);\r\n\t\tif (dataStorage.agreed(msg.sender) != true) {\r\n           revert();\r\n        }\r\n        if (dataStorage.phases(msg.sender) > 1) {\r\n           revert();\r\n        }\r\n\t\tdataStorage.set_encryptedDeck(msg.sender, cards);\r\n\t\tif (dataStorage.length_encryptedDeck(msg.sender) == 52) {\r\n            dataStorage.set_phase(msg.sender, 2);\r\n        }\r\n\t\tdataStorage.set_lastActionBlock(block.number);\r\n\t}\r\n\r\n\t/**\r\n\t * Stores up to 2 encrypted private or hole card selections for a player. The player must have been specified during initialization, must have agreed,\r\n \t * and must be at phase 2. This function may be invoked multiple times by the same player during the encryption phase if transactions need\r\n\t * to be broken up into smaler units.\r\n\t *\r\n\t * @param cards The encrypted card values to store. Once 2 cards (and only 2 cards) have been stored the player's phase is updated.\r\n\t */\r\n    function storePrivateCards(address dataAddr, uint256[] memory cards) public {\r\n\t\tPokerHandData dataStorage = PokerHandData(dataAddr);\r\n\t\tif (dataStorage.agreed(msg.sender) != true) {\r\n           revert();\r\n        }\r\n        if (dataStorage.phases(msg.sender) != 2) {\r\n           revert();\r\n        }\r\n\t\tdataStorage.set_privateCards(msg.sender, cards);\r\n\t\tif (dataStorage.num_PrivateCards(msg.sender) == 2) {\r\n            dataStorage.set_phase(msg.sender, 3);\r\n        }\r\n\t\tdataStorage.set_lastActionBlock(block.number);\r\n    }\r\n\r\n    /**\r\n\t * Stores up to 2 partially decrypted private or hole cards for a target player. Both sending and target players must have been specified during initialization,\r\n\t * must have agreed, and target must be at phase 3. This function may be invoked multiple times by the same player during the private/hold card decryption phase if transactions need\r\n\t * to be broken up into smaler units.\r\n\t *\r\n\t * @param cards The partially decrypted card values to store for the target player. Once 2 cards (and only 2 cards) have been stored by all other players for the target, the target's phase is\r\n\t * updated to 4.\r\n\t * @param targetAddr The address of the target player for whom the cards are being decrypted (the two cards are their private/hold cards).\r\n\t */\r\n    function storePrivateDecryptCards(address dataAddr, uint256[] memory cards, address targetAddr) public {\r\n\t\tPokerHandData dataStorage = PokerHandData(dataAddr);\r\n\t\tif (dataStorage.agreed(msg.sender) != true) {\r\n           revert();\r\n        }\r\n        if (dataStorage.agreed(targetAddr) != true) {\r\n           revert();\r\n        }\r\n\t\tif (dataStorage.phases(targetAddr) != 3) {\r\n           revert();\r\n        }\r\n\t\tdataStorage.set_privateDecryptCards(msg.sender, cards, targetAddr);\r\n\t\t//Checks whether all partially decrypted cards for a specific target player have been stored\r\n        //by all other players.\r\n\t\tuint cardGroupsStored = 0;\r\n\t\tfor (uint count=0; count < dataStorage.num_Players(); count++) {\r\n\t\t\tif (dataStorage.num_PrivateDecryptCards(dataStorage.players(count), targetAddr) == 2) {\r\n\t\t\t\t cardGroupsStored++;\r\n\t\t\t}\r\n\t\t}\r\n\t\t//partially decrypted cards should be stored by all players except the target\r\n        if (cardGroupsStored == (dataStorage.num_Players() - 1)) {\r\n            dataStorage.set_phase(targetAddr, 4);\r\n        }\r\n\t\tdataStorage.set_lastActionBlock(block.number);\r\n    }\r\n\r\n    /**\r\n\t* Stores the encrypted public or community card(s) for the hand. Currently only the dealer may store public/community card\r\n\t* selections to the contract.\r\n\t*\r\n\t* @param cards The encrypted public/community cards to store. The number of cards that may be stored depends on the\r\n\t* current player phases (all players). Three cards are stored at phase 5 (in multiple invocations if desired), and one card is stored at\r\n\t* phases 8 and 11.\r\n\t*/\r\n    function storePublicCards(address dataAddr, uint256[] memory cards) public {\r\n\t\tPokerHandData dataStorage = PokerHandData(dataAddr);\r\n\t\tif (msg.sender != dataStorage.players(dataStorage.num_Players()-1)) {\r\n\t        //not the dealer\r\n\t        revert();\r\n\t    }\r\n\t    if (dataStorage.agreed(msg.sender) != true) {\r\n           revert();\r\n        }\r\n        if ((dataStorage.allPlayersAtPhase(5) == false) && (dataStorage.allPlayersAtPhase(8) == false) && (dataStorage.allPlayersAtPhase(11) == false)) {\r\n            revert();\r\n        }\r\n        if ((dataStorage.allPlayersAtPhase(5)) && ((cards.length + dataStorage.num_PublicCards()) > 3)) {\r\n            //at phase 5 we can store a maximum of 3 cards\r\n            revert();\r\n        }\r\n        if ((dataStorage.allPlayersAtPhase(5) == false) && (cards.length > 1)) {\r\n            //at valid phases above 5 we can store a maximum of 1 card\r\n            revert();\r\n        }\r\n        dataStorage.set_publicCards(msg.sender, cards);\r\n        if (dataStorage.num_PublicCards() > 2) {\r\n            //phases are incremented at 3, 4, and 5 cards\r\n            for (uint count=0; count < dataStorage.num_Players(); count++) {\r\n                dataStorage.set_phase(dataStorage.players(count), dataStorage.phases(dataStorage.players(count)) + 1);\r\n            }\r\n        }\r\n\t\tdataStorage.set_lastActionBlock(block.number);\r\n\t}\r\n\r\n\t /**\r\n\t * Stores up to 5 partially decrypted public or community cards from a target player. The player must must have agreed to the\r\n\t * contract, and must be at phase 6, 9, or 12. Multiple invocations may be used to store cards during the multi-card\r\n\t * phase (6) if desired.\r\n\t *\r\n\t * In order to correlate decryptions during subsequent rounds cards are stored at matching indexes for players involved.\r\n\t * To illustrate this, in the following example players 1 and 2 decrypted the first three cards and players 2 and 3 decrypted the following\r\n\t * two cards:\r\n\t *\r\n\t * publicDecryptCards(player 1) = [0x32] [0x22] [0x5A] [ 0x0] [ 0x0] <- partially decrypted only the first three cards\r\n\t * publicDecryptCards(player 2) = [0x75] [0xF5] [0x9B] [0x67] [0xF1] <- partially decrypted all five cards\r\n\t * publicDecryptCards(player 3) = [ 0x0] [ 0x0] [ 0x0] [0x1C] [0x22] <- partially decrypted only the last two cards\r\n\t *\r\n\t * The number of players involved in the partial decryption of any card at a specific index should be the total number of players minus one\r\n\t * (players.length - 1), since the final decryption results in the fully decrypted card and therefore doesn't need to be stored.\r\n\t *\r\n\t * @param cards The partially decrypted card values to store. Three cards must be stored at phase 6, one card at phase 9, and one card\r\n\t * at phase 12.\r\n\t */\r\n    function storePublicDecryptCards(address dataAddr, uint256[] memory cards) public {\r\n\t\tPokerHandData dataStorage = PokerHandData(dataAddr);\r\n\t\tif (dataStorage.agreed(msg.sender) != true) {\r\n           revert();\r\n        }\r\n        if ((dataStorage.phases(msg.sender) != 6) && (dataStorage.phases(msg.sender) != 9) && (dataStorage.phases(msg.sender) != 12)){\r\n           revert();\r\n        }\r\n        if ((dataStorage.phases(msg.sender) == 6) && (cards.length != 3)) {\r\n            revert();\r\n        }\r\n        if ((dataStorage.phases(msg.sender) != 6) && (cards.length != 1)) {\r\n            revert();\r\n        }\r\n\t\t    dataStorage.set_publicDecryptCards(msg.sender, cards);\r\n        (uint maxLength, uint playersAtMaxLength) = dataStorage.publicDecryptCardsInfo();\r\n        if (playersAtMaxLength == (dataStorage.num_Players()-1)) {\r\n            for (uint count=0; count < dataStorage.num_Players(); count++) {\r\n                dataStorage.set_phase(dataStorage.players(count), dataStorage.phases(dataStorage.players(count)) + 1);\r\n            }\r\n        }\r\n    }\r\n}\r\n\r\ncontract PokerHandData {\r\n\tstruct Card {\r\n        uint index;\r\n        uint suit;\r\n        uint value;\r\n    }\r\n\tstruct CardGroup {\r\n       Card[] cards;\r\n    }\r\n\tstruct Key {\r\n        uint256 encKey;\r\n        uint256 decKey;\r\n        uint256 prime;\r\n    }\r\n    address public owner;\r\n    address[] public authorizedGameContracts;\r\n\tuint public numAuthorizedContracts;\r\n    address[] public players;\r\n    uint256 public buyIn;\r\n    mapping (address => bool) public agreed;\r\n\tuint256 public prime;\r\n    uint256 public baseCard;\r\n    mapping (address => uint256) public playerBets;\r\n\tmapping (address => uint256) public playerChips;\r\n\tmapping (address => bool) public playerHasBet;\r\n\tbool public bigBlindHasBet;\r\n    uint256 public pot;\r\n    uint public betPosition;\r\n    mapping (address => uint256[52]) public encryptedDeck;\r\n    mapping (address => uint256[2]) public privateCards;\r\n    struct DecryptPrivateCardsStruct {\r\n        address sourceAddr;\r\n        address targetAddr;\r\n        uint256[2] cards;\r\n    }\r\n    DecryptPrivateCardsStruct[] public privateDecryptCards;\r\n    uint256[5] public publicCards;\r\n\tmapping (address => uint256[5]) public publicDecryptCards;\r\n    mapping (address => Key[]) public playerKeys;\r\n    mapping (address => uint[5]) public playerBestHands;\r\n    mapping (address => Card[]) public playerCards;\r\n    mapping (address => uint256) public results;\r\n    mapping (address => address) public declaredWinner;\r\n    address[] public winner;\r\n    uint public lastActionBlock;\r\n    uint public timeoutBlocks;\r\n\tuint public initBlock;\r\n\tmapping (address => uint) public nonces;\r\n    mapping (address => uint) public validationIndex;\r\n    address public challenger;\r\n\tbool public complete;\r\n\tbool public initReady;\r\n    mapping (address => uint8) public phases;\r\n\r\n  //\tfunction PokerHandData() {}\r\n\tfunction () external {}\r\n\tmodifier onlyAuthorized {\r\n\t\tuint allowedContractsFound = 0;\r\n        for (uint count=0; count<authorizedGameContracts.length; count++) {\r\n            if (msg.sender == authorizedGameContracts[count]) {\r\n                allowedContractsFound++;\r\n            }\r\n        }\r\n        if (allowedContractsFound == 0) {\r\n             revert();\r\n        }\r\n        _;\r\n\t}\r\n\tfunction agreeToContract(uint256 nonce) payable public {}\r\n\tfunction initialize(uint256 primeVal, uint256 baseCardVal, uint256 buyInVal, uint timeoutBlocksVal) public onlyAuthorized {}\r\n  function getPrivateDecryptCard(address sourceAddr, address targetAddr, uint cardIndex) view public returns (uint256) {}\r\n    function allPlayersAtPhase(uint phaseNum) public view returns (bool) {}\r\n    function num_Players() public view returns (uint) {}\r\n\tfunction num_Keys(address target) public view returns (uint) {}\r\n\tfunction num_PlayerCards(address target) public view returns (uint) {}\r\n\tfunction num_PrivateCards(address targetAddr) public view returns (uint) {}\r\n\tfunction num_PublicCards() public view returns (uint) {}\r\n\tfunction num_PrivateDecryptCards(address sourceAddr, address targetAddr) public view returns (uint) {}\r\n\tfunction num_winner() public view returns (uint) {}\r\n\tfunction setAuthorizedGameContracts (address[] memory contractAddresses) public {}\r\n\tfunction add_playerCard(address playerAddress, uint index, uint suit, uint value) public onlyAuthorized {}\r\n    function update_playerCard(address playerAddress, uint cardIndex, uint index, uint suit, uint value) public onlyAuthorized {}\r\n    function set_validationIndex(address playerAddress, uint index) public onlyAuthorized {}\r\n\tfunction set_result(address playerAddress, uint256 result) public onlyAuthorized {}\r\n\tfunction set_complete (bool completeSet) public onlyAuthorized {}\r\n\tfunction set_publicCard (uint256 card, uint index) public onlyAuthorized {}\r\n\tfunction set_encryptedDeck (address fromAddr, uint256[] memory cards) public onlyAuthorized {}\r\n\tfunction set_privateCards (address fromAddr, uint256[] memory cards) public onlyAuthorized {}\r\n\tfunction set_betPosition (uint betPositionVal) public onlyAuthorized {}\r\n\tfunction set_bigBlindHasBet (bool bigBlindHasBetVal) public onlyAuthorized {}\r\n\tfunction set_playerHasBet (address fromAddr, bool hasBet) public onlyAuthorized {}\r\n\tfunction set_playerBets (address fromAddr, uint betVal) public onlyAuthorized {}\r\n\tfunction set_playerChips (address forAddr, uint numChips) public onlyAuthorized {}\r\n\tfunction set_pot (uint potVal) public onlyAuthorized {}\r\n\tfunction set_agreed (address fromAddr, bool agreedVal) public onlyAuthorized {}\r\n\tfunction add_winner (address winnerAddress) public onlyAuthorized {}\r\n\tfunction clear_winner () public onlyAuthorized {}\r\n\tfunction new_players (address[] memory newPlayers) public onlyAuthorized {}\r\n\tfunction set_phase (address fromAddr, uint8 phaseNum) public onlyAuthorized {}\r\n\tfunction set_lastActionBlock(uint blockNum) public onlyAuthorized {}\r\n\tfunction set_privateDecryptCards (address fromAddr, uint256[] memory cards, address targetAddr) public onlyAuthorized {}\r\n\tfunction set_publicCards (address fromAddr, uint256[] memory cards) public onlyAuthorized {}\r\n\tfunction set_publicDecryptCards (address fromAddr, uint256[] memory cards) public onlyAuthorized {}\r\n\tfunction add_declaredWinner(address fromAddr, address winnerAddr) public onlyAuthorized {}\r\n    function privateDecryptCardsIndex (address sourceAddr, address targetAddr) public onlyAuthorized returns (uint) {}\r\n\tfunction set_playerBestHands(address fromAddr, uint cardIndex, uint256 card) public onlyAuthorized {}\r\n\tfunction add_playerKeys(address fromAddr, uint256[] memory encKeys, uint256[] memory decKeys) public onlyAuthorized {}\r\n\tfunction remove_playerKeys(address fromAddr) public onlyAuthorized {}\r\n\tfunction set_challenger(address challengerAddr) public onlyAuthorized {}\r\n\tfunction pay (address toAddr, uint amount) public onlyAuthorized returns (bool) {}\r\n\tfunction publicDecryptCardsInfo() public view returns (uint maxLength, uint playersAtMaxLength) {}\r\n    function length_encryptedDeck(address fromAddr) public view returns (uint) {}\r\n}\r\n",
  "sourcePath": "/home/patrick/Desktop/Tomo Poker/cypherpoker.js/solidity/contracts/PokerHandStartup.sol",
  "compiler": {
    "name": "solc",
    "version": "0.5.8+commit.23d335f2.Emscripten.clang"
  },
  "schemaVersion": "3.0.16",
  "updatedAt": "2019-09-27T18:12:55.532Z",
  "devdoc": {
    "methods": {
      "initialize(address[],uint256,uint256,uint256,uint256,address)": {
        "params": {
          "baseCardVal": "The value of the base or first card of the plaintext deck. The next 51 ascending quadratic residues modulo primeVal are assumed to\r comprise the remainder of the deck (see \"getCardIndex\" for calculations).\r",
          "buyInVal": "The exact per-player buy-in value, in wei, that must be sent when agreeing to the contract. Must be greater than 0.\r",
          "dataAddr": "The address of PokerHandData contract to initialize.\r \t ",
          "primeVal": "The shared prime modulus on which plaintext card values are based and from which encryption/decryption keys are derived.\r",
          "requiredPlayers": "The players required to agree to the contract before further interaction is allowed. The first player is considered the\r dealer.\r",
          "timeoutBlocksVal": "The number of blocks that elapse between the current block and lastActionBlock before the current valid player is\r considered to have timed / dropped out if they haven't committed a valid action. A minimum of 2 blocks (roughly 24 seconds), is imposed but\r a slightly higher value is highly recommended.\r"
        }
      },
      "reset(address)": {
        "params": {
          "dataAddr": "The address of the PokerHandData contract to reset.\r"
        }
      },
      "storeEncryptedDeck(address,uint256[])": {
        "params": {
          "cards": "The encrypted card values to store. Once 52 cards (and only 52 cards) have been stored the player's phase is updated.\r",
          "dataAddr": "The address of a data contract that has authorized this contract to communicate.\r"
        }
      },
      "storePrivateCards(address,uint256[])": {
        "params": {
          "cards": "The encrypted card values to store. Once 2 cards (and only 2 cards) have been stored the player's phase is updated.\r"
        }
      },
      "storePrivateDecryptCards(address,uint256[],address)": {
        "params": {
          "cards": "The partially decrypted card values to store for the target player. Once 2 cards (and only 2 cards) have been stored by all other players for the target, the target's phase is\r updated to 4.\r",
          "targetAddr": "The address of the target player for whom the cards are being decrypted (the two cards are their private/hold cards).\r"
        }
      },
      "storePublicCards(address,uint256[])": {
        "params": {
          "cards": "The encrypted public/community cards to store. The number of cards that may be stored depends on the\r current player phases (all players). Three cards are stored at phase 5 (in multiple invocations if desired), and one card is stored at\r phases 8 and 11.\r"
        }
      },
      "storePublicDecryptCards(address,uint256[])": {
        "params": {
          "cards": "The partially decrypted card values to store. Three cards must be stored at phase 6, one card at phase 9, and one card\r at phase 12.\r"
        }
      }
    }
  },
  "userdoc": {
    "methods": {
      "constructor": "Contract constructor.\r",
      "initialize(address[],uint256,uint256,uint256,uint256,address)": {
        "notice": "Attempts to initialize a PokerHandData contract.\r "
      },
      "reset(address)": {
        "notice": "Resets the poker hand data contract so that it becomes available for re-use. Typically this function only needs to be used\r when the data contract has been used in \"full\" mode (i.e. the game writes most of its data to the contract).\r \t * The contract's 'complete' flag must be set to true prior to calling this function otherwise an exception is throw.\r "
      },
      "storeEncryptedDeck(address,uint256[])": {
        "notice": "Stores up to 52 encrypted cards of a full deck for a player. The player must have been specified during initialization, must have agreed,\r and must be at phase 1. This function may be invoked multiple times by the same player during the encryption phase if transactions need\r to be broken up into smaler units.\r "
      },
      "storePrivateCards(address,uint256[])": {
        "notice": "Stores up to 2 encrypted private or hole card selections for a player. The player must have been specified during initialization, must have agreed,\r and must be at phase 2. This function may be invoked multiple times by the same player during the encryption phase if transactions need\r to be broken up into smaler units.\r "
      },
      "storePrivateDecryptCards(address,uint256[],address)": {
        "notice": "Stores up to 2 partially decrypted private or hole cards for a target player. Both sending and target players must have been specified during initialization,\r must have agreed, and target must be at phase 3. This function may be invoked multiple times by the same player during the private/hold card decryption phase if transactions need\r to be broken up into smaler units.\r "
      },
      "storePublicCards(address,uint256[])": {
        "notice": "Stores the encrypted public or community card(s) for the hand. Currently only the dealer may store public/community card\r selections to the contract.\r "
      },
      "storePublicDecryptCards(address,uint256[])": {
        "notice": "Stores up to 5 partially decrypted public or community cards from a target player. The player must must have agreed to the\r contract, and must be at phase 6, 9, or 12. Multiple invocations may be used to store cards during the multi-card\r phase (6) if desired.\r \t * In order to correlate decryptions during subsequent rounds cards are stored at matching indexes for players involved.\r To illustrate this, in the following example players 1 and 2 decrypted the first three cards and players 2 and 3 decrypted the following\r two cards:\r \t * publicDecryptCards(player 1) = [0x32] [0x22] [0x5A] [ 0x0] [ 0x0] <- partially decrypted only the first three cards\r publicDecryptCards(player 2) = [0x75] [0xF5] [0x9B] [0x67] [0xF1] <- partially decrypted all five cards\r publicDecryptCards(player 3) = [ 0x0] [ 0x0] [ 0x0] [0x1C] [0x22] <- partially decrypted only the last two cards\r \t * The number of players involved in the partial decryption of any card at a specific index should be the total number of players minus one\r (players.length - 1), since the final decryption results in the fully decrypted card and therefore doesn't need to be stored.\r "
      }
    },
    "notice": " * Manages game startup routines such as initialization and card dtorage for a single CypherPoker hand (round).\r Most data operations are done on an external PokerHandData contract.\r  * (C)opyright 2016 to 2017\r  * This source code is protected by copyright and distributed under license.\r Please see the root LICENSE file for terms and conditions.\r "
  }
}