{
  "contractName": "PokerHandValidator",
  "abi": [
    {
      "constant": true,
      "inputs": [],
      "name": "pokerHandData",
      "outputs": [
        {
          "name": "",
          "type": "address"
        }
      ],
      "payable": false,
      "stateMutability": "view",
      "type": "function"
    },
    {
      "constant": true,
      "inputs": [],
      "name": "lastSender",
      "outputs": [
        {
          "name": "",
          "type": "address"
        }
      ],
      "payable": false,
      "stateMutability": "view",
      "type": "function"
    },
    {
      "constant": true,
      "inputs": [
        {
          "name": "",
          "type": "uint256"
        },
        {
          "name": "",
          "type": "uint256"
        }
      ],
      "name": "sortedGroups",
      "outputs": [
        {
          "name": "index",
          "type": "uint256"
        },
        {
          "name": "suit",
          "type": "uint256"
        },
        {
          "name": "value",
          "type": "uint256"
        }
      ],
      "payable": false,
      "stateMutability": "view",
      "type": "function"
    },
    {
      "constant": true,
      "inputs": [],
      "name": "owner",
      "outputs": [
        {
          "name": "",
          "type": "address"
        }
      ],
      "payable": false,
      "stateMutability": "view",
      "type": "function"
    },
    {
      "constant": true,
      "inputs": [
        {
          "name": "",
          "type": "uint256"
        }
      ],
      "name": "workCards",
      "outputs": [
        {
          "name": "index",
          "type": "uint256"
        },
        {
          "name": "suit",
          "type": "uint256"
        },
        {
          "name": "value",
          "type": "uint256"
        }
      ],
      "payable": false,
      "stateMutability": "view",
      "type": "function"
    },
    {
      "constant": true,
      "inputs": [
        {
          "name": "",
          "type": "uint256"
        }
      ],
      "name": "sortedGroup",
      "outputs": [
        {
          "name": "index",
          "type": "uint256"
        },
        {
          "name": "suit",
          "type": "uint256"
        },
        {
          "name": "value",
          "type": "uint256"
        }
      ],
      "payable": false,
      "stateMutability": "view",
      "type": "function"
    },
    {
      "constant": true,
      "inputs": [
        {
          "name": "",
          "type": "uint256"
        },
        {
          "name": "",
          "type": "uint256"
        }
      ],
      "name": "cardGroups",
      "outputs": [
        {
          "name": "index",
          "type": "uint256"
        },
        {
          "name": "suit",
          "type": "uint256"
        },
        {
          "name": "value",
          "type": "uint256"
        }
      ],
      "payable": false,
      "stateMutability": "view",
      "type": "function"
    },
    {
      "inputs": [],
      "payable": false,
      "stateMutability": "nonpayable",
      "type": "constructor"
    },
    {
      "payable": false,
      "stateMutability": "nonpayable",
      "type": "fallback"
    },
    {
      "constant": false,
      "inputs": [
        {
          "name": "dataAddr",
          "type": "address"
        },
        {
          "name": "challenger",
          "type": "address"
        }
      ],
      "name": "challenge",
      "outputs": [
        {
          "name": "",
          "type": "bool"
        }
      ],
      "payable": false,
      "stateMutability": "nonpayable",
      "type": "function"
    },
    {
      "constant": false,
      "inputs": [
        {
          "name": "dataAddr",
          "type": "address"
        },
        {
          "name": "msgSender",
          "type": "address"
        }
      ],
      "name": "validate",
      "outputs": [
        {
          "name": "",
          "type": "bool"
        }
      ],
      "payable": false,
      "stateMutability": "nonpayable",
      "type": "function"
    },
    {
      "constant": false,
      "inputs": [
        {
          "name": "value",
          "type": "uint256"
        },
        {
          "name": "baseCard",
          "type": "uint256"
        },
        {
          "name": "prime",
          "type": "uint256"
        }
      ],
      "name": "getCardIndex",
      "outputs": [
        {
          "name": "index",
          "type": "uint256"
        }
      ],
      "payable": false,
      "stateMutability": "nonpayable",
      "type": "function"
    }
  ],
  "bytecode": "0x608060405234801561001057600080fd5b50336000806101000a81548173ffffffffffffffffffffffffffffffffffffffff021916908373ffffffffffffffffffffffffffffffffffffffff160217905550612b55806100606000396000f3fe608060405234801561001057600080fd5b506004361061009e5760003560e01c80638da5cb5b116100665780638da5cb5b1461028957806397f8d081146102d3578063cc45c0ee14610323578063d0126a0f14610379578063e2004892146103c95761009e565b80630af9366c146100a3578063221e2efc146100ed578063256fec88146101695780634d0331f2146101b35780635e8b99761461020d575b600080fd5b6100ab610423565b604051808273ffffffffffffffffffffffffffffffffffffffff1673ffffffffffffffffffffffffffffffffffffffff16815260200191505060405180910390f35b61014f6004803603604081101561010357600080fd5b81019080803573ffffffffffffffffffffffffffffffffffffffff169060200190929190803573ffffffffffffffffffffffffffffffffffffffff169060200190929190505050610449565b604051808215151515815260200191505060405180910390f35b610171610b04565b604051808273ffffffffffffffffffffffffffffffffffffffff1673ffffffffffffffffffffffffffffffffffffffff16815260200191505060405180910390f35b6101e9600480360360408110156101c957600080fd5b810190808035906020019092919080359060200190929190505050610b2a565b60405180848152602001838152602001828152602001935050505060405180910390f35b61026f6004803603604081101561022357600080fd5b81019080803573ffffffffffffffffffffffffffffffffffffffff169060200190929190803573ffffffffffffffffffffffffffffffffffffffff169060200190929190505050610b77565b604051808215151515815260200191505060405180910390f35b610291610f07565b604051808273ffffffffffffffffffffffffffffffffffffffff1673ffffffffffffffffffffffffffffffffffffffff16815260200191505060405180910390f35b6102ff600480360360208110156102e957600080fd5b8101908080359060200190929190505050610f2c565b60405180848152602001838152602001828152602001935050505060405180910390f35b6103636004803603606081101561033957600080fd5b81019080803590602001909291908035906020019092919080359060200190929190505050610f59565b6040518082815260200191505060405180910390f35b6103a56004803603602081101561038f57600080fd5b8101908080359060200190929190505050610fe7565b60405180848152602001838152602001828152602001935050505060405180910390f35b6103ff600480360360408110156103df57600080fd5b81019080803590602001909291908035906020019092919050505061101e565b60405180848152602001838152602001828152602001935050505060405180910390f35b600260009054906101000a900473ffffffffffffffffffffffffffffffffffffffff1681565b600080339050600080905060008090505b8273ffffffffffffffffffffffffffffffffffffffff1663b6898a386040518163ffffffff1660e01b815260040160206040518083038186803b1580156104a057600080fd5b505afa1580156104b4573d6000803e3d6000fd5b505050506040513d60208110156104ca57600080fd5b81019080805190602001909291905050508110156105b7573373ffffffffffffffffffffffffffffffffffffffff168373ffffffffffffffffffffffffffffffffffffffff1663c69adc91836040518263ffffffff1660e01b81526004018082815260200191505060206040518083038186803b15801561054a57600080fd5b505afa15801561055e573d6000803e3d6000fd5b505050506040513d602081101561057457600080fd5b810190808051906020019092919050505073ffffffffffffffffffffffffffffffffffffffff1614156105aa57600191506105b7565b808060010191505061045a565b50806105c257600080fd5b84600260006101000a81548173ffffffffffffffffffffffffffffffffffffffff021916908373ffffffffffffffffffffffffffffffffffffffff16021790555083600160006101000a81548173ffffffffffffffffffffffffffffffffffffffff021916908373ffffffffffffffffffffffffffffffffffffffff1602179055506000600260009054906101000a900473ffffffffffffffffffffffffffffffffffffffff1673ffffffffffffffffffffffffffffffffffffffff16630aa2963a600160009054906101000a900473ffffffffffffffffffffffffffffffffffffffff166040518263ffffffff1660e01b8152600401808273ffffffffffffffffffffffffffffffffffffffff1673ffffffffffffffffffffffffffffffffffffffff16815260200191505060206040518083038186803b15801561070757600080fd5b505afa15801561071b573d6000803e3d6000fd5b505050506040513d602081101561073157600080fd5b81019080805190602001909291905050509050600581101561087d5761087c600160009054906101000a900473ffffffffffffffffffffffffffffffffffffffff16600260009054906101000a900473ffffffffffffffffffffffffffffffffffffffff1673ffffffffffffffffffffffffffffffffffffffff166325223e4e600160009054906101000a900473ffffffffffffffffffffffffffffffffffffffff16856040518363ffffffff1660e01b8152600401808373ffffffffffffffffffffffffffffffffffffffff1673ffffffffffffffffffffffffffffffffffffffff1681526020018281526020019250505060206040518083038186803b15801561083c57600080fd5b505afa158015610850573d6000803e3d6000fd5b505050506040513d602081101561086657600080fd5b8101908080519060200190929190505050611062565b5b60048111801561088d5750600a81105b156108c2576108c1600160009054906101000a900473ffffffffffffffffffffffffffffffffffffffff166005830361167a565b5b600a8114156108f7576108f6600160009054906101000a900473ffffffffffffffffffffffffffffffffffffffff166119e2565b5b600b811415610989576000600160006101000a81548173ffffffffffffffffffffffffffffffffffffffff021916908373ffffffffffffffffffffffffffffffffffffffff1602179055506001600260006101000a81548173ffffffffffffffffffffffffffffffffffffffff021916908373ffffffffffffffffffffffffffffffffffffffff160217905550600080fd5b8080600101915050600260009054906101000a900473ffffffffffffffffffffffffffffffffffffffff1673ffffffffffffffffffffffffffffffffffffffff1663a2bf3985600160009054906101000a900473ffffffffffffffffffffffffffffffffffffffff16836040518363ffffffff1660e01b8152600401808373ffffffffffffffffffffffffffffffffffffffff1673ffffffffffffffffffffffffffffffffffffffff16815260200182815260200192505050600060405180830381600087803b158015610a5c57600080fd5b505af1158015610a70573d6000803e3d6000fd5b505050506001600260006101000a81548173ffffffffffffffffffffffffffffffffffffffff021916908373ffffffffffffffffffffffffffffffffffffffff16021790555060018060006101000a81548173ffffffffffffffffffffffffffffffffffffffff021916908373ffffffffffffffffffffffffffffffffffffffff1602179055506001935050505092915050565b600160009054906101000a900473ffffffffffffffffffffffffffffffffffffffff1681565b60138281548110610b3757fe5b906000526020600020018181548110610b4c57fe5b9060005260206000209060030201600091509150508060000154908060010154908060020154905083565b600080339050600080905060008090505b8273ffffffffffffffffffffffffffffffffffffffff1663b6898a386040518163ffffffff1660e01b815260040160206040518083038186803b158015610bce57600080fd5b505afa158015610be2573d6000803e3d6000fd5b505050506040513d6020811015610bf857600080fd5b8101908080519060200190929190505050811015610ce5573373ffffffffffffffffffffffffffffffffffffffff168373ffffffffffffffffffffffffffffffffffffffff1663c69adc91836040518263ffffffff1660e01b81526004018082815260200191505060206040518083038186803b158015610c7857600080fd5b505afa158015610c8c573d6000803e3d6000fd5b505050506040513d6020811015610ca257600080fd5b810190808051906020019092919050505073ffffffffffffffffffffffffffffffffffffffff161415610cd85760019150610ce5565b8080600101915050610b88565b5080610cf057600080fd5b84600260006101000a81548173ffffffffffffffffffffffffffffffffffffffff021916908373ffffffffffffffffffffffffffffffffffffffff16021790555083600160006101000a81548173ffffffffffffffffffffffffffffffffffffffff021916908373ffffffffffffffffffffffffffffffffffffffff1602179055506000600260009054906101000a900473ffffffffffffffffffffffffffffffffffffffff1673ffffffffffffffffffffffffffffffffffffffff166325223e4e600160009054906101000a900473ffffffffffffffffffffffffffffffffffffffff1660006040518363ffffffff1660e01b8152600401808373ffffffffffffffffffffffffffffffffffffffff1673ffffffffffffffffffffffffffffffffffffffff1681526020018281526020019250505060206040518083038186803b158015610e3e57600080fd5b505afa158015610e52573d6000803e3d6000fd5b505050506040513d6020811015610e6857600080fd5b810190808051906020019092919050505090506001600260006101000a81548173ffffffffffffffffffffffffffffffffffffffff021916908373ffffffffffffffffffffffffffffffffffffffff16021790555060018060006101000a81548173ffffffffffffffffffffffffffffffffffffffff021916908373ffffffffffffffffffffffffffffffffffffffff16021790555050505092915050565b6000809054906101000a900473ffffffffffffffffffffffffffffffffffffffff1681565b60038160058110610f3957fe5b600302016000915090508060000154908060010154908060020154905083565b60006001905082841415610f705760009050610fe0565b80806001019150506000839050600060026001850381610f8c57fe5b0490505b6035831015610fd55781806001019250506001610fae838387611cf3565b1415610fd05785821415610fc757600092505050610fe0565b82806001019350505b610f90565b600092506000925050505b9392505050565b60128181548110610ff457fe5b90600052602060002090600302016000915090508060000154908060010154908060020154905083565b601482600f811061102b57fe5b01818154811061103757fe5b9060005260206000209060030201600091509150508060000154908060010154908060020154905083565b6000600282101561115657600260009054906101000a900473ffffffffffffffffffffffffffffffffffffffff1673ffffffffffffffffffffffffffffffffffffffff1663667f61ad84846040518363ffffffff1660e01b8152600401808373ffffffffffffffffffffffffffffffffffffffff1673ffffffffffffffffffffffffffffffffffffffff1681526020018281526020019250505060206040518083038186803b15801561111457600080fd5b505afa158015611128573d6000803e3d6000fd5b505050506040513d602081101561113e57600080fd5b8101908080519060200190929190505050905061120a565b600260009054906101000a900473ffffffffffffffffffffffffffffffffffffffff1673ffffffffffffffffffffffffffffffffffffffff1663fb9919b5600284036040518263ffffffff1660e01b81526004018082815260200191505060206040518083038186803b1580156111cc57600080fd5b505afa1580156111e0573d6000803e3d6000fd5b505050506040513d60208110156111f657600080fd5b810190808051906020019092919050505090505b600080600090505b600260009054906101000a900473ffffffffffffffffffffffffffffffffffffffff1673ffffffffffffffffffffffffffffffffffffffff166350d9e6856040518163ffffffff1660e01b815260040160206040518083038186803b15801561127a57600080fd5b505afa15801561128e573d6000803e3d6000fd5b505050506040513d60208110156112a457600080fd5b810190808051906020019092919050505081101561157f57600260009054906101000a900473ffffffffffffffffffffffffffffffffffffffff1673ffffffffffffffffffffffffffffffffffffffff1663f71d96cb826040518263ffffffff1660e01b81526004018082815260200191505060206040518083038186803b15801561132f57600080fd5b505afa158015611343573d6000803e3d6000fd5b505050506040513d602081101561135957600080fd5b8101908080519060200190929190505050915060008090505b600260009054906101000a900473ffffffffffffffffffffffffffffffffffffffff1673ffffffffffffffffffffffffffffffffffffffff16637c2087c9846040518263ffffffff1660e01b8152600401808273ffffffffffffffffffffffffffffffffffffffff1673ffffffffffffffffffffffffffffffffffffffff16815260200191505060206040518083038186803b15801561141157600080fd5b505afa158015611425573d6000803e3d6000fd5b505050506040513d602081101561143b57600080fd5b8101908080519060200190929190505050811015611571576000806000600260009054906101000a900473ffffffffffffffffffffffffffffffffffffffff1673ffffffffffffffffffffffffffffffffffffffff1663158d323687866040518363ffffffff1660e01b8152600401808373ffffffffffffffffffffffffffffffffffffffff1673ffffffffffffffffffffffffffffffffffffffff1681526020018281526020019250505060606040518083038186803b1580156114ff57600080fd5b505afa158015611513573d6000803e3d6000fd5b505050506040513d606081101561152957600080fd5b8101908080519060200190929190805190602001909291908051906020019092919050505092509250925061155f878383611cf3565b96505050508080600101915050611372565b508080600101915050611212565b50600260009054906101000a900473ffffffffffffffffffffffffffffffffffffffff1673ffffffffffffffffffffffffffffffffffffffff1663a86a7641600160009054906101000a900473ffffffffffffffffffffffffffffffffffffffff16846000806040518563ffffffff1660e01b8152600401808573ffffffffffffffffffffffffffffffffffffffff1673ffffffffffffffffffffffffffffffffffffffff168152602001848152602001838152602001828152602001945050505050600060405180830381600087803b15801561165c57600080fd5b505af1158015611670573d6000803e3d6000fd5b5050505050505050565b6000806000600260009054906101000a900473ffffffffffffffffffffffffffffffffffffffff1673ffffffffffffffffffffffffffffffffffffffff1663af4126bc86866040518363ffffffff1660e01b8152600401808373ffffffffffffffffffffffffffffffffffffffff1673ffffffffffffffffffffffffffffffffffffffff1681526020018281526020019250505060606040518083038186803b15801561172657600080fd5b505afa15801561173a573d6000803e3d6000fd5b505050506040513d606081101561175057600080fd5b810190808051906020019092919080519060200190929190805190602001909291905050509250925092506118ca83600260009054906101000a900473ffffffffffffffffffffffffffffffffffffffff1673ffffffffffffffffffffffffffffffffffffffff16630416b1056040518163ffffffff1660e01b815260040160206040518083038186803b1580156117e757600080fd5b505afa1580156117fb573d6000803e3d6000fd5b505050506040513d602081101561181157600080fd5b8101908080519060200190929190505050600260009054906101000a900473ffffffffffffffffffffffffffffffffffffffff1673ffffffffffffffffffffffffffffffffffffffff1663c7ee005e6040518163ffffffff1660e01b815260040160206040518083038186803b15801561188a57600080fd5b505afa15801561189e573d6000803e3d6000fd5b505050506040513d60208110156118b457600080fd5b8101908080519060200190929190505050610f59565b92506000831180156118dc5750603583105b156119db57600260009054906101000a900473ffffffffffffffffffffffffffffffffffffffff1673ffffffffffffffffffffffffffffffffffffffff1663b485a8bc8686866001600d60018a038161193157fe5b04016001600d60018b038161194257fe5b06016040518663ffffffff1660e01b8152600401808673ffffffffffffffffffffffffffffffffffffffff1673ffffffffffffffffffffffffffffffffffffffff16815260200185815260200184815260200183815260200182815260200195505050505050600060405180830381600087803b1580156119c257600080fd5b505af11580156119d6573d6000803e3d6000fd5b505050505b5050505050565b60008090505b600260009054906101000a900473ffffffffffffffffffffffffffffffffffffffff1673ffffffffffffffffffffffffffffffffffffffff16631515fd67836040518263ffffffff1660e01b8152600401808273ffffffffffffffffffffffffffffffffffffffff1673ffffffffffffffffffffffffffffffffffffffff16815260200191505060206040518083038186803b158015611a8757600080fd5b505afa158015611a9b573d6000803e3d6000fd5b505050506040513d6020811015611ab157600080fd5b8101908080519060200190929190505050811015611c27576000806000600260009054906101000a900473ffffffffffffffffffffffffffffffffffffffff1673ffffffffffffffffffffffffffffffffffffffff1663af4126bc86866040518363ffffffff1660e01b8152600401808373ffffffffffffffffffffffffffffffffffffffff1673ffffffffffffffffffffffffffffffffffffffff1681526020018281526020019250505060606040518083038186803b158015611b7557600080fd5b505afa158015611b89573d6000803e3d6000fd5b505050506040513d6060811015611b9f57600080fd5b8101908080519060200190929190805190602001909291908051906020019092919050505092509250925060405180606001604052808481526020018381526020018281525060038560058110611bf257fe5b6003020160008201518160000155602082015181600101556040820151816002015590505050505080806001019150506119e8565b50600260009054906101000a900473ffffffffffffffffffffffffffffffffffffffff1673ffffffffffffffffffffffffffffffffffffffff16634f36b25582611c6f611d3f565b6040518363ffffffff1660e01b8152600401808373ffffffffffffffffffffffffffffffffffffffff1673ffffffffffffffffffffffffffffffffffffffff16815260200182815260200192505050600060405180830381600087803b158015611cd857600080fd5b505af1158015611cec573d6000803e3d6000fd5b5050505050565b6000600190506000600190505b838111611d3757600081851614611d1f578280611d1957fe5b85830991505b8280611d2757fe5b8586099450600281029050611d00565b509392505050565b600080600090506000809050611d5481611e40565b611d5d81611f8a565b91506000821415611d855760019050611d7581611e40565b611d7e81611f8a565b9150611d97565b611d8d612091565b8192505050611e3d565b6000821115611db257611da8612091565b8192505050611e3d565b611dba612091565b60009050611dc86001612191565b60046013805490501115611dfe57611dde612091565b60009050611dec6000612191565b611df760008261251d565b9150611e0c565b611e0960018261251d565b91505b6000821415611e2f5760019050611e21612091565b611e2c6000826126b2565b91505b611e37612091565b81925050505b90565b6000611e4a61297f565b6000600190505b600f8160ff161015611f1b5760008090505b60058160ff161015611f0d5760038160ff1660058110611e7f57fe5b60030201600201549350848015611e965750600184145b15611ea057600e93505b8160ff16841415611f005760038160ff1660058110611ebb57fe5b600302016040518060600160405290816000820154815260200160018201548152602001600282015481525050838260ff1660058110611ef757fe5b60200201819052505b8080600101915050611e63565b508080600101915050611e51565b5060008090505b60058160ff161015611f8457818160ff1660058110611f3d57fe5b602002015160038260ff1660058110611f5257fe5b600302016000820151816000015560208201518160010155604082015181600201559050508080600101915050611f22565b50505050565b600080600080600190505b60058160ff16101561200f5760038160ff1660058110611fb157fe5b60030201600201549150848015611fc85750600182145b15611fd257600e91505b600160036001830360ff1660058110611fe757fe5b6003020160020154830314612002576000935050505061208c565b8080600101915050611f95565b506000600360006005811061202057fe5b60030201600101549050632faf080092506000600190505b60058160ff16101561207b578160038260ff166005811061205557fe5b60030201600101541461206e576317d78400935061207b565b8080600101915050612038565b5061208683866126b2565b93505050505b919050565b60008090505b6012805490508110156120e757601281815481106120b157fe5b90600052602060002090600302016000808201600090556001820160009055600282016000905550508080600101915050612097565b5060006012816120f791906129ad565b5060008090505b600f8160ff1610156121345760148160ff16600f811061211a57fe5b01600061212791906129df565b80806001019150506120fe565b5060008090505b6013805490508160ff16101561217e5760138160ff168154811061215b57fe5b90600052602060002001600061217191906129df565b808060010191505061213b565b50600060138161218e9190612a03565b50565b60008090505b600581101561234a57600015158215151415612277576014600382600581106121bc57fe5b6003020160010154600f81106121ce57fe5b016040518060600160405280600384600581106121e757fe5b600302016000015481526020016003846005811061220157fe5b600302016001015481526020016003846005811061221b57fe5b60030201600201548152509080600181540180825580915050906001820390600052602060002090600302016000909192909190915060008201518160000155602082015181600101556040820151816002015550505061233d565b60146003826005811061228657fe5b6003020160020154600f811061229857fe5b016040518060600160405280600384600581106122b157fe5b60030201600001548152602001600384600581106122cb57fe5b60030201600101548152602001600384600581106122e557fe5b6003020160020154815250908060018154018082558091505090600182039060005260206000209060030201600090919290919091506000820151816000015560208201518160010155604082015181600201555050505b8080600101915050612197565b506000600f905060001515821515141561236357600490505b600080905060008090505b8260ff168160ff1610156125175760008090505b60148260ff16600f811061239257fe5b01805490508160ff1610156124af576012604051806060016040528060148560ff16600f81106123be57fe5b018460ff16815481106123cd57fe5b906000526020600020906003020160000154815260200160148560ff16600f81106123f457fe5b018460ff168154811061240357fe5b906000526020600020906003020160010154815260200160148560ff16600f811061242a57fe5b018460ff168154811061243957fe5b9060005260206000209060030201600201548152509080600181540180825580915050906001820390600052602060002090600302016000909192909190915060008201518160000155602082015181600101556040820151816002015550505082806001019350508080600101915050612382565b506000601280549050111561250a57601360129080600181540180825580915050906001820390600052602060002001600090919290919091509080546124f7929190612a2f565b5050600060128161250891906129ad565b505b808060010191505061236e565b50505050565b600082156126695761252f60046128cd565b1561254d57600191506125466329b92700836126b2565b90506126ac565b61255760036128cd565b8015612569575061256860026128cd565b5b1561258757600191506125806323c34600836126b2565b90506126ac565b61259160036128cd565b80156125a357506125a260016128cd565b5b156125c157600191506125ba6311e1a300836126b2565b90506126ac565b6125cb60026128cd565b1561266457600080905060008090505b6013805490508160ff16101561262757600260138260ff16815481106125fd57fe5b9060005260206000200180549050141561261a5781806001019250505b80806001019150506125db565b506001925060018160ff16111561264e57612646630bebc200846126b2565b9150506126ac565b61265c6305f5e100846126b2565b9150506126ac565b6126a7565b6005601360008154811061267957fe5b906000526020600020018054905014156126a6576001915061269f631dcd6500836126b2565b90506126ac565b5b600090505b92915050565b6000806000905060008060009050600080905060008090506001601380549050111561284a5760008090505b6013805490508160ff161015612832576126f78161292f565b63ffffffff16955060008090505b60138260ff168154811061271557fe5b90600052602060002001805490508160ff1610156128245760138260ff168154811061273d57fe5b906000526020600020018160ff168154811061275557fe5b90600052602060002090600302016002015495508880156127765750600186145b1561278057600e95505b600160138360ff168154811061279257fe5b90600052602060002001805490501180156127ca5750600560138360ff16815481106127ba57fe5b9060005260206000200180549050105b156128055760028701600a0a86028a019950868310806127f4575086831480156127f357508386115b5b15612800578593508692505b612817565b858a01995084861115612816578594505b5b8080600101915050612705565b5080806001019150506126de565b506003830a88019750620f42408202880197506128bf565b60008090505b60058160ff1610156128b35760038160ff166005811061286c57fe5b600302016002015494508780156128835750600185145b1561288d57600e94505b6001810160ff16850a89019850838511156128a6578493505b8080600101915050612850565b50620f42408302880197505b879550505050505092915050565b600080600090505b6013805490508160ff161015612924578260ff1660138260ff16815481106128f957fe5b9060005260206000200180549050141561291757600191505061292a565b80806001019150506128d5565b50600090505b919050565b60008060008090505b60138460ff168154811061294857fe5b90600052602060002001805490508160ff1610156129755781806001019250508080600101915050612938565b5080915050919050565b604051806101e001604052806005905b612997612aa5565b81526020019060019003908161298f5790505090565b8154818355818111156129da576003028160030283600052602060002091820191016129d99190612ac6565b5b505050565b5080546000825560030290600052602060002090810190612a009190612ac6565b50565b815481835581811115612a2a57818360005260206000209182019101612a299190612afd565b5b505050565b828054828255906000526020600020906003028101928215612a945760005260206000209160030282015b82811115612a93578282600082015481600001556001820154816001015560028201548160020155505091600301919060030190612a5a565b5b509050612aa19190612ac6565b5090565b60405180606001604052806000815260200160008152602001600081525090565b612afa91905b80821115612af6576000808201600090556001820160009055600282016000905550600301612acc565b5090565b90565b612b2691905b80821115612b225760008181612b1991906129df565b50600101612b03565b5090565b9056fea165627a7a723058207b91795269678cb50d18319562733cd84aa311660c3997545e30a564635e9ce10029",
  "source": "pragma solidity ^0.5.8;\n/**\n*\n* Provides validation functionality such as hand decryption, scoring, and ranking for an authorizing PokerHandData contract.\n*\n* (C)opyright 2016 to 2017\n*\n* This source code is protected by copyright and distributed under license.\n* Please see the root LICENSE file for terms and conditions.\n*\n*\n*/\ncontract PokerHandValidator {\n\n\t//Single card definition including card's sorting index within the entire deck (1-52), suit value (0 to 3), and value (1 to 13 or 14 if aces are high)\n\tstruct Card {\n        uint index;\n        uint suit;\n        uint value;\n    }\n\n\t//Encryption / decryption key definition including the encryption key, decryption key, and prime modulus.\n\tstruct Key {\n        uint256 encKey;\n        uint256 decKey;\n        uint256 prime;\n    }\n\n    address public owner; //the contract's owner / publisher\n    address public lastSender; //address of last player to invoke a validation function, set to 1 after each round of validation\n    PokerHandData public pokerHandData; //the last PokerHandData-style contract to invoke the validator, set to the address 1 after each round of validation\n\n\t//Arrays used during hand analysis (may be safely cleared afterward):\n    Card[5] public workCards;\n    Card[] public sortedGroup;\n    Card[][] public sortedGroups;\n    Card[][15] public cardGroups;\n\n\n  /**\n\t* Contract constructor.\n\t*/\n    constructor () public {\n        owner = msg.sender;\n    }\n\n\t/**\n\t* Anonymous fallback function.\n\t*/\n\tfunction () external {\n        revert();\n    }\n\n\t/**\n\t* Function modifier that allows only authorized accounts (e.g. contracts) to invoke functions.\n\t*/\n\tmodifier isAuthorized {\n\t\tPokerHandData handData = PokerHandData(msg.sender);\n\t\tbool found = false;\n\t\tfor (uint count=0; count<handData.numAuthorizedContracts(); count++) {\n\t\t\tif (handData.authorizedGameContracts(count) == msg.sender) {\n\t\t\t\tfound = true;\n\t\t\t\tbreak;\n\t\t\t}\n\t\t}\n\t\tif (!found) {\n             revert();\n        }\n        _;\n\t}\n\n    /**\n     * Performs one round of mid-game challenge validation. The contract address being validated is evaluated from msg.sender\n     *\n\t * @param dataAddr The address of the PokerHandData contract to work with.\n     * @param challenger The address of the challenging player.\n     *\n     * @return True if the current challenge verification step was successfully completed and the source contract's validation index has\n     * been updated.\n     */\n    function challenge (address dataAddr, address challenger) public isAuthorized returns (bool) {\n        //TODO: implement challenge verification\n        pokerHandData = PokerHandData(dataAddr);\n        lastSender = challenger;\n        uint256 challengeValue=pokerHandData.playerBestHands(lastSender, 0);\n        //use pokerHandData.playerCards(lastSender, 0) to store decrypted card\n        //reset values to prevent external invocations from non-contracts\n        pokerHandData=PokerHandData(1);\n        lastSender=address(1);\n    }\n\n    /**\n     * Performs one round of validation on a target contract. The contract address being validated is evaluated from msg.sender\n     *\n     * @param dataAddr The address of the PokerHandData contract to work with.\n\t * @param msgSender The address of the sending/invoking player.\n     *\n     * @return True if the current validation step was successfully completed and the source contract's validation index has\n     * been updated.\n     */\n    function validate(address dataAddr, address msgSender) public isAuthorized returns (bool) {\n       pokerHandData = PokerHandData(dataAddr);\n       lastSender = msgSender;\n       uint validationIndex=pokerHandData.validationIndex(lastSender);\n       if (validationIndex < 5) {\n           decryptCard(lastSender, pokerHandData.playerBestHands(lastSender, validationIndex));\n       }\n       if ((validationIndex > 4) && (validationIndex<10)) {\n            validateCard(lastSender, (validationIndex-5));\n       }\n       if (validationIndex == 10) {\n           generateScore(lastSender);\n       }\n       if (validationIndex == 11) {\n           //reset values to prevent external invocations from non-contracts\n           lastSender=address(0);\n           pokerHandData=PokerHandData(1);\n           //no further validations possible\n           revert();\n       }\n       validationIndex++;\n       pokerHandData.set_validationIndex(lastSender, validationIndex);\n       pokerHandData=PokerHandData(1);\n       lastSender=address(1);\n       return (true);\n    }\n\n    /**\n     * Decrypts a card for a target player address and stores the result in the originating PokerHandData contract's \"playerCard\" variable\n     * via the \"add_playerCard\" function.\n     *\n     * @param target The address of the player for which to decrypt the specified card.\n     * @param cardIndex The index of the card to decrypt. If the index is less than 2 then the index refers to a card within the target player's privateCards\n     * variable within the originating contract, otherwise the 2 is subtracted from the index and is used to retrieve a card from the publicCards variable\n     * within the originating contract.\n     *\n     */\n    function decryptCard(address target, uint cardIndex) private {\n       uint256 selectedCard;\n       if (cardIndex < 2) {\n           //decrypt private card\n           selectedCard=pokerHandData.privateCards(target, cardIndex);\n       } else {\n           //decrypt public card\n           selectedCard=pokerHandData.publicCards(cardIndex-2);\n       }\n       address currentPlayer;\n       for (uint count=0; count < pokerHandData.num_Players(); count++) {\n           currentPlayer = pokerHandData.players(count);\n           for (uint keyIndex=0; keyIndex<pokerHandData.num_Keys(currentPlayer); keyIndex++) {\n              (uint256 encKey, uint256 decKey, uint256 mod) = pokerHandData.playerKeys(currentPlayer, keyIndex);\n               selectedCard = modExp(selectedCard, decKey, mod);\n            }\n\t\t\t/*\n            if (checkDecryptedCard(currentPlayer, selectedCard) == false) {\n                //currentPlayer did not store correct decryption for player!\n                //ensure we're not checking fully decrypted card here\n            }\n\t\t\t*/\n       }\n       pokerHandData.add_playerCard(lastSender, selectedCard, 0, 0);\n    }\n\n    /**\n     * Validates a card for a target player by calculating its quadratic residue index as an offset from the base card of the\n     * originating PokerHandData contract. If validated the resulting card is stored an [index, suit, value] tupple in the originating\n     * PokerHandData contract for the target playe, in the \"playerCard\" variable, via the \"update_playerCard\" function.\n     *\n     * @param target The address of the player for which to validate the card.\n     * @param cardIndex The index of the card within the originating contract's playerCards array to validate. If validated this same\n     * index is updated with the validated tuple.\n     */\n    function validateCard(address target, uint cardIndex) private {\n        (uint index, uint suit, uint value) = pokerHandData.playerCards(target, cardIndex);\n        index=getCardIndex(index, pokerHandData.baseCard(), pokerHandData.prime());\n        if ((index > 0) && (index < 53)) {\n             pokerHandData.update_playerCard(target, cardIndex, index, (((index-1) / 13) + 1), (((index-1) % 13) + 1));\n        }\n    }\n\n    /**\n     * Recalls the target player's best cards, which should now be decrypted and validated, and submits them for analysis\n     * to produce a hand score that may be used in ranking players' results. The resulting score is set in the originating PokerHandData\n     * contracts \"result\" mapping via the \"set_result\" function.\n     *\n     * * See \"calculateHandScore\" for resulting poker hand score ranges.\n     *\n     * @param target The target player for which to generate a score and store the result.\n     *\n     */\n    function generateScore(address target) private {\n        for (uint count=0; count<pokerHandData.num_PlayerCards(target); count++) {\n             (uint index, uint suit, uint value) = pokerHandData.playerCards(target, count);\n             workCards[count] = Card(index, suit, value);\n        }\n        pokerHandData.set_result(target, calculateHandScore());\n    }\n\n    /**\n     * Checks if a partially decrypted card value was provided by another player.\n     *\n     * @param sender The sending address, or the address of the player for whom the partially decrypted card belongs\n     * @param cardValue The partially encrypted card value to be checked.\n     *\n     * @return True if the partially decrypted card was provided by another player, false if no matching card could be found.\n     */\n    function checkDecryptedCard (address sender, uint256 cardValue) private returns (bool) {\n        address currentPlayer;\n        for (uint count=0; count<pokerHandData.num_Players(); count++) {\n            currentPlayer = pokerHandData.players(count);\n            if (currentPlayer != sender) {\n                for (uint cardIndex=0; cardIndex < pokerHandData.num_PrivateDecryptCards(currentPlayer,sender); cardIndex++) {\n                    if (pokerHandData.getPrivateDecryptCard(currentPlayer, sender, cardIndex) == cardValue) {\n                        return (true);\n                    }\n                }\n            }\n        }\n        return (false);\n    }\n\n    /**\n\t* Performs an arbitrary-size modular exponentiation calculation.\n\t*\n\t* @param base The base value for the modular exponentiation calculation.\n\t* @param exp The exponent value for the modular exponentiation calculation.\n\t* @param mod The modulus value for the modular exponentiation calculation.\n\t*\n\t* @return The result of the calculation (base^exp) % mod\n\t*/\n\tfunction modExp(uint256 base, uint256 exp, uint256 mod) internal returns (uint256 result)  {\n\t\tresult = 1;\n\t\tfor (uint count = 1; count <= exp; count *= 2) {\n\t\t\tif (exp & count != 0)\n\t\t\t\tresult = mulmod(result, base, mod);\n\t\t\tbase = mulmod(base, base, mod);\n\t\t}\n\t}\n\n\t/**\n\t* Returns a the card index of a supplied value. Card indexes are calculated as offsets of quadratic residues modulo prime (storage) with respect\n\t* to baseCard. If 0 is returned then the supplied value is not a valid card.\n\t*\n\t*\n\t* @param value The plaintext card value for which to return an index.\n\t* @param baseCard The base, or lowest, card value in the card deck. This value should be a quadratic residue modulo prime.\n\t* @param prime The prime modulus to use in the evaluation function\n\t*\n\t* @return index The index of the card as an offset minus 1 from the baseCard value (count of quadratic residues modulo prime). A 0\n\t* is returned if the value isn't a quadratc residue modulo prime or if the index exceeds 52.\n\t*/\n\tfunction getCardIndex(uint256 value, uint256 baseCard, uint256 prime) public returns (uint256 index) {\n\t\tindex = 1;\n\t\tif (value == baseCard) {\n\t\t\treturn (0);\n\t\t}\n\t\tindex++;\n\t\tuint256 baseVal = baseCard;\n\t\tuint256 exp = (prime-1)/2;\n\t\twhile (index < 53) {\n\t\t\tbaseVal++;\n\t\t\tif (modExp(baseVal, exp, prime) == 1) {\n\t\t\t\tif (baseVal == value) {\n\t\t\t\t\treturn (0);\n\t\t\t\t} else {\n\t\t\t\t\tindex++;\n\t\t\t\t}\n\t\t\t}\n\t\t}\n\t\tindex = 0;\n\t\treturn (0);\n\t}\n\n\t/*\n\t* Analyzes and scores a single 5-card permutation. Resulting scores ranges include:\n\t*\n\t* > 800000000 = straight/royal flush\n    * > 700000000 = four of a kind\n    * > 600000000 = full house\n    * > 500000000 = flush\n    * > 400000000 = straight\n    * > 300000000 = three of a kind\n    * > 200000000 = two pair\n    * > 100000000 = one pair\n    * > 0 = high card\n\t*/\n    function calculateHandScore() private returns (uint256) {\n\t\tuint256 workingHandScore=0;\n\t\tbool acesHigh=false;\n        sortWorkCards(acesHigh);\n        workingHandScore=scoreStraights(acesHigh);\n        if (workingHandScore==0) {\n           //may still be royal flush with ace high\n\t\t   acesHigh=true;\n\t\t   sortWorkCards(acesHigh);\n           workingHandScore=scoreStraights(acesHigh);\n        } else {\n           //straight / straight flush\n           clearGroups();\n           return (workingHandScore);\n        }\n        if (workingHandScore>0) {\n           //royal flush\n\t\t   clearGroups();\n           return (workingHandScore);\n        }\n        clearGroups();\n\t\tacesHigh=false;\n        groupWorkCards(true); //group by value\n        if (sortedGroups.length > 4) {\n\t\t    clearGroups();\n\t\t\tacesHigh=false;\n            groupWorkCards(false); //group by suit\n            workingHandScore=scoreGroups(false, acesHigh);\n        } else {\n            workingHandScore=scoreGroups(true, acesHigh);\n        }\n        if (workingHandScore==0) {\n\t\t\tacesHigh=true;\n\t\t    clearGroups();\n            workingHandScore=addCardValues(0, acesHigh);\n        }\n\t\tclearGroups();\n\t\treturn (workingHandScore);\n    }\n\n    /*\n\t* Group cards in the 'workCards' array. Card groups are stored in the 'sortedGroups' array in which each element\n\t* holds a group of cards.\n\t*\n\t* @param byValue If true work cards are grouped by (face) value otherwise they're grouped by suit.\n\t*/\n    function groupWorkCards(bool byValue) private {\n        for (uint count=0; count<5; count++) {\n            if (byValue == false) {\n                cardGroups[workCards[count].suit].push(Card(workCards[count].index, workCards[count].suit, workCards[count].value));\n            }\n            else {\n                cardGroups[workCards[count].value].push(Card(workCards[count].index, workCards[count].suit, workCards[count].value));\n            }\n        }\n        uint8 maxValue = 15;\n        if (byValue == false) {\n            maxValue = 4;\n        }\n        uint pushedCards=0;\n        for (uint8 count=0; count<maxValue; count++) {\n           for (uint8 count2=0; count2<cardGroups[count].length; count2++) {\n               sortedGroup.push(Card(cardGroups[count][count2].index, cardGroups[count][count2].suit, cardGroups[count][count2].value));\n               pushedCards++;\n           }\n           if (sortedGroup.length>0) {\n             sortedGroups.push(sortedGroup);\n\t\t\t sortedGroup.length=0;\n           }\n        }\n    }\n\n    /**\n     * Clear data found in 'sortedGroup', 'cardGroups', and 'sortedGroups'.\n     */\n    function clearGroups() private {\n         for (uint count=0; count<sortedGroup.length; count++) {\n             delete sortedGroup[count];\n        }\n        sortedGroup.length=0;\n\t\tfor (uint8 count=0; count<cardGroups.length; count++) {\n\t\t    delete cardGroups[count];\n        }\n        for (uint8 count=0; count<sortedGroups.length; count++) {\n             delete sortedGroups[count];\n        }\n        sortedGroups.length=0;\n    }\n\n    /*\n\t* Sort cards in the 'workCards' array by (face) value.\n\t*\n\t* @param acesHigh If true aces are ranked higher than kings otherwise aces are the lowest ranked cards.\n\t*/\n\tfunction sortWorkCards(bool acesHigh) private {\n        uint256 workValue;\n\t\tCard[5] memory swapCards;\n        for (uint8 value=1; value<15; value++) {\n            for (uint8 count=0; count < 5; count++) {\n                workValue=workCards[count].value;\n                if (acesHigh && (workValue==1)) {\n                    workValue=14;\n                }\n                if (workValue==value) {\n                    swapCards[count]=workCards[count];\n                }\n            }\n        }\n        for (uint8 count=0; count<swapCards.length; count++) {\n\t\t\tworkCards[count]=swapCards[count];\n        }\n    }\n\n   /*\n\t* Returns a score based on a straight in the current 5-card permutation stored in 'workCards'.\n\t*\n\t* @param acesHigh If true aces are ranked higher than kings otherwise they're ranked as the lowest card.\n\t*\n\t* @return A score representing the type of straight found in the 'workCards' array. If no straight is found 0 is returned.\n\t* A value between 400000000 and 499999999 is returned if a normal straight is found, and 800000000 to 899999999 is\n\t* returned if a straight flush is found.\n\t*/\n\tfunction scoreStraights(bool acesHigh) private returns (uint256) {\n        uint256 returnScore;\n        uint256 workValue;\n        for (uint8 count=1; count<5; count++) {\n            workValue = workCards[count].value;\n            if (acesHigh && (workValue==1)) {\n                workValue=14;\n            }\n            if ((workValue-workCards[count-1].value) != 1) {\n                //not a straight, delta between sucessive values must be 1\n                return (0);\n            }\n        }\n        uint256 suitMatch=workCards[0].suit;\n        returnScore=800000000; //straight flush\n        for (uint8 count=1; count<5; count++) {\n            if (workCards[count].suit != suitMatch) {\n                returnScore=400000000; //straight (not all suits match)\n                break;\n            }\n        }\n        return(addCardValues(returnScore, acesHigh));\n    }\n\n    /*\n\t* Returns a group score based on the current 5-card permutation, if either suit or face value groups exist in 'workCards'.\n\t*\n\t* @param valueGroups If true the score generated is based on the (face) values of the cards otherwise the score is generated\n\t* from suit groups.\n\t* @param acesHigh If true aces are ranked higher than kings otherwise they're ranked as the lowest cards.\n\t*\n\t* @return The highest score found in cards in the 'workCards' array based on the type of evaluation being done. Values\n\t* between 5 and 799999999 may be generated with the exception of straight scores (400000000 to 499999999, 800000000 to 899999999), which\n\t* are generated by the 'scoreStraights' function.\n\t*/\n    function scoreGroups(bool valueGroups, bool acesHigh) private returns (uint256) {\n        if (valueGroups) {\n            //cards grouped by value\n            if (checkGroupExists(4)) {\n                //four of a kind\n                acesHigh=true;\n                return (addCardValues(700000000, acesHigh));\n            }\n            else if (checkGroupExists(3) && checkGroupExists(2)) {\n                //full house\n                acesHigh=true;\n                return (addCardValues(600000000, acesHigh));\n            }\n            else if (checkGroupExists(3) && checkGroupExists(1)) {\n                //three of a kind\n                acesHigh=true;\n                return (addCardValues(300000000, acesHigh));\n            }\n            else if (checkGroupExists(2)){\n                uint8 groupCount=0;\n                for (uint8 count=0; count<sortedGroups.length; count++) {\n                    if (sortedGroups[count].length == 2) {\n                        groupCount++;\n                    }\n                }\n                acesHigh=true;\n                if (groupCount > 1)  {\n                    //two pair\n                   return (addCardValues(200000000, acesHigh));\n                } else {\n                    //one pair\n                    return (addCardValues(100000000, acesHigh));\n                }\n            }\n        } else {\n            //cards grouped by suit\n            if (sortedGroups[0].length==5) {\n                //flush\n                acesHigh=true;\n                return (addCardValues(500000000, acesHigh));\n            }\n        }\n        return (0);\n    }\n\n\t/*\n\t* Returns true if a group exists that has a specified number of members (cards) in it.\n\t*\n\t* @param memberCount The expected number of members or cards expected in the 'sortedGroups' array.\n\t*\n\t* @return True if 'memberCount' card/member groups exist in the 'sortedGroups' array, false otherwise.\n\t*/\n    function checkGroupExists(uint8 memberCount) private returns (bool) {\n        for (uint8 count=0; count<sortedGroups.length; count++) {\n            if (sortedGroups[count].length == memberCount) {\n                return (true);\n            }\n        }\n        return (false);\n    }\n\n    /*\n\t* Adds individual card values to a hand score. This is typically applied after base group or straight scoring has been calculated.\n\t*\n\t* @param startingValue The starting or base hand score to which to add individual card values.\n\t* @param acesHigh If true aces are scored as ranking higher than kings otherwise they're the lowest ranking cards.\n\t*\n\t* @return The calculated hand value incorporating the base 'startingValue' and individual card (face) values.\n\t*/\n\tfunction addCardValues(uint256 startingValue, bool acesHigh) private returns (uint256) {\n        uint256 groupLength=0;\n        uint256 workValue;\n        uint256 highestValue = 0;\n        uint256 highestGroupValue = 0;\n        uint256 longestGroup = 0;\n      //  uint8 count=0;\n        if (sortedGroups.length > 1) {\n            for (uint8 count=0; count<sortedGroups.length; count++) {\n                groupLength=getSortedGroupLength32(count);\n                for (uint8 count2=0; count2<sortedGroups[count].length; count2++) {\n                    workValue=sortedGroups[count][count2].value;\n                    if (acesHigh && (workValue==1)) {\n                       workValue=14;\n                    }\n                    if ((sortedGroups[count].length>1) && (sortedGroups[count].length<5)) {\n                        startingValue+=(workValue * (10**(groupLength+2))); //start at 100000\n                        if ((longestGroup<groupLength) || ((longestGroup==groupLength) && (workValue > highestGroupValue))) {\n                            //add weight to longest group or to work value when group lengths are equal (two pair)\n                            highestGroupValue=workValue;\n                            longestGroup=groupLength;\n                        }\n                    }\n                    else {\n                        startingValue+=workValue;\n                        if (workValue > highestValue) highestValue=workValue;\n                    }\n                }\n            }\n            startingValue+=highestValue**3;\n            startingValue+=highestGroupValue*1000000;\n        } else {\n            //bool isFlush=(workCards.length == sortedGroups[0].length);\n            for (uint8 count=0; count<5; count++) {\n                workValue=workCards[count].value;\n                if (acesHigh && (workValue==1)) {\n                   workValue=14;\n                }\n                startingValue+=workValue**(count+1); //cards are sorted so count+1 produces weight\n                if (workValue > highestValue) {\n                    highestValue=workValue;\n                }\n            }\n            startingValue+=highestValue*1000000;\n        }\n        return (startingValue);\n    }\n\n    /*\n    * Returns the group length of a specific sorted group in the 'sortedGroups' array as a uint32 value.\n\t*\n\t* @param index The index (0-based) of the group in the 'sortedGroups' array to get a length for.\n\t*\n\t* @return The length of the group 'sortedGroups[index]' as a uint32 value (normally the 'length' property is\n\t* returned as a uint256 value).\n    */\n    function getSortedGroupLength32(uint8 index) private returns (uint32) {\n        uint32 returnVal;\n         for (uint8 count=0; count<sortedGroups[index].length; count++) {\n             returnVal++;\n         }\n         return (returnVal);\n    }\n}\n\ncontract PokerHandData {\n\tstruct Card {\n        uint index;\n        uint suit;\n        uint value;\n    }\n\tstruct CardGroup {\n       Card[] cards;\n    }\n\tstruct Key {\n        uint256 encKey;\n        uint256 decKey;\n        uint256 prime;\n    }\n    address public owner;\n    address[] public authorizedGameContracts;\n\tuint public numAuthorizedContracts;\n    address[] public players;\n    uint256 public buyIn;\n    mapping (address => bool) public agreed;\n\tuint256 public prime;\n    uint256 public baseCard;\n    mapping (address => uint256) public playerBets;\n\tmapping (address => uint256) public playerChips;\n\tmapping (address => bool) public playerHasBet;\n\tbool public bigBlindHasBet;\n    uint256 public pot;\n    uint public betPosition;\n    mapping (address => uint256[52]) public encryptedDeck;\n    mapping (address => uint256[2]) public privateCards;\n    struct DecryptPrivateCardsStruct {\n        address sourceAddr;\n        address targetAddr;\n        uint256[2] cards;\n    }\n    DecryptPrivateCardsStruct[] public privateDecryptCards;\n    uint256[5] public publicCards;\n\tmapping (address => uint256[5]) public publicDecryptCards;\n    mapping (address => Key[]) public playerKeys;\n    mapping (address => uint[5]) public playerBestHands;\n    mapping (address => Card[]) public playerCards;\n    mapping (address => uint256) public results;\n    mapping (address => address) public declaredWinner;\n    address[] public winner;\n    uint public lastActionBlock;\n    uint public timeoutBlocks;\n\tuint public initBlock;\n\tmapping (address => uint) public nonces;\n    mapping (address => uint) public validationIndex;\n    address public challenger;\n\tbool public complete;\n\tbool public initReady;\n    mapping (address => uint8) public phases;\n\n  //\tfunction PokerHandData() {}\n\tfunction () external {}\n\tmodifier onlyAuthorized {\n\t\tuint allowedContractsFound = 0;\n        for (uint count=0; count<authorizedGameContracts.length; count++) {\n            if (msg.sender == authorizedGameContracts[count]) {\n                allowedContractsFound++;\n            }\n        }\n        if (allowedContractsFound == 0) {\n             revert();\n        }\n        _;\n\t}\n\tfunction agreeToContract(uint256 nonce) payable public {}\n\tfunction initialize(uint256 primeVal, uint256 baseCardVal, uint256 buyInVal, uint timeoutBlocksVal) public onlyAuthorized {}\n  function getPrivateDecryptCard(address sourceAddr, address targetAddr, uint cardIndex) view public returns (uint256) {}\n    function allPlayersAtPhase(uint phaseNum) public view returns (bool) {}\n    function num_Players() public view returns (uint) {}\n\tfunction num_Keys(address target) public view returns (uint) {}\n\tfunction num_PlayerCards(address target) public view returns (uint) {}\n\tfunction num_PrivateCards(address targetAddr) public view returns (uint) {}\n\tfunction num_PublicCards() public view returns (uint) {}\n\tfunction num_PrivateDecryptCards(address sourceAddr, address targetAddr) public view returns (uint) {}\n\tfunction num_winner() public view returns (uint) {}\n\tfunction setAuthorizedGameContracts (address[] memory contractAddresses) public {}\n\tfunction add_playerCard(address playerAddress, uint index, uint suit, uint value) public onlyAuthorized {}\n    function update_playerCard(address playerAddress, uint cardIndex, uint index, uint suit, uint value) public onlyAuthorized {}\n    function set_validationIndex(address playerAddress, uint index) public onlyAuthorized {}\n\tfunction set_result(address playerAddress, uint256 result) public onlyAuthorized {}\n\tfunction set_complete (bool completeSet) public onlyAuthorized {}\n\tfunction set_publicCard (uint256 card, uint index) public onlyAuthorized {}\n\tfunction set_encryptedDeck (address fromAddr, uint256[] memory cards) public onlyAuthorized {}\n\tfunction set_privateCards (address fromAddr, uint256[] memory cards) public onlyAuthorized {}\n\tfunction set_betPosition (uint betPositionVal) public onlyAuthorized {}\n\tfunction set_bigBlindHasBet (bool bigBlindHasBetVal) public onlyAuthorized {}\n\tfunction set_playerHasBet (address fromAddr, bool hasBet) public onlyAuthorized {}\n\tfunction set_playerBets (address fromAddr, uint betVal) public onlyAuthorized {}\n\tfunction set_playerChips (address forAddr, uint numChips) public onlyAuthorized {}\n\tfunction set_pot (uint potVal) public onlyAuthorized {}\n\tfunction set_agreed (address fromAddr, bool agreedVal) public onlyAuthorized {}\n\tfunction add_winner (address winnerAddress) public onlyAuthorized {}\n\tfunction clear_winner () public onlyAuthorized {}\n\tfunction new_players (address[] memory newPlayers) public onlyAuthorized {}\n\tfunction set_phase (address fromAddr, uint8 phaseNum) public onlyAuthorized {}\n\tfunction set_lastActionBlock(uint blockNum) public onlyAuthorized {}\n\tfunction set_privateDecryptCards (address fromAddr, uint256[] memory cards, address targetAddr) public onlyAuthorized {}\n\tfunction set_publicCards (address fromAddr, uint256[] memory cards) public onlyAuthorized {}\n\tfunction set_publicDecryptCards (address fromAddr, uint256[] memory cards) public onlyAuthorized {}\n\tfunction add_declaredWinner(address fromAddr, address winnerAddr) public onlyAuthorized {}\n    function privateDecryptCardsIndex (address sourceAddr, address targetAddr) public onlyAuthorized returns (uint) {}\n\tfunction set_playerBestHands(address fromAddr, uint cardIndex, uint256 card) public onlyAuthorized {}\n\tfunction add_playerKeys(address fromAddr, uint256[] memory encKeys, uint256[] memory decKeys) public onlyAuthorized {}\n\tfunction remove_playerKeys(address fromAddr) public onlyAuthorized {}\n\tfunction set_challenger(address challengerAddr) public onlyAuthorized {}\n\tfunction pay (address toAddr, uint amount) public onlyAuthorized returns (bool) {}\n\tfunction publicDecryptCardsInfo() public view returns (uint maxLength, uint playersAtMaxLength) {}\n    function length_encryptedDeck(address fromAddr) public view returns (uint) {}\n}\n",
  "sourcePath": "/home/patrick/Desktop/Tomo Poker/cypherpoker.js/solidity/contracts/PokerHandValidator.sol",
  "compiler": {
    "name": "solc",
    "version": "0.5.8+commit.23d335f2.Emscripten.clang"
  },
  "schemaVersion": "3.0.16",
  "updatedAt": "2019-09-27T18:12:55.426Z",
  "devdoc": {
    "methods": {
      "challenge(address,address)": {
        "params": {
          "challenger": "The address of the challenging player.",
          "dataAddr": "The address of the PokerHandData contract to work with."
        },
        "return": "True if the current challenge verification step was successfully completed and the source contract's validation index has been updated."
      },
      "getCardIndex(uint256,uint256,uint256)": {
        "params": {
          "baseCard": "The base, or lowest, card value in the card deck. This value should be a quadratic residue modulo prime.",
          "prime": "The prime modulus to use in the evaluation function",
          "value": "The plaintext card value for which to return an index."
        },
        "return": "index The index of the card as an offset minus 1 from the baseCard value (count of quadratic residues modulo prime). A 0 is returned if the value isn't a quadratc residue modulo prime or if the index exceeds 52."
      },
      "validate(address,address)": {
        "params": {
          "dataAddr": "The address of the PokerHandData contract to work with.",
          "msgSender": "The address of the sending/invoking player."
        },
        "return": "True if the current validation step was successfully completed and the source contract's validation index has been updated."
      }
    }
  },
  "userdoc": {
    "methods": {
      "challenge(address,address)": {
        "notice": "Performs one round of mid-game challenge validation. The contract address being validated is evaluated from msg.sender"
      },
      "constructor": "Contract constructor.",
      "getCardIndex(uint256,uint256,uint256)": {
        "notice": "Returns a the card index of a supplied value. Card indexes are calculated as offsets of quadratic residues modulo prime (storage) with respect to baseCard. If 0 is returned then the supplied value is not a valid card.\t*"
      },
      "validate(address,address)": {
        "notice": "Performs one round of validation on a target contract. The contract address being validated is evaluated from msg.sender"
      }
    },
    "notice": "* Provides validation functionality such as hand decryption, scoring, and ranking for an authorizing PokerHandData contract. * (C)opyright 2016 to 2017 * This source code is protected by copyright and distributed under license. Please see the root LICENSE file for terms and conditions. *"
  }
}