{
  "contractName": "PokerHandSignedActions",
  "abi": [
    {
      "constant": true,
      "inputs": [],
      "name": "owner",
      "outputs": [
        {
          "name": "",
          "type": "address"
        }
      ],
      "payable": false,
      "stateMutability": "view",
      "type": "function"
    },
    {
      "inputs": [],
      "payable": false,
      "stateMutability": "nonpayable",
      "type": "constructor"
    },
    {
      "payable": false,
      "stateMutability": "nonpayable",
      "type": "fallback"
    },
    {
      "constant": false,
      "inputs": [
        {
          "name": "dataAddr",
          "type": "address"
        },
        {
          "name": "winnerAddr",
          "type": "address[]"
        },
        {
          "name": "players",
          "type": "address[]"
        },
        {
          "name": "playerBets",
          "type": "uint256[]"
        }
      ],
      "name": "endHand",
      "outputs": [],
      "payable": false,
      "stateMutability": "nonpayable",
      "type": "function"
    },
    {
      "constant": false,
      "inputs": [
        {
          "name": "dataAddr",
          "type": "address"
        }
      ],
      "name": "endContract",
      "outputs": [],
      "payable": false,
      "stateMutability": "nonpayable",
      "type": "function"
    },
    {
      "constant": true,
      "inputs": [
        {
          "name": "dataAddr",
          "type": "address"
        }
      ],
      "name": "hasTimedOut",
      "outputs": [
        {
          "name": "",
          "type": "bool"
        }
      ],
      "payable": false,
      "stateMutability": "view",
      "type": "function"
    },
    {
      "constant": false,
      "inputs": [
        {
          "name": "dataAddr",
          "type": "address"
        }
      ],
      "name": "activate",
      "outputs": [],
      "payable": false,
      "stateMutability": "nonpayable",
      "type": "function"
    },
    {
      "constant": false,
      "inputs": [
        {
          "name": "dataAddr",
          "type": "address"
        },
        {
          "name": "hash",
          "type": "bytes32"
        },
        {
          "name": "v",
          "type": "uint8"
        },
        {
          "name": "r",
          "type": "bytes32"
        },
        {
          "name": "s",
          "type": "bytes32"
        }
      ],
      "name": "processSignedTransaction",
      "outputs": [],
      "payable": false,
      "stateMutability": "nonpayable",
      "type": "function"
    },
    {
      "constant": true,
      "inputs": [
        {
          "name": "data",
          "type": "bytes32"
        },
        {
          "name": "v",
          "type": "uint8"
        },
        {
          "name": "r",
          "type": "bytes32"
        },
        {
          "name": "s",
          "type": "bytes32"
        }
      ],
      "name": "verifySignature",
      "outputs": [
        {
          "name": "",
          "type": "address"
        }
      ],
      "payable": false,
      "stateMutability": "view",
      "type": "function"
    },
    {
      "constant": false,
      "inputs": [
        {
          "name": "input",
          "type": "uint256"
        }
      ],
      "name": "uintToBytes32",
      "outputs": [
        {
          "name": "result",
          "type": "bytes32"
        }
      ],
      "payable": false,
      "stateMutability": "nonpayable",
      "type": "function"
    },
    {
      "constant": false,
      "inputs": [
        {
          "name": "input",
          "type": "bytes32"
        }
      ],
      "name": "bytes32ToString",
      "outputs": [
        {
          "name": "",
          "type": "string"
        }
      ],
      "payable": false,
      "stateMutability": "nonpayable",
      "type": "function"
    }
  ],
  "bytecode": "0x608060405234801561001057600080fd5b50336000806101000a81548173ffffffffffffffffffffffffffffffffffffffff021916908373ffffffffffffffffffffffffffffffffffffffff160217905550612738806100606000396000f3fe608060405234801561001057600080fd5b50600436106100935760003560e01c80639201de55116100665780639201de55146101d7578063969578691461027e578063c383e0201461030d578063d8a9d1bf14610351578063f7313b961461055157610093565b80631c5a9d9c146100985780633b377377146100dc578063886d3db91461014b5780638da5cb5b1461018d575b600080fd5b6100da600480360360208110156100ae57600080fd5b81019080803573ffffffffffffffffffffffffffffffffffffffff1690602001909291905050506105ad565b005b610149600480360360a08110156100f257600080fd5b81019080803573ffffffffffffffffffffffffffffffffffffffff16906020019092919080359060200190929190803560ff16906020019092919080359060200190929190803590602001909291905050506106ab565b005b6101776004803603602081101561016157600080fd5b8101908080359060200190929190505050610839565b6040518082815260200191505060405180910390f35b6101956108db565b604051808273ffffffffffffffffffffffffffffffffffffffff1673ffffffffffffffffffffffffffffffffffffffff16815260200191505060405180910390f35b610203600480360360208110156101ed57600080fd5b8101908080359060200190929190505050610900565b6040518080602001828103825283818151815260200191508051906020019080838360005b83811015610243578082015181840152602081019050610228565b50505050905090810190601f1680156102705780820380516001836020036101000a031916815260200191505b509250505060405180910390f35b6102cb6004803603608081101561029457600080fd5b8101908080359060200190929190803560ff1690602001909291908035906020019092919080359060200190929190505050610a9c565b604051808273ffffffffffffffffffffffffffffffffffffffff1673ffffffffffffffffffffffffffffffffffffffff16815260200191505060405180910390f35b61034f6004803603602081101561032357600080fd5b81019080803573ffffffffffffffffffffffffffffffffffffffff169060200190929190505050610b0f565b005b61054f6004803603608081101561036757600080fd5b81019080803573ffffffffffffffffffffffffffffffffffffffff169060200190929190803590602001906401000000008111156103a457600080fd5b8201836020820111156103b657600080fd5b803590602001918460208302840111640100000000831117156103d857600080fd5b919080806020026020016040519081016040528093929190818152602001838360200280828437600081840152601f19601f8201169050808301925050505050505091929192908035906020019064010000000081111561043857600080fd5b82018360208201111561044a57600080fd5b8035906020019184602083028401116401000000008311171561046c57600080fd5b919080806020026020016040519081016040528093929190818152602001838360200280828437600081840152601f19601f820116905080830192505050505050509192919290803590602001906401000000008111156104cc57600080fd5b8201836020820111156104de57600080fd5b8035906020019184602083028401116401000000008311171561050057600080fd5b919080806020026020016040519081016040528093929190818152602001838360200280828437600081840152601f19601f82011690508083019250505050505050919291929050505061138d565b005b6105936004803603602081101561056757600080fd5b81019080803573ffffffffffffffffffffffffffffffffffffffff1690602001909291905050506124ca565b604051808215151515815260200191505060405180910390f35b600081905060008173ffffffffffffffffffffffffffffffffffffffff1663a6dc73186040518163ffffffff1660e01b815260040160206040518083038186803b1580156105fa57600080fd5b505afa15801561060e573d6000803e3d6000fd5b505050506040513d602081101561062457600080fd5b810190808051906020019092919050505014156106a7578073ffffffffffffffffffffffffffffffffffffffff166362be90b0436040518263ffffffff1660e01b815260040180828152602001915050600060405180830381600087803b15801561068e57600080fd5b505af11580156106a2573d6000803e3d6000fd5b505050505b5050565b600085905060006106be86868686610a9c565b9050600080905060008090505b8373ffffffffffffffffffffffffffffffffffffffff166350d9e6856040518163ffffffff1660e01b815260040160206040518083038186803b15801561071157600080fd5b505afa158015610725573d6000803e3d6000fd5b505050506040513d602081101561073b57600080fd5b8101908080519060200190929190505050811015610824578273ffffffffffffffffffffffffffffffffffffffff168473ffffffffffffffffffffffffffffffffffffffff1663f71d96cb836040518263ffffffff1660e01b81526004018082815260200191505060206040518083038186803b1580156107bb57600080fd5b505afa1580156107cf573d6000803e3d6000fd5b505050506040513d60208110156107e557600080fd5b810190808051906020019092919050505073ffffffffffffffffffffffffffffffffffffffff16141561081757600191505b80806001019150506106cb565b508061082f57600080fd5b5050505050505050565b60008082141561086b577f300000000000000000000000000000000000000000000000000000000000000090506108d3565b5b60008211156108d2576101008160001c8161088357fe5b0460001b90507f01000000000000000000000000000000000000000000000000000000000000006030600a84816108b657fe5b06010260001b81179050600a82816108ca57fe5b04915061086c565b5b809050919050565b6000809054906101000a900473ffffffffffffffffffffffffffffffffffffffff1681565b60608060206040519080825280601f01601f1916602001820160405280156109375781602001600182028038833980820191505090505b509050600080905060008090505b60208110156109e15760008160080260020a8660001c0260001b9050600060f81b817effffffffffffffffffffffffffffffffffffffffffffffffffffffffffffff1916146109d3578084838151811061099b57fe5b60200101907effffffffffffffffffffffffffffffffffffffffffffffffffffffffffffff1916908160001a90535082806001019350505b508080600101915050610945565b506060816040519080825280601f01601f191660200182016040528015610a175781602001600182028038833980820191505090505b50905060008090505b828160ff161015610a9057838160ff1681518110610a3a57fe5b602001015160f81c60f81b828260ff1681518110610a5457fe5b60200101907effffffffffffffffffffffffffffffffffffffffffffffffffffffffffffff1916908160001a9053508080600101915050610a20565b50809350505050919050565b600060018585858560405160008152602001604052604051808581526020018460ff1660ff1681526020018381526020018281526020019450505050506020604051602081039080840390855afa158015610afb573d6000803e3d6000fd5b505050602060405103519050949350505050565b6000819050600115158173ffffffffffffffffffffffffffffffffffffffff1663522e11776040518163ffffffff1660e01b815260040160206040518083038186803b158015610b5e57600080fd5b505afa158015610b72573d6000803e3d6000fd5b505050506040513d6020811015610b8857600080fd5b810190808051906020019092919050505015151480610c2b5750600015158173ffffffffffffffffffffffffffffffffffffffff16632f815c646040518163ffffffff1660e01b815260040160206040518083038186803b158015610bec57600080fd5b505afa158015610c00573d6000803e3d6000fd5b505050506040513d6020811015610c1657600080fd5b81019080805190602001909291905050501515145b15610c3557600080fd5b8073ffffffffffffffffffffffffffffffffffffffff166343f97e9e3360156040518363ffffffff1660e01b8152600401808373ffffffffffffffffffffffffffffffffffffffff1673ffffffffffffffffffffffffffffffffffffffff1681526020018260ff16815260200192505050600060405180830381600087803b158015610cc057600080fd5b505af1158015610cd4573d6000803e3d6000fd5b505050508073ffffffffffffffffffffffffffffffffffffffff166362be90b0436040518263ffffffff1660e01b815260040180828152602001915050600060405180830381600087803b158015610d2b57600080fd5b505af1158015610d3f573d6000803e3d6000fd5b505050508073ffffffffffffffffffffffffffffffffffffffff16639b1ac0ef60156040518263ffffffff1660e01b81526004018082815260200191505060206040518083038186803b158015610d9557600080fd5b505afa158015610da9573d6000803e3d6000fd5b505050506040513d6020811015610dbf57600080fd5b810190808051906020019092919050505080610de05750610ddf826124ca565b5b156113895760008090505b8173ffffffffffffffffffffffffffffffffffffffff166350d9e6856040518163ffffffff1660e01b815260040160206040518083038186803b158015610e3157600080fd5b505afa158015610e45573d6000803e3d6000fd5b505050506040513d6020811015610e5b57600080fd5b81019080805190602001909291905050508110156113875760008273ffffffffffffffffffffffffffffffffffffffff166327ef8c998473ffffffffffffffffffffffffffffffffffffffff1663f71d96cb856040518263ffffffff1660e01b81526004018082815260200191505060206040518083038186803b158015610ee257600080fd5b505afa158015610ef6573d6000803e3d6000fd5b505050506040513d6020811015610f0c57600080fd5b81019080805190602001909291905050506040518263ffffffff1660e01b8152600401808273ffffffffffffffffffffffffffffffffffffffff1673ffffffffffffffffffffffffffffffffffffffff16815260200191505060206040518083038186803b158015610f7d57600080fd5b505afa158015610f91573d6000803e3d6000fd5b505050506040513d6020811015610fa757600080fd5b8101908080519060200190929190505050111561137a578173ffffffffffffffffffffffffffffffffffffffff1663c40768768373ffffffffffffffffffffffffffffffffffffffff1663f71d96cb846040518263ffffffff1660e01b81526004018082815260200191505060206040518083038186803b15801561102b57600080fd5b505afa15801561103f573d6000803e3d6000fd5b505050506040513d602081101561105557600080fd5b81019080805190602001909291905050508473ffffffffffffffffffffffffffffffffffffffff166327ef8c998673ffffffffffffffffffffffffffffffffffffffff1663f71d96cb876040518263ffffffff1660e01b81526004018082815260200191505060206040518083038186803b1580156110d357600080fd5b505afa1580156110e7573d6000803e3d6000fd5b505050506040513d60208110156110fd57600080fd5b81019080805190602001909291905050506040518263ffffffff1660e01b8152600401808273ffffffffffffffffffffffffffffffffffffffff1673ffffffffffffffffffffffffffffffffffffffff16815260200191505060206040518083038186803b15801561116e57600080fd5b505afa158015611182573d6000803e3d6000fd5b505050506040513d602081101561119857600080fd5b81019080805190602001909291905050506040518363ffffffff1660e01b8152600401808373ffffffffffffffffffffffffffffffffffffffff1673ffffffffffffffffffffffffffffffffffffffff16815260200182815260200192505050602060405180830381600087803b15801561121257600080fd5b505af1158015611226573d6000803e3d6000fd5b505050506040513d602081101561123c57600080fd5b8101908080519060200190929190505050508173ffffffffffffffffffffffffffffffffffffffff1663af94b0758373ffffffffffffffffffffffffffffffffffffffff1663f71d96cb846040518263ffffffff1660e01b81526004018082815260200191505060206040518083038186803b1580156112bb57600080fd5b505afa1580156112cf573d6000803e3d6000fd5b505050506040513d60208110156112e557600080fd5b810190808051906020019092919050505060006040518363ffffffff1660e01b8152600401808373ffffffffffffffffffffffffffffffffffffffff1673ffffffffffffffffffffffffffffffffffffffff16815260200182815260200192505050600060405180830381600087803b15801561136157600080fd5b505af1158015611375573d6000803e3d6000fd5b505050505b8080600101915050610deb565b505b5050565b6000849050600015158173ffffffffffffffffffffffffffffffffffffffff1663a5b8f210336040518263ffffffff1660e01b8152600401808273ffffffffffffffffffffffffffffffffffffffff1673ffffffffffffffffffffffffffffffffffffffff16815260200191505060206040518083038186803b15801561141357600080fd5b505afa158015611427573d6000803e3d6000fd5b505050506040513d602081101561143d57600080fd5b81019080805190602001909291905050501515141561145b57600080fd5b60138173ffffffffffffffffffffffffffffffffffffffff1663c842fc13336040518263ffffffff1660e01b8152600401808273ffffffffffffffffffffffffffffffffffffffff1673ffffffffffffffffffffffffffffffffffffffff16815260200191505060206040518083038186803b1580156114da57600080fd5b505afa1580156114ee573d6000803e3d6000fd5b505050506040513d602081101561150457600080fd5b810190808051906020019092919050505060ff16111561152357600080fd5b600080905060008090505b85518110156117735760008090505b8373ffffffffffffffffffffffffffffffffffffffff166349cd5efc6040518163ffffffff1660e01b815260040160206040518083038186803b15801561158357600080fd5b505afa158015611597573d6000803e3d6000fd5b505050506040513d60208110156115ad57600080fd5b81019080805190602001909291905050508110156116ad578373ffffffffffffffffffffffffffffffffffffffff16631cbeae5e826040518263ffffffff1660e01b81526004018082815260200191505060206040518083038186803b15801561161657600080fd5b505afa15801561162a573d6000803e3d6000fd5b505050506040513d602081101561164057600080fd5b810190808051906020019092919050505073ffffffffffffffffffffffffffffffffffffffff1687838151811061167357fe5b602002602001015173ffffffffffffffffffffffffffffffffffffffff1614156116a05782806001019350505b808060010191505061153d565b506000821415611762578273ffffffffffffffffffffffffffffffffffffffff1663e81df3a08783815181106116df57fe5b60200260200101516040518263ffffffff1660e01b8152600401808273ffffffffffffffffffffffffffffffffffffffff1673ffffffffffffffffffffffffffffffffffffffff168152602001915050600060405180830381600087803b15801561174957600080fd5b505af115801561175d573d6000803e3d6000fd5b505050505b60009150808060010191505061152e565b5060008090505b84518160ff16101561185e578273ffffffffffffffffffffffffffffffffffffffff16632b098430868360ff16815181106117b157fe5b6020026020010151868460ff16815181106117c857fe5b60200260200101516040518363ffffffff1660e01b8152600401808373ffffffffffffffffffffffffffffffffffffffff1673ffffffffffffffffffffffffffffffffffffffff16815260200182815260200192505050600060405180830381600087803b15801561183957600080fd5b505af115801561184d573d6000803e3d6000fd5b50505050808060010191505061177a565b508173ffffffffffffffffffffffffffffffffffffffff16637dd25c1f60016040518263ffffffff1660e01b81526004018082151515158152602001915050600060405180830381600087803b1580156118b757600080fd5b505af11580156118cb573d6000803e3d6000fd5b505050508173ffffffffffffffffffffffffffffffffffffffff166343f97e9e3360146040518363ffffffff1660e01b8152600401808373ffffffffffffffffffffffffffffffffffffffff1673ffffffffffffffffffffffffffffffffffffffff1681526020018260ff16815260200192505050600060405180830381600087803b15801561195a57600080fd5b505af115801561196e573d6000803e3d6000fd5b505050508173ffffffffffffffffffffffffffffffffffffffff16639b1ac0ef60146040518263ffffffff1660e01b81526004018082815260200191505060206040518083038186803b1580156119c457600080fd5b505afa1580156119d8573d6000803e3d6000fd5b505050506040513d60208110156119ee57600080fd5b8101908080519060200190929190505050156124c25760008090505b84518160ff161015611b1257838160ff1681518110611a2557fe5b60200260200101518373ffffffffffffffffffffffffffffffffffffffff1663c7aa327b878460ff1681518110611a5857fe5b60200260200101516040518263ffffffff1660e01b8152600401808273ffffffffffffffffffffffffffffffffffffffff1673ffffffffffffffffffffffffffffffffffffffff16815260200191505060206040518083038186803b158015611ac057600080fd5b505afa158015611ad4573d6000803e3d6000fd5b505050506040513d6020811015611aea57600080fd5b810190808051906020019092919050505014611b0557600080fd5b8080600101915050611a0a565b506000905060008090505b85518160ff161015611cb65760008090505b8373ffffffffffffffffffffffffffffffffffffffff166349cd5efc6040518163ffffffff1660e01b815260040160206040518083038186803b158015611b7557600080fd5b505afa158015611b89573d6000803e3d6000fd5b505050506040513d6020811015611b9f57600080fd5b81019080805190602001909291905050508160ff161015611ca8578373ffffffffffffffffffffffffffffffffffffffff16631cbeae5e826040518263ffffffff1660e01b8152600401808260ff16815260200191505060206040518083038186803b158015611c0e57600080fd5b505afa158015611c22573d6000803e3d6000fd5b505050506040513d6020811015611c3857600080fd5b810190808051906020019092919050505073ffffffffffffffffffffffffffffffffffffffff16878360ff1681518110611c6e57fe5b602002602001015173ffffffffffffffffffffffffffffffffffffffff161415611c9b5782806001019350505b8080600101915050611b2f565b508080600101915050611b1d565b5084518114611cc457600080fd5b600080905060008090505b85518160ff161015611e9d57848160ff1681518110611cea57fe5b6020026020010151820191508373ffffffffffffffffffffffffffffffffffffffff1663af94b075878360ff1681518110611d2157fe5b6020026020010151878460ff1681518110611d3857fe5b60200260200101518773ffffffffffffffffffffffffffffffffffffffff166327ef8c998b8760ff1681518110611d6b57fe5b60200260200101516040518263ffffffff1660e01b8152600401808273ffffffffffffffffffffffffffffffffffffffff1673ffffffffffffffffffffffffffffffffffffffff16815260200191505060206040518083038186803b158015611dd357600080fd5b505afa158015611de7573d6000803e3d6000fd5b505050506040513d6020811015611dfd57600080fd5b8101908080519060200190929190505050036040518363ffffffff1660e01b8152600401808373ffffffffffffffffffffffffffffffffffffffff1673ffffffffffffffffffffffffffffffffffffffff16815260200182815260200192505050600060405180830381600087803b158015611e7857600080fd5b505af1158015611e8c573d6000803e3d6000fd5b505050508080600101915050611ccf565b5060008090505b86518160ff16101561204b578373ffffffffffffffffffffffffffffffffffffffff1663af94b075888360ff1681518110611edb57fe5b602002602001015189518581611eed57fe5b048773ffffffffffffffffffffffffffffffffffffffff166327ef8c998c8760ff1681518110611f1957fe5b60200260200101516040518263ffffffff1660e01b8152600401808273ffffffffffffffffffffffffffffffffffffffff1673ffffffffffffffffffffffffffffffffffffffff16815260200191505060206040518083038186803b158015611f8157600080fd5b505afa158015611f95573d6000803e3d6000fd5b505050506040513d6020811015611fab57600080fd5b8101908080519060200190929190505050016040518363ffffffff1660e01b8152600401808373ffffffffffffffffffffffffffffffffffffffff1673ffffffffffffffffffffffffffffffffffffffff16815260200182815260200192505050600060405180830381600087803b15801561202657600080fd5b505af115801561203a573d6000803e3d6000fd5b505050508080600101915050611ea4565b5060008090505b85518160ff161015612294578373ffffffffffffffffffffffffffffffffffffffff166343f97e9e878360ff168151811061208957fe5b602002602001015160006040518363ffffffff1660e01b8152600401808373ffffffffffffffffffffffffffffffffffffffff1673ffffffffffffffffffffffffffffffffffffffff1681526020018260ff16815260200192505050600060405180830381600087803b1580156120ff57600080fd5b505af1158015612113573d6000803e3d6000fd5b505050508373ffffffffffffffffffffffffffffffffffffffff166334b0d0f5878360ff168151811061214257fe5b602002602001015160006040518363ffffffff1660e01b8152600401808373ffffffffffffffffffffffffffffffffffffffff1673ffffffffffffffffffffffffffffffffffffffff1681526020018215151515815260200192505050600060405180830381600087803b1580156121b957600080fd5b505af11580156121cd573d6000803e3d6000fd5b505050508373ffffffffffffffffffffffffffffffffffffffff16632b098430878360ff16815181106121fc57fe5b602002602001015160006040518363ffffffff1660e01b8152600401808373ffffffffffffffffffffffffffffffffffffffff1673ffffffffffffffffffffffffffffffffffffffff16815260200182815260200192505050600060405180830381600087803b15801561226f57600080fd5b505af1158015612283573d6000803e3d6000fd5b505050508080600101915050612052565b508273ffffffffffffffffffffffffffffffffffffffff16631f59446f6040518163ffffffff1660e01b8152600401600060405180830381600087803b1580156122dd57600080fd5b505af11580156122f1573d6000803e3d6000fd5b5050505060608373ffffffffffffffffffffffffffffffffffffffff16639f9cf361826040518263ffffffff1660e01b81526004018080602001828103825283818151815260200191508051906020019060200280838360005b8381101561236657808201518184015260208101905061234b565b5050505090500192505050600060405180830381600087803b15801561238b57600080fd5b505af115801561239f573d6000803e3d6000fd5b505050508373ffffffffffffffffffffffffffffffffffffffff16637dd25c1f60006040518263ffffffff1660e01b81526004018082151515158152602001915050600060405180830381600087803b1580156123fb57600080fd5b505af115801561240f573d6000803e3d6000fd5b505050508373ffffffffffffffffffffffffffffffffffffffff16639f9cf361876040518263ffffffff1660e01b81526004018080602001828103825283818151815260200191508051906020019060200280838360005b83811015612482578082015181840152602081019050612467565b5050505090500192505050600060405180830381600087803b1580156124a757600080fd5b505af11580156124bb573d6000803e3d6000fd5b5050505050505b505050505050565b60008082905060008173ffffffffffffffffffffffffffffffffffffffff1663a6dc73186040518163ffffffff1660e01b815260040160206040518083038186803b15801561251857600080fd5b505afa15801561252c573d6000803e3d6000fd5b505050506040513d602081101561254257600080fd5b810190808051906020019092919050505014806125df575060008173ffffffffffffffffffffffffffffffffffffffff16632ebe14b06040518163ffffffff1660e01b815260040160206040518083038186803b1580156125a257600080fd5b505afa1580156125b6573d6000803e3d6000fd5b505050506040513d60208110156125cc57600080fd5b8101908080519060200190929190505050145b156125ee576000915050612707565b438173ffffffffffffffffffffffffffffffffffffffff16632ebe14b06040518163ffffffff1660e01b815260040160206040518083038186803b15801561263557600080fd5b505afa158015612649573d6000803e3d6000fd5b505050506040513d602081101561265f57600080fd5b81019080805190602001909291905050508273ffffffffffffffffffffffffffffffffffffffff1663a6dc73186040518163ffffffff1660e01b815260040160206040518083038186803b1580156126b657600080fd5b505afa1580156126ca573d6000803e3d6000fd5b505050506040513d60208110156126e057600080fd5b81019080805190602001909291905050500111612701576001915050612707565b60009150505b91905056fea165627a7a72305820ac6b57449bd71aba429209f2d51d33d0fc652d49f2ba00e88df6c2b55dcbbf200029",
  "source": "pragma solidity ^0.5.8;\r\n/**\r\n*\r\n* Processes light, low-cost, signed actions, transactions, and resolutions for an authorizing PokerHandData contract.\r\n*\r\n* (C)opyright 2016 to 2017\r\n*\r\n* This source code is protected by copyright and distributed under license.\r\n* Please see the root LICENSE file for terms and conditions.\r\n*\r\n*/\r\ncontract PokerHandSignedActions {\r\n\r\n    address public owner; //the contract's owner / publisher\r\n\r\n  \t/**\r\n\t* Contract constructor.\r\n\t*/\r\n\tconstructor() public {\r\n\t\towner = msg.sender;\r\n  }\r\n\r\n\t/**\r\n\t* Anonymous fallback function.\r\n\t*/\r\n\tfunction () external {\r\n\t\trevert();\r\n    }\r\n\r\n\t/**\r\n\t* Ends a hand played using signed transactions by updating players' bets. Once all players have invoked this function with\r\n\t* matching parameters the bet chips are awarded to the stated winner(s) and the poker hand data contract is reset for the next hand.\r\n\t*\r\n\t* @param dataAddr The address of a poker hand data contract for which this contract is authorized.\r\n\t* @param winnerAddr The address(es) of the declared winner(s) of the hand.\r\n\t* @param players The addresses of the agreed (within the poker hand data contract) players. The order of this array must match\r\n\t* the order of the values in the 'playerBets' parameter.\r\n\t* @param playerBets The bets, in wei, committed by the players listed in the 'players' parameter. The order of bets must match\r\n\t* the order of players in the 'players' parameter.\r\n\t*/\r\n\tfunction endHand(address dataAddr, address[] memory winnerAddr, address[] memory players, uint256[] memory playerBets) public {\r\n\t\tPokerHandData dataStorage = PokerHandData(dataAddr);\r\n\t\tif (dataStorage.agreed(msg.sender) == false) {\r\n\t\t\trevert();\r\n\t\t}\r\n\t\tif (dataStorage.phases(msg.sender) > 19) {\r\n\t\t\trevert();\r\n\t\t}\r\n\t\tuint matchingWinners = 0;\r\n\t\tfor (uint count=0; count<winnerAddr.length; count++) {\r\n\t\t\tfor (uint count2=0; count2<dataStorage.num_winner(); count2++) {\r\n\t\t\t\tif (winnerAddr[count] == dataStorage.winner(count2)) {\r\n\t\t\t\t\tmatchingWinners++;\r\n\t\t\t\t}\r\n\t\t\t}\r\n\t\t\tif (matchingWinners == 0) {\r\n\t\t\t\tdataStorage.add_winner(winnerAddr[count]);\r\n\t\t\t}\r\n\t\t\tmatchingWinners=0;\r\n\t\t}\r\n\t\tfor (uint8 count=0; count<players.length; count++) {\r\n\t\t\tdataStorage.set_playerBets(players[count], playerBets[count]);\r\n\t\t}\r\n\t\tdataStorage.set_complete(true);\r\n\t\tdataStorage.set_phase(msg.sender, 20);\r\n\t\tif (dataStorage.allPlayersAtPhase(20)) {\r\n\t\t\t//TODO: make this work for more than 2 players!\r\n\t\t\tfor (uint8 count=0; count<players.length; count++) {\r\n\t\t\t\tif (dataStorage.playerBets(players[count]) != playerBets[count]) {\r\n\t\t\t\t\t//supplied bet value doesn't match value set by other player(s); initiate challenge!\r\n\t\t\t\t\trevert();\r\n\t\t\t\t}\r\n\t\t\t}\r\n\t\t\tmatchingWinners = 0;\r\n\t\t\tfor (uint8 count=0; count<winnerAddr.length; count++) {\r\n\t\t\t\tfor (uint8 count2=0; count2<dataStorage.num_winner(); count2++) {\r\n\t\t\t\t\tif (winnerAddr[count] == dataStorage.winner(count2)) {\r\n\t\t\t\t\t\tmatchingWinners++;\r\n\t\t\t\t\t}\r\n\t\t\t\t}\r\n\t\t\t}\r\n\t\t\tif (matchingWinners != winnerAddr.length) {\r\n\t\t\t\trevert();\r\n\t\t\t}\r\n\t\t\tuint pot = 0;\r\n\t\t\tfor (uint8 count=0; count < players.length; count++) {\r\n\t\t\t\tpot += playerBets[count];\r\n\t\t\t\tdataStorage.set_playerChips(players[count], dataStorage.playerChips(players[count]) - playerBets[count]);\r\n\t\t\t}\r\n\t\t\tfor (uint8 count=0; count<winnerAddr.length; count++) {\r\n\t\t\t\tdataStorage.set_playerChips(winnerAddr[count], dataStorage.playerChips(winnerAddr[count])+(pot / winnerAddr.length));\r\n\t\t\t}\r\n\t\t\tfor (uint8 count=0; count < players.length; count++) {\r\n\t\t\t\tdataStorage.set_phase(players[count], 0);\r\n\t\t\t\tdataStorage.set_agreed(players[count], false);\r\n\t\t\t\tdataStorage.set_playerBets(players[count], 0);\r\n\t\t\t}\r\n\t\t\tdataStorage.clear_winner(); //reset winners array\r\n\t\t\taddress[] memory emptyAddrSet;\r\n\t\t\tdataStorage.new_players(emptyAddrSet); //reset initReady\r\n\t\t\tdataStorage.set_complete(false); //reset complete\r\n\t\t\tdataStorage.new_players(players); //re-add players\r\n\t\t}\r\n\t}\r\n\r\n\t/**\r\n\t* Ends a poker hand data contract and pays out each player's 'playerChips' from the data contract's value. All agreed players\r\n\t* must invoke this function before a payout is carried out.\r\n\t*\r\n\t* @param dataAddr The address of a poker hand data contract for which this contract is authorized.\r\n\t*/\r\n\tfunction endContract(address dataAddr) public {\r\n\t\tPokerHandData dataStorage = PokerHandData(dataAddr);\r\n\t\tif ((dataStorage.complete() == true) || (dataStorage.initReady() == false)) {\r\n\t\t\trevert();\r\n\t\t}\r\n\t\tdataStorage.set_phase(msg.sender, 21);\r\n\t\tdataStorage.set_lastActionBlock(block.number); //set last action block in case not all players end gracefully\r\n\t\tif (dataStorage.allPlayersAtPhase(21) || hasTimedOut(dataAddr)) {\r\n\t\t\tfor (uint count=0; count<dataStorage.num_Players(); count++) {\r\n\t\t\t\tif (dataStorage.playerChips(dataStorage.players(count)) > 0) {\r\n\t\t\t\t\tdataStorage.pay(dataStorage.players(count), dataStorage.playerChips(dataStorage.players(count)));\r\n\t\t\t\t\tdataStorage.set_playerChips(dataStorage.players(count), 0);\r\n\t\t\t\t}\r\n\t\t\t}\r\n\t\t}\r\n\t}\r\n\r\n\t /**\r\n\t * Checks whether a specific poker hand data contract has timed out.\r\n\t *\r\n\t * @param dataAddr The addres of the poker hand data contract to check. The target contract does not need to include\r\n\t * this contract as an authorized contract since this is a public read-only operation.\r\n\t *\r\n     * @return True if the hand/contract has timed out. A time out occurs when the current\r\n     * block number is higher than or equal to lastActionBlock + timeoutBlocks. If lastActionBlock\r\n\t * or timeoutBlocks is 0, false will always be returned\r\n     */\r\n    function hasTimedOut(address dataAddr) public view returns (bool) {\r\n\t\tPokerHandData dataStorage = PokerHandData(dataAddr);\r\n        if ((dataStorage.lastActionBlock()==0) || (dataStorage.timeoutBlocks() == 0)) {\r\n            return (false);\r\n        }\r\n         if ((dataStorage.lastActionBlock() + dataStorage.timeoutBlocks()) <= block.number) {\r\n            return (true);\r\n        } else {\r\n            return (false);\r\n        }\r\n    }\r\n\r\n\t/**\r\n\t* Activates the specified data contract by setting its \"lastActionBlock\" value to the current block.\r\n\t* Once activated the data contract expects updates within the \"timeoutBlocks\" time limit and is\r\n\t* subject to timeout resolutions. Typically the data contract should only be activated if signed\r\n\t* transactions between players have failed and \"full contract\" / full-cost mode is required.\r\n\t*\r\n\t* @param dataAddr The address of the poker hand data contract for which this contract is authorized.\r\n\t*/\r\n\tfunction activate(address dataAddr) public {\r\n\t\tPokerHandData dataStorage = PokerHandData (dataAddr);\r\n\t\tif (dataStorage.lastActionBlock() == 0) {\r\n\t\t\tdataStorage.set_lastActionBlock(block.number);\r\n\t\t}\r\n\t}\r\n\r\n\t/**\r\n\t* Processes a signed transaction received by the invoker from another player. Signed transactions are first\r\n\t* checked for validity (to verify which adddress they were signed with), before being processed.\r\n\t*\r\n\t* NOTE: Not yet fully implemented!\r\n\t*\r\n\t* @param dataAddr The address of the poker hand data contract for which this contract is authorized.\r\n\t* @param hash ---\r\n\t* @param v ---\r\n\t* @param r ---\r\n\t* @param s ---\r\n\t*/\r\n\tfunction processSignedTransaction(address dataAddr, bytes32 hash, uint8 v, bytes32 r, bytes32 s) public {\r\n\t   PokerHandData dataStorage = PokerHandData(dataAddr);\r\n       address account = verifySignature (hash, v, r, s);\r\n       bool found=false;\r\n       for (uint count=0; count<dataStorage.num_Players(); count++) {\r\n           if (dataStorage.players(count) == account) {\r\n               found=true;\r\n           }\r\n       }\r\n       if (!found) {\r\n           revert();\r\n       }\r\n       //TODO: implement signed transaction processing like the following:\r\n       /*\r\n       if (txType==\"B\") {\r\n            pot+=txValue;\r\n            playerChips[account]-=txValue;\r\n       }\r\n       */\r\n    }\r\n\r\n\t/**\r\n   * Returns the address associated with a supplied signature and input data (usually hashed value).\r\n\t *\r\n\t * When verifying the signature for a transaction for this contract the \"data\" should be a SHA3 hash of a string that combines the following:\r\n\t * txType + txDelimiter + txValue + txDelimiter + txNonce + initBlock\r\n   *\r\n   * The txType is the type of transaction being validated. Valid types include \"B\" (bet), \"D\" (fully-encrypted deck card),\r\n   * \"d\" (partially-encrypted deck card), \"C\" (private card selection), or \"c\" (partially-decrypted card selection).\r\n\t * The txValue is the value of the associated transaction. If it's a bet value (B) this value is in wei, otherwise this is a plaintext or\r\n\t * encrypted card value (depending on the txType).\r\n\t * The txNonce should match the nonce registered by the player when they agreed to the contract (nonces[account] == txNonce).\r\n\t * The initBlock value should match the \"initBlock\" variable set when the contract was initialized.\r\n   *\r\n   * @param data The 32-byte input data that was signed by the associated signature. This is usually a\r\n   * sha3/keccak hash of some plaintext message.\r\n   * @param v The recovery value, calculated as the last byte of the full signature plus 27 (usually either 27 or\r\n   * 28)\r\n   * @param r The first 32 bytes of the signature.\r\n   * @param s The second 32 bytes of the signature.\r\n\t *\r\n\t * @return The address recovered from the signed data.\r\n     */\r\n    function verifySignature(bytes32 data, uint8 v, bytes32 r, bytes32 s) public view returns (address) {\r\n        return(ecrecover(data, v, r, s));\r\n    }\r\n\r\n\t   /**\r\n     * Converts numeric string input to a uint256 value. It is assumed that the input string is compatible with an unsigned\r\n     * integer type up to 2^256-1 bits.\r\n     *\r\n     * @param input The string to convert to a uint256 value.\r\n     *\r\n     * @return A uint256 representation of the input string.\r\n     */\r\n     /*\r\n    function stringToUint256(string memory input) public returns (uint256 result) {\r\n      bytes memory inputBytes = bytes(input);\r\n      for (uint count = 0; count < inputBytes.length; count++) {\r\n        bytes1 inputByte = inputBytes[count];\r\n        //if ((inputByte >= 48) && (inputByte <= 57)) {\r\n        if ((inputByte >= \"a\") && (inputByte <= \"Z\")) {\r\n          result *= 10;\r\n          result += uint(inputBytes[count]) - 48;\r\n        }\r\n      }\r\n    }\r\n    */\r\n\r\n\t   /**\r\n     * Converts an input uint256 value to a bytes32 value.\r\n     *\r\n     * @param input The input uint256 value to convert to bytes32.\r\n     *\r\n     * @return The bytes32 representation of the input uint256 value.\r\n     */\r\n    function uintToBytes32(uint256 input) public returns (bytes32 result) {\r\n        if (input == 0) {\r\n            result = '0';\r\n        } else {\r\n            while (input > 0) {\r\n                result = bytes32(uint(result) / (2 ** 8));\r\n                result |= bytes32(((input % 10) + 48) * 2 ** (8 * 31));\r\n                input /= 10;\r\n            }\r\n        }\r\n        return result;\r\n    }\r\n\r\n    /**\r\n     * Converts a bytes32 value to a string type.\r\n     *\r\n     * @param input The bytes32 input to convert to a string output.\r\n     *\r\n     * @return The string representation of the bytes32 input.\r\n     */\r\n    function bytes32ToString(bytes32 input) public returns (string memory) {\r\n        bytes memory byteStr = new bytes(32);\r\n        uint numChars = 0;\r\n        for (uint count = 0; count < 32; count++) {\r\n            byte currentByte = byte(bytes32(uint(input) * 2 ** (8 * count)));\r\n            if (currentByte != 0) {\r\n                byteStr[count] = currentByte;\r\n                numChars++;\r\n            }\r\n        }\r\n        bytes memory outputBytes = new bytes(numChars);\r\n        for (uint8 count = 0; count < numChars; count++) {\r\n            outputBytes[count] = byteStr[count];\r\n        }\r\n        return string(outputBytes);\r\n    }\r\n}\r\n\r\ncontract PokerHandData {\r\n\tstruct Card {\r\n        uint index;\r\n        uint suit;\r\n        uint value;\r\n    }\r\n\tstruct CardGroup {\r\n       Card[] cards;\r\n    }\r\n\tstruct Key {\r\n        uint256 encKey;\r\n        uint256 decKey;\r\n        uint256 prime;\r\n    }\r\n    address public owner;\r\n    address[] public authorizedGameContracts;\r\n\tuint public numAuthorizedContracts;\r\n    address[] public players;\r\n    uint256 public buyIn;\r\n    mapping (address => bool) public agreed;\r\n\tuint256 public prime;\r\n    uint256 public baseCard;\r\n    mapping (address => uint256) public playerBets;\r\n\tmapping (address => uint256) public playerChips;\r\n\tmapping (address => bool) public playerHasBet;\r\n\tbool public bigBlindHasBet;\r\n    uint256 public pot;\r\n    uint public betPosition;\r\n    mapping (address => uint256[52]) public encryptedDeck;\r\n    mapping (address => uint256[2]) public privateCards;\r\n    struct DecryptPrivateCardsStruct {\r\n        address sourceAddr;\r\n        address targetAddr;\r\n        uint256[2] cards;\r\n    }\r\n    DecryptPrivateCardsStruct[] public privateDecryptCards;\r\n    uint256[5] public publicCards;\r\n\tmapping (address => uint256[5]) public publicDecryptCards;\r\n    mapping (address => Key[]) public playerKeys;\r\n    mapping (address => uint[5]) public playerBestHands;\r\n    mapping (address => Card[]) public playerCards;\r\n    mapping (address => uint256) public results;\r\n    mapping (address => address) public declaredWinner;\r\n    address[] public winner;\r\n    uint public lastActionBlock;\r\n    uint public timeoutBlocks;\r\n\tuint public initBlock;\r\n\tmapping (address => uint) public nonces;\r\n    mapping (address => uint) public validationIndex;\r\n    address public challenger;\r\n\tbool public complete;\r\n\tbool public initReady;\r\n    mapping (address => uint8) public phases;\r\n\r\n  //\tfunction PokerHandData() {}\r\n\tfunction () external {}\r\n\tmodifier onlyAuthorized {\r\n\t\tuint allowedContractsFound = 0;\r\n        for (uint count=0; count<authorizedGameContracts.length; count++) {\r\n            if (msg.sender == authorizedGameContracts[count]) {\r\n                allowedContractsFound++;\r\n            }\r\n        }\r\n        if (allowedContractsFound == 0) {\r\n             revert();\r\n        }\r\n        _;\r\n\t}\r\n\tfunction agreeToContract(uint256 nonce) payable public {}\r\n\tfunction initialize(uint256 primeVal, uint256 baseCardVal, uint256 buyInVal, uint timeoutBlocksVal) public onlyAuthorized {}\r\n  function getPrivateDecryptCard(address sourceAddr, address targetAddr, uint cardIndex) view public returns (uint256) {}\r\n    function allPlayersAtPhase(uint phaseNum) public view returns (bool) {}\r\n    function num_Players() public view returns (uint) {}\r\n\tfunction num_Keys(address target) public view returns (uint) {}\r\n\tfunction num_PlayerCards(address target) public view returns (uint) {}\r\n\tfunction num_PrivateCards(address targetAddr) public view returns (uint) {}\r\n\tfunction num_PublicCards() public view returns (uint) {}\r\n\tfunction num_PrivateDecryptCards(address sourceAddr, address targetAddr) public view returns (uint) {}\r\n\tfunction num_winner() public view returns (uint) {}\r\n\tfunction setAuthorizedGameContracts (address[] memory contractAddresses) public {}\r\n\tfunction add_playerCard(address playerAddress, uint index, uint suit, uint value) public onlyAuthorized {}\r\n    function update_playerCard(address playerAddress, uint cardIndex, uint index, uint suit, uint value) public onlyAuthorized {}\r\n    function set_validationIndex(address playerAddress, uint index) public onlyAuthorized {}\r\n\tfunction set_result(address playerAddress, uint256 result) public onlyAuthorized {}\r\n\tfunction set_complete (bool completeSet) public onlyAuthorized {}\r\n\tfunction set_publicCard (uint256 card, uint index) public onlyAuthorized {}\r\n\tfunction set_encryptedDeck (address fromAddr, uint256[] memory cards) public onlyAuthorized {}\r\n\tfunction set_privateCards (address fromAddr, uint256[] memory cards) public onlyAuthorized {}\r\n\tfunction set_betPosition (uint betPositionVal) public onlyAuthorized {}\r\n\tfunction set_bigBlindHasBet (bool bigBlindHasBetVal) public onlyAuthorized {}\r\n\tfunction set_playerHasBet (address fromAddr, bool hasBet) public onlyAuthorized {}\r\n\tfunction set_playerBets (address fromAddr, uint betVal) public onlyAuthorized {}\r\n\tfunction set_playerChips (address forAddr, uint numChips) public onlyAuthorized {}\r\n\tfunction set_pot (uint potVal) public onlyAuthorized {}\r\n\tfunction set_agreed (address fromAddr, bool agreedVal) public onlyAuthorized {}\r\n\tfunction add_winner (address winnerAddress) public onlyAuthorized {}\r\n\tfunction clear_winner () public onlyAuthorized {}\r\n\tfunction new_players (address[] memory newPlayers) public onlyAuthorized {}\r\n\tfunction set_phase (address fromAddr, uint8 phaseNum) public onlyAuthorized {}\r\n\tfunction set_lastActionBlock(uint blockNum) public onlyAuthorized {}\r\n\tfunction set_privateDecryptCards (address fromAddr, uint256[] memory cards, address targetAddr) public onlyAuthorized {}\r\n\tfunction set_publicCards (address fromAddr, uint256[] memory cards) public onlyAuthorized {}\r\n\tfunction set_publicDecryptCards (address fromAddr, uint256[] memory cards) public onlyAuthorized {}\r\n\tfunction add_declaredWinner(address fromAddr, address winnerAddr) public onlyAuthorized {}\r\n    function privateDecryptCardsIndex (address sourceAddr, address targetAddr) public onlyAuthorized returns (uint) {}\r\n\tfunction set_playerBestHands(address fromAddr, uint cardIndex, uint256 card) public onlyAuthorized {}\r\n\tfunction add_playerKeys(address fromAddr, uint256[] memory encKeys, uint256[] memory decKeys) public onlyAuthorized {}\r\n\tfunction remove_playerKeys(address fromAddr) public onlyAuthorized {}\r\n\tfunction set_challenger(address challengerAddr) public onlyAuthorized {}\r\n\tfunction pay (address toAddr, uint amount) public onlyAuthorized returns (bool) {}\r\n\tfunction publicDecryptCardsInfo() public view returns (uint maxLength, uint playersAtMaxLength) {}\r\n    function length_encryptedDeck(address fromAddr) public view returns (uint) {}\r\n}\r\n",
  "sourcePath": "/home/patrick/Desktop/Tomo Poker/cypherpoker.js/solidity/contracts/PokerHandSignedActions.sol",
  "compiler": {
    "name": "solc",
    "version": "0.5.8+commit.23d335f2.Emscripten.clang"
  },
  "schemaVersion": "3.0.16",
  "updatedAt": "2019-09-27T18:12:55.507Z",
  "devdoc": {
    "methods": {
      "activate(address)": {
        "params": {
          "dataAddr": "The address of the poker hand data contract for which this contract is authorized.\r"
        }
      },
      "bytes32ToString(bytes32)": {
        "params": {
          "input": "The bytes32 input to convert to a string output.\r "
        },
        "return": "The string representation of the bytes32 input.\r"
      },
      "endContract(address)": {
        "params": {
          "dataAddr": "The address of a poker hand data contract for which this contract is authorized.\r"
        }
      },
      "endHand(address,address[],address[],uint256[])": {
        "params": {
          "dataAddr": "The address of a poker hand data contract for which this contract is authorized.\r",
          "playerBets": "The bets, in wei, committed by the players listed in the 'players' parameter. The order of bets must match\r the order of players in the 'players' parameter.\r",
          "players": "The addresses of the agreed (within the poker hand data contract) players. The order of this array must match\r the order of the values in the 'playerBets' parameter.\r",
          "winnerAddr": "The address(es) of the declared winner(s) of the hand.\r"
        }
      },
      "hasTimedOut(address)": {
        "params": {
          "dataAddr": "The addres of the poker hand data contract to check. The target contract does not need to include\r this contract as an authorized contract since this is a public read-only operation.\r "
        },
        "return": "True if the hand/contract has timed out. A time out occurs when the current\r block number is higher than or equal to lastActionBlock + timeoutBlocks. If lastActionBlock\r or timeoutBlocks is 0, false will always be returned\r"
      },
      "processSignedTransaction(address,bytes32,uint8,bytes32,bytes32)": {
        "params": {
          "dataAddr": "The address of the poker hand data contract for which this contract is authorized.\r",
          "hash": "---\r",
          "r": "---\r",
          "s": "---\r",
          "v": "---\r"
        }
      },
      "uintToBytes32(uint256)": {
        "params": {
          "input": "The input uint256 value to convert to bytes32.\r "
        },
        "return": "The bytes32 representation of the input uint256 value.\r"
      },
      "verifySignature(bytes32,uint8,bytes32,bytes32)": {
        "params": {
          "data": "The 32-byte input data that was signed by the associated signature. This is usually a\r sha3/keccak hash of some plaintext message.\r",
          "r": "The first 32 bytes of the signature.\r",
          "s": "The second 32 bytes of the signature.\r ",
          "v": "The recovery value, calculated as the last byte of the full signature plus 27 (usually either 27 or\r 28)\r"
        },
        "return": "The address recovered from the signed data.\r"
      }
    }
  },
  "userdoc": {
    "methods": {
      "activate(address)": {
        "notice": "Activates the specified data contract by setting its \"lastActionBlock\" value to the current block.\r Once activated the data contract expects updates within the \"timeoutBlocks\" time limit and is\r subject to timeout resolutions. Typically the data contract should only be activated if signed\r transactions between players have failed and \"full contract\" / full-cost mode is required.\r "
      },
      "bytes32ToString(bytes32)": {
        "notice": "Converts a bytes32 value to a string type.\r "
      },
      "constructor": "Contract constructor.\r",
      "endContract(address)": {
        "notice": "Ends a poker hand data contract and pays out each player's 'playerChips' from the data contract's value. All agreed players\r must invoke this function before a payout is carried out.\r "
      },
      "endHand(address,address[],address[],uint256[])": {
        "notice": "Ends a hand played using signed transactions by updating players' bets. Once all players have invoked this function with\r matching parameters the bet chips are awarded to the stated winner(s) and the poker hand data contract is reset for the next hand.\r "
      },
      "hasTimedOut(address)": {
        "notice": "Checks whether a specific poker hand data contract has timed out.\r "
      },
      "processSignedTransaction(address,bytes32,uint8,bytes32,bytes32)": {
        "notice": "Processes a signed transaction received by the invoker from another player. Signed transactions are first\r checked for validity (to verify which adddress they were signed with), before being processed.\r \t* NOTE: Not yet fully implemented!\r "
      },
      "uintToBytes32(uint256)": {
        "notice": "Converts an input uint256 value to a bytes32 value.\r "
      },
      "verifySignature(bytes32,uint8,bytes32,bytes32)": {
        "notice": "Returns the address associated with a supplied signature and input data (usually hashed value).\r \t * When verifying the signature for a transaction for this contract the \"data\" should be a SHA3 hash of a string that combines the following:\r txType + txDelimiter + txValue + txDelimiter + txNonce + initBlock\r    * The txType is the type of transaction being validated. Valid types include \"B\" (bet), \"D\" (fully-encrypted deck card),\r \"d\" (partially-encrypted deck card), \"C\" (private card selection), or \"c\" (partially-decrypted card selection).\r The txValue is the value of the associated transaction. If it's a bet value (B) this value is in wei, otherwise this is a plaintext or\r encrypted card value (depending on the txType).\r The txNonce should match the nonce registered by the player when they agreed to the contract (nonces[account] == txNonce).\r The initBlock value should match the \"initBlock\" variable set when the contract was initialized.\r "
      }
    },
    "notice": " * Processes light, low-cost, signed actions, transactions, and resolutions for an authorizing PokerHandData contract.\r  * (C)opyright 2016 to 2017\r  * This source code is protected by copyright and distributed under license.\r Please see the root LICENSE file for terms and conditions.\r "
  }
}